{
	"GnosisSafeSimplified.sol": {
		"GnosisSafeSimplified": {
			"abi": [
				{
					"inputs": [
						{
							"internalType": "address[]",
							"name": "_owners",
							"type": "address[]"
						},
						{
							"internalType": "uint256",
							"name": "_threshold",
							"type": "uint256"
						}
					],
					"stateMutability": "payable",
					"type": "constructor"
				},
				{
					"anonymous": false,
					"inputs": [
						{
							"indexed": false,
							"internalType": "address[]",
							"name": "owners",
							"type": "address[]"
						},
						{
							"indexed": false,
							"internalType": "uint256",
							"name": "threshold",
							"type": "uint256"
						}
					],
					"name": "SafeInitialized",
					"type": "event"
				},
				{
					"anonymous": false,
					"inputs": [
						{
							"indexed": false,
							"internalType": "uint256",
							"name": "newThreshold",
							"type": "uint256"
						}
					],
					"name": "ThresholdUpdated",
					"type": "event"
				},
				{
					"anonymous": false,
					"inputs": [
						{
							"indexed": true,
							"internalType": "uint256",
							"name": "transactionId",
							"type": "uint256"
						},
						{
							"indexed": true,
							"internalType": "address",
							"name": "owner",
							"type": "address"
						}
					],
					"name": "TransactionCancelled",
					"type": "event"
				},
				{
					"anonymous": false,
					"inputs": [
						{
							"indexed": true,
							"internalType": "uint256",
							"name": "transactionId",
							"type": "uint256"
						},
						{
							"indexed": true,
							"internalType": "address",
							"name": "owner",
							"type": "address"
						}
					],
					"name": "TransactionConfirmed",
					"type": "event"
				},
				{
					"anonymous": false,
					"inputs": [
						{
							"indexed": true,
							"internalType": "uint256",
							"name": "transactionId",
							"type": "uint256"
						},
						{
							"indexed": true,
							"internalType": "address",
							"name": "owner",
							"type": "address"
						}
					],
					"name": "TransactionExecuted",
					"type": "event"
				},
				{
					"anonymous": false,
					"inputs": [
						{
							"indexed": true,
							"internalType": "uint256",
							"name": "transactionId",
							"type": "uint256"
						},
						{
							"indexed": true,
							"internalType": "address",
							"name": "destination",
							"type": "address"
						},
						{
							"indexed": false,
							"internalType": "uint256",
							"name": "value",
							"type": "uint256"
						},
						{
							"indexed": false,
							"internalType": "bytes",
							"name": "data",
							"type": "bytes"
						}
					],
					"name": "TransactionFailed",
					"type": "event"
				},
				{
					"anonymous": false,
					"inputs": [
						{
							"indexed": true,
							"internalType": "uint256",
							"name": "transactionId",
							"type": "uint256"
						}
					],
					"name": "TransactionId",
					"type": "event"
				},
				{
					"anonymous": false,
					"inputs": [
						{
							"indexed": true,
							"internalType": "uint256",
							"name": "transactionId",
							"type": "uint256"
						},
						{
							"indexed": true,
							"internalType": "address",
							"name": "owner",
							"type": "address"
						},
						{
							"indexed": false,
							"internalType": "address",
							"name": "destination",
							"type": "address"
						},
						{
							"indexed": false,
							"internalType": "uint256",
							"name": "value",
							"type": "uint256"
						},
						{
							"indexed": false,
							"internalType": "bytes",
							"name": "data",
							"type": "bytes"
						}
					],
					"name": "TransactionProposed",
					"type": "event"
				},
				{
					"inputs": [
						{
							"internalType": "uint256",
							"name": "transactionId",
							"type": "uint256"
						}
					],
					"name": "cancelTransaction",
					"outputs": [],
					"stateMutability": "nonpayable",
					"type": "function"
				},
				{
					"inputs": [
						{
							"internalType": "uint256",
							"name": "transactionId",
							"type": "uint256"
						}
					],
					"name": "confirmTransaction",
					"outputs": [],
					"stateMutability": "nonpayable",
					"type": "function"
				},
				{
					"inputs": [
						{
							"internalType": "uint256",
							"name": "",
							"type": "uint256"
						},
						{
							"internalType": "address",
							"name": "",
							"type": "address"
						}
					],
					"name": "confirmations",
					"outputs": [
						{
							"internalType": "bool",
							"name": "",
							"type": "bool"
						}
					],
					"stateMutability": "view",
					"type": "function"
				},
				{
					"inputs": [
						{
							"internalType": "uint256",
							"name": "transactionId",
							"type": "uint256"
						}
					],
					"name": "executeTransaction",
					"outputs": [],
					"stateMutability": "nonpayable",
					"type": "function"
				},
				{
					"inputs": [],
					"name": "getOwners",
					"outputs": [
						{
							"internalType": "address[]",
							"name": "",
							"type": "address[]"
						}
					],
					"stateMutability": "view",
					"type": "function"
				},
				{
					"inputs": [
						{
							"internalType": "uint256",
							"name": "transactionId",
							"type": "uint256"
						}
					],
					"name": "getTransaction",
					"outputs": [
						{
							"internalType": "address",
							"name": "destination",
							"type": "address"
						},
						{
							"internalType": "uint256",
							"name": "value",
							"type": "uint256"
						},
						{
							"internalType": "bytes",
							"name": "data",
							"type": "bytes"
						},
						{
							"internalType": "bool",
							"name": "executed",
							"type": "bool"
						},
						{
							"internalType": "uint256",
							"name": "confirmationsCount",
							"type": "uint256"
						}
					],
					"stateMutability": "view",
					"type": "function"
				},
				{
					"inputs": [],
					"name": "getTransactionCount",
					"outputs": [
						{
							"internalType": "uint256",
							"name": "",
							"type": "uint256"
						}
					],
					"stateMutability": "view",
					"type": "function"
				},
				{
					"inputs": [
						{
							"internalType": "address",
							"name": "",
							"type": "address"
						}
					],
					"name": "isOwner",
					"outputs": [
						{
							"internalType": "bool",
							"name": "",
							"type": "bool"
						}
					],
					"stateMutability": "view",
					"type": "function"
				},
				{
					"inputs": [
						{
							"internalType": "uint256",
							"name": "",
							"type": "uint256"
						}
					],
					"name": "owners",
					"outputs": [
						{
							"internalType": "address",
							"name": "",
							"type": "address"
						}
					],
					"stateMutability": "view",
					"type": "function"
				},
				{
					"inputs": [
						{
							"internalType": "address",
							"name": "destination",
							"type": "address"
						},
						{
							"internalType": "uint256",
							"name": "value",
							"type": "uint256"
						},
						{
							"internalType": "bytes",
							"name": "data",
							"type": "bytes"
						}
					],
					"name": "submitTransaction",
					"outputs": [],
					"stateMutability": "nonpayable",
					"type": "function"
				},
				{
					"inputs": [],
					"name": "threshold",
					"outputs": [
						{
							"internalType": "uint256",
							"name": "",
							"type": "uint256"
						}
					],
					"stateMutability": "view",
					"type": "function"
				},
				{
					"inputs": [
						{
							"internalType": "uint256",
							"name": "",
							"type": "uint256"
						}
					],
					"name": "transactions",
					"outputs": [
						{
							"internalType": "address",
							"name": "destination",
							"type": "address"
						},
						{
							"internalType": "uint256",
							"name": "value",
							"type": "uint256"
						},
						{
							"internalType": "bytes",
							"name": "data",
							"type": "bytes"
						},
						{
							"internalType": "bool",
							"name": "executed",
							"type": "bool"
						},
						{
							"internalType": "uint256",
							"name": "confirmationsCount",
							"type": "uint256"
						}
					],
					"stateMutability": "view",
					"type": "function"
				},
				{
					"inputs": [
						{
							"internalType": "uint256",
							"name": "newThreshold",
							"type": "uint256"
						}
					],
					"name": "updateThreshold",
					"outputs": [],
					"stateMutability": "nonpayable",
					"type": "function"
				},
				{
					"stateMutability": "payable",
					"type": "receive"
				}
			],
			"devdoc": {
				"kind": "dev",
				"methods": {
					"cancelTransaction(uint256)": {
						"details": "Cancel a transaction.",
						"params": {
							"transactionId": "The ID of the transaction to cancel."
						}
					},
					"confirmTransaction(uint256)": {
						"details": "Confirm a transaction.",
						"params": {
							"transactionId": "The ID of the transaction to confirm."
						}
					},
					"executeTransaction(uint256)": {
						"details": "Execute a confirmed transaction.",
						"params": {
							"transactionId": "The ID of the transaction to execute."
						}
					},
					"getOwners()": {
						"details": "Get the list of owners.",
						"returns": {
							"_0": "The list of owner addresses."
						}
					},
					"getTransaction(uint256)": {
						"details": "Get details of a specific transaction.",
						"params": {
							"transactionId": "The ID of the transaction."
						},
						"returns": {
							"confirmationsCount": "The number of confirmations.",
							"data": "The data payload.",
							"destination": "The destination address.",
							"executed": "Whether the transaction has been executed.",
							"value": "The amount of ETH to send."
						}
					},
					"getTransactionCount()": {
						"details": "Get the total number of transactions.",
						"returns": {
							"_0": "The number of transactions."
						}
					},
					"submitTransaction(address,uint256,bytes)": {
						"details": "Submit a new transaction.",
						"params": {
							"data": "The data payload of the transaction.",
							"destination": "The address to which the transaction is sent.",
							"value": "The amount of ETH to send with the transaction."
						}
					},
					"updateThreshold(uint256)": {
						"details": "Update the threshold for confirming transactions.",
						"params": {
							"newThreshold": "The new threshold value."
						}
					}
				},
				"version": 1
			},
			"evm": {
				"assembly": "    /* \"GnosisSafeSimplified.sol\":121:7190  contract GnosisSafeSimplified is ReentrancyGuard {... */\n  mstore(0x40, 0x80)\n    /* \"GnosisSafeSimplified.sol\":1740:2349  constructor(address[] memory _owners, uint256 _threshold) payable {... */\n  mload(0x40)\n  sub(codesize, bytecodeSize)\n  dup1\n  bytecodeSize\n  dup4\n  codecopy\n  dup2\n  dup2\n  add\n  0x40\n  mstore\n  dup2\n  add\n  swap1\n  tag_1\n  swap2\n  swap1\n  tag_2\n  jump\t// in\ntag_1:\n    /* \"@openzeppelin/contracts/security/ReentrancyGuard.sol\":1716:1717  1 */\n  0x01\n    /* \"@openzeppelin/contracts/security/ReentrancyGuard.sol\":1821:1828  _status */\n  0x00\n    /* \"@openzeppelin/contracts/security/ReentrancyGuard.sol\":1821:1843  _status = _NOT_ENTERED */\n  dup2\n  swap1\n  sstore\n  pop\n    /* \"GnosisSafeSimplified.sol\":1841:1842  0 */\n  0x00\n    /* \"GnosisSafeSimplified.sol\":1824:1831  _owners */\n  dup3\n    /* \"GnosisSafeSimplified.sol\":1824:1838  _owners.length */\n  mload\n    /* \"GnosisSafeSimplified.sol\":1824:1842  _owners.length > 0 */\n  gt\n    /* \"GnosisSafeSimplified.sol\":1816:1874  require(_owners.length > 0, \"At least one owner required\") */\n  tag_7\n  jumpi\n  mload(0x40)\n  0x08c379a000000000000000000000000000000000000000000000000000000000\n  dup2\n  mstore\n  0x04\n  add\n  tag_8\n  swap1\n  tag_9\n  jump\t// in\ntag_8:\n  mload(0x40)\n  dup1\n  swap2\n  sub\n  swap1\n  revert\ntag_7:\n    /* \"GnosisSafeSimplified.sol\":1905:1906  0 */\n  0x00\n    /* \"GnosisSafeSimplified.sol\":1892:1902  _threshold */\n  dup2\n    /* \"GnosisSafeSimplified.sol\":1892:1906  _threshold > 0 */\n  gt\n    /* \"GnosisSafeSimplified.sol\":1892:1938  _threshold > 0 && _threshold <= _owners.length */\n  dup1\n  iszero\n  tag_10\n  jumpi\n  pop\n    /* \"GnosisSafeSimplified.sol\":1924:1931  _owners */\n  dup2\n    /* \"GnosisSafeSimplified.sol\":1924:1938  _owners.length */\n  mload\n    /* \"GnosisSafeSimplified.sol\":1910:1920  _threshold */\n  dup2\n    /* \"GnosisSafeSimplified.sol\":1910:1938  _threshold <= _owners.length */\n  gt\n  iszero\n    /* \"GnosisSafeSimplified.sol\":1892:1938  _threshold > 0 && _threshold <= _owners.length */\ntag_10:\n    /* \"GnosisSafeSimplified.sol\":1884:1960  require(_threshold > 0 && _threshold <= _owners.length, \"Invalid threshold\") */\n  tag_11\n  jumpi\n  mload(0x40)\n  0x08c379a000000000000000000000000000000000000000000000000000000000\n  dup2\n  mstore\n  0x04\n  add\n  tag_12\n  swap1\n  tag_13\n  jump\t// in\ntag_12:\n  mload(0x40)\n  dup1\n  swap2\n  sub\n  swap1\n  revert\ntag_11:\n    /* \"GnosisSafeSimplified.sol\":1976:1985  uint256 i */\n  0x00\n    /* \"GnosisSafeSimplified.sol\":1971:2259  for (uint256 i = 0; i < _owners.length; i++) {... */\ntag_14:\n    /* \"GnosisSafeSimplified.sol\":1995:2002  _owners */\n  dup3\n    /* \"GnosisSafeSimplified.sol\":1995:2009  _owners.length */\n  mload\n    /* \"GnosisSafeSimplified.sol\":1991:1992  i */\n  dup2\n    /* \"GnosisSafeSimplified.sol\":1991:2009  i < _owners.length */\n  lt\n    /* \"GnosisSafeSimplified.sol\":1971:2259  for (uint256 i = 0; i < _owners.length; i++) {... */\n  iszero\n  tag_15\n  jumpi\n    /* \"GnosisSafeSimplified.sol\":2030:2043  address owner */\n  0x00\n    /* \"GnosisSafeSimplified.sol\":2046:2053  _owners */\n  dup4\n    /* \"GnosisSafeSimplified.sol\":2054:2055  i */\n  dup3\n    /* \"GnosisSafeSimplified.sol\":2046:2056  _owners[i] */\n  dup2\n  mload\n  dup2\n  lt\n  tag_17\n  jumpi\n  tag_18\n  tag_19\n  jump\t// in\ntag_18:\ntag_17:\n  0x20\n  mul\n  0x20\n  add\n  add\n  mload\n    /* \"GnosisSafeSimplified.sol\":2030:2056  address owner = _owners[i] */\n  swap1\n  pop\n    /* \"GnosisSafeSimplified.sol\":2095:2096  0 */\n  0x00\n    /* \"GnosisSafeSimplified.sol\":2078:2097  owner != address(0) */\n  0xffffffffffffffffffffffffffffffffffffffff\n  and\n    /* \"GnosisSafeSimplified.sol\":2078:2083  owner */\n  dup2\n    /* \"GnosisSafeSimplified.sol\":2078:2097  owner != address(0) */\n  0xffffffffffffffffffffffffffffffffffffffff\n  and\n  sub\n    /* \"GnosisSafeSimplified.sol\":2070:2123  require(owner != address(0), \"Invalid owner address\") */\n  tag_20\n  jumpi\n  mload(0x40)\n  0x08c379a000000000000000000000000000000000000000000000000000000000\n  dup2\n  mstore\n  0x04\n  add\n  tag_21\n  swap1\n  tag_22\n  jump\t// in\ntag_21:\n  mload(0x40)\n  dup1\n  swap2\n  sub\n  swap1\n  revert\ntag_20:\n    /* \"GnosisSafeSimplified.sol\":2146:2153  isOwner */\n  0x02\n    /* \"GnosisSafeSimplified.sol\":2146:2160  isOwner[owner] */\n  0x00\n    /* \"GnosisSafeSimplified.sol\":2154:2159  owner */\n  dup3\n    /* \"GnosisSafeSimplified.sol\":2146:2160  isOwner[owner] */\n  0xffffffffffffffffffffffffffffffffffffffff\n  and\n  0xffffffffffffffffffffffffffffffffffffffff\n  and\n  dup2\n  mstore\n  0x20\n  add\n  swap1\n  dup2\n  mstore\n  0x20\n  add\n  0x00\n  keccak256\n  0x00\n  swap1\n  sload\n  swap1\n  0x0100\n  exp\n  swap1\n  div\n  0xff\n  and\n    /* \"GnosisSafeSimplified.sol\":2145:2160  !isOwner[owner] */\n  iszero\n    /* \"GnosisSafeSimplified.sol\":2137:2180  require(!isOwner[owner], \"Duplicate owner\") */\n  tag_23\n  jumpi\n  mload(0x40)\n  0x08c379a000000000000000000000000000000000000000000000000000000000\n  dup2\n  mstore\n  0x04\n  add\n  tag_24\n  swap1\n  tag_25\n  jump\t// in\ntag_24:\n  mload(0x40)\n  dup1\n  swap2\n  sub\n  swap1\n  revert\ntag_23:\n    /* \"GnosisSafeSimplified.sol\":2212:2216  true */\n  0x01\n    /* \"GnosisSafeSimplified.sol\":2195:2202  isOwner */\n  0x02\n    /* \"GnosisSafeSimplified.sol\":2195:2209  isOwner[owner] */\n  0x00\n    /* \"GnosisSafeSimplified.sol\":2203:2208  owner */\n  dup4\n    /* \"GnosisSafeSimplified.sol\":2195:2209  isOwner[owner] */\n  0xffffffffffffffffffffffffffffffffffffffff\n  and\n  0xffffffffffffffffffffffffffffffffffffffff\n  and\n  dup2\n  mstore\n  0x20\n  add\n  swap1\n  dup2\n  mstore\n  0x20\n  add\n  0x00\n  keccak256\n  0x00\n    /* \"GnosisSafeSimplified.sol\":2195:2216  isOwner[owner] = true */\n  0x0100\n  exp\n  dup2\n  sload\n  dup2\n  0xff\n  mul\n  not\n  and\n  swap1\n  dup4\n  iszero\n  iszero\n  mul\n  or\n  swap1\n  sstore\n  pop\n    /* \"GnosisSafeSimplified.sol\":2230:2236  owners */\n  0x01\n    /* \"GnosisSafeSimplified.sol\":2242:2247  owner */\n  dup2\n    /* \"GnosisSafeSimplified.sol\":2230:2248  owners.push(owner) */\n  swap1\n  dup1\n  0x01\n  dup2\n  sload\n  add\n  dup1\n  dup3\n  sstore\n  dup1\n  swap2\n  pop\n  pop\n  0x01\n  swap1\n  sub\n  swap1\n  0x00\n  mstore\n  keccak256(0x00, 0x20)\n  add\n  0x00\n  swap1\n  swap2\n  swap1\n  swap2\n  swap1\n  swap2\n  0x0100\n  exp\n  dup2\n  sload\n  dup2\n  0xffffffffffffffffffffffffffffffffffffffff\n  mul\n  not\n  and\n  swap1\n  dup4\n  0xffffffffffffffffffffffffffffffffffffffff\n  and\n  mul\n  or\n  swap1\n  sstore\n  pop\n    /* \"GnosisSafeSimplified.sol\":2016:2259  {... */\n  pop\n    /* \"GnosisSafeSimplified.sol\":2011:2014  i++ */\n  dup1\n  dup1\n  0x01\n  add\n  swap2\n  pop\n  pop\n    /* \"GnosisSafeSimplified.sol\":1971:2259  for (uint256 i = 0; i < _owners.length; i++) {... */\n  jump(tag_14)\ntag_15:\n  pop\n    /* \"GnosisSafeSimplified.sol\":2281:2291  _threshold */\n  dup1\n    /* \"GnosisSafeSimplified.sol\":2269:2278  threshold */\n  0x03\n    /* \"GnosisSafeSimplified.sol\":2269:2291  threshold = _threshold */\n  dup2\n  swap1\n  sstore\n  pop\n    /* \"GnosisSafeSimplified.sol\":2306:2342  SafeInitialized(_owners, _threshold) */\n  0x7699bae868b89dd6a1d348a18c33d02d0b7cdcb2f598af9eacc0d5060e779b58\n    /* \"GnosisSafeSimplified.sol\":2322:2329  _owners */\n  dup3\n    /* \"GnosisSafeSimplified.sol\":2331:2341  _threshold */\n  dup3\n    /* \"GnosisSafeSimplified.sol\":2306:2342  SafeInitialized(_owners, _threshold) */\n  mload(0x40)\n  tag_27\n  swap3\n  swap2\n  swap1\n  tag_28\n  jump\t// in\ntag_27:\n  mload(0x40)\n  dup1\n  swap2\n  sub\n  swap1\n  log1\n    /* \"GnosisSafeSimplified.sol\":1740:2349  constructor(address[] memory _owners, uint256 _threshold) payable {... */\n  pop\n  pop\n    /* \"GnosisSafeSimplified.sol\":121:7190  contract GnosisSafeSimplified is ReentrancyGuard {... */\n  jump(tag_29)\n    /* \"#utility.yul\":7:82   */\ntag_30:\n    /* \"#utility.yul\":40:46   */\n  0x00\n    /* \"#utility.yul\":73:75   */\n  0x40\n    /* \"#utility.yul\":67:76   */\n  mload\n    /* \"#utility.yul\":57:76   */\n  swap1\n  pop\n    /* \"#utility.yul\":7:82   */\n  swap1\n  jump\t// out\n    /* \"#utility.yul\":88:205   */\ntag_31:\n    /* \"#utility.yul\":197:198   */\n  0x00\n    /* \"#utility.yul\":194:195   */\n  dup1\n    /* \"#utility.yul\":187:199   */\n  revert\n    /* \"#utility.yul\":211:328   */\ntag_32:\n    /* \"#utility.yul\":320:321   */\n  0x00\n    /* \"#utility.yul\":317:318   */\n  dup1\n    /* \"#utility.yul\":310:322   */\n  revert\n    /* \"#utility.yul\":334:451   */\ntag_33:\n    /* \"#utility.yul\":443:444   */\n  0x00\n    /* \"#utility.yul\":440:441   */\n  dup1\n    /* \"#utility.yul\":433:445   */\n  revert\n    /* \"#utility.yul\":457:559   */\ntag_34:\n    /* \"#utility.yul\":498:504   */\n  0x00\n    /* \"#utility.yul\":549:551   */\n  0x1f\n    /* \"#utility.yul\":545:552   */\n  not\n    /* \"#utility.yul\":540:542   */\n  0x1f\n    /* \"#utility.yul\":533:538   */\n  dup4\n    /* \"#utility.yul\":529:543   */\n  add\n    /* \"#utility.yul\":525:553   */\n  and\n    /* \"#utility.yul\":515:553   */\n  swap1\n  pop\n    /* \"#utility.yul\":457:559   */\n  swap2\n  swap1\n  pop\n  jump\t// out\n    /* \"#utility.yul\":565:745   */\ntag_35:\n    /* \"#utility.yul\":613:690   */\n  0x4e487b7100000000000000000000000000000000000000000000000000000000\n    /* \"#utility.yul\":610:611   */\n  0x00\n    /* \"#utility.yul\":603:691   */\n  mstore\n    /* \"#utility.yul\":710:714   */\n  0x41\n    /* \"#utility.yul\":707:708   */\n  0x04\n    /* \"#utility.yul\":700:715   */\n  mstore\n    /* \"#utility.yul\":734:738   */\n  0x24\n    /* \"#utility.yul\":731:732   */\n  0x00\n    /* \"#utility.yul\":724:739   */\n  revert\n    /* \"#utility.yul\":751:1032   */\ntag_36:\n    /* \"#utility.yul\":834:861   */\n  tag_74\n    /* \"#utility.yul\":856:860   */\n  dup3\n    /* \"#utility.yul\":834:861   */\n  tag_34\n  jump\t// in\ntag_74:\n    /* \"#utility.yul\":826:832   */\n  dup2\n    /* \"#utility.yul\":822:862   */\n  add\n    /* \"#utility.yul\":964:970   */\n  dup2\n    /* \"#utility.yul\":952:962   */\n  dup2\n    /* \"#utility.yul\":949:971   */\n  lt\n    /* \"#utility.yul\":928:946   */\n  0xffffffffffffffff\n    /* \"#utility.yul\":916:926   */\n  dup3\n    /* \"#utility.yul\":913:947   */\n  gt\n    /* \"#utility.yul\":910:972   */\n  or\n    /* \"#utility.yul\":907:995   */\n  iszero\n  tag_75\n  jumpi\n    /* \"#utility.yul\":975:993   */\n  tag_76\n  tag_35\n  jump\t// in\ntag_76:\n    /* \"#utility.yul\":907:995   */\ntag_75:\n    /* \"#utility.yul\":1015:1025   */\n  dup1\n    /* \"#utility.yul\":1011:1013   */\n  0x40\n    /* \"#utility.yul\":1004:1026   */\n  mstore\n    /* \"#utility.yul\":794:1032   */\n  pop\n    /* \"#utility.yul\":751:1032   */\n  pop\n  pop\n  jump\t// out\n    /* \"#utility.yul\":1038:1167   */\ntag_37:\n    /* \"#utility.yul\":1072:1078   */\n  0x00\n    /* \"#utility.yul\":1099:1119   */\n  tag_78\n  tag_30\n  jump\t// in\ntag_78:\n    /* \"#utility.yul\":1089:1119   */\n  swap1\n  pop\n    /* \"#utility.yul\":1128:1161   */\n  tag_79\n    /* \"#utility.yul\":1156:1160   */\n  dup3\n    /* \"#utility.yul\":1148:1154   */\n  dup3\n    /* \"#utility.yul\":1128:1161   */\n  tag_36\n  jump\t// in\ntag_79:\n    /* \"#utility.yul\":1038:1167   */\n  swap2\n  swap1\n  pop\n  jump\t// out\n    /* \"#utility.yul\":1173:1484   */\ntag_38:\n    /* \"#utility.yul\":1250:1254   */\n  0x00\n    /* \"#utility.yul\":1340:1358   */\n  0xffffffffffffffff\n    /* \"#utility.yul\":1332:1338   */\n  dup3\n    /* \"#utility.yul\":1329:1359   */\n  gt\n    /* \"#utility.yul\":1326:1382   */\n  iszero\n  tag_81\n  jumpi\n    /* \"#utility.yul\":1362:1380   */\n  tag_82\n  tag_35\n  jump\t// in\ntag_82:\n    /* \"#utility.yul\":1326:1382   */\ntag_81:\n    /* \"#utility.yul\":1412:1416   */\n  0x20\n    /* \"#utility.yul\":1404:1410   */\n  dup3\n    /* \"#utility.yul\":1400:1417   */\n  mul\n    /* \"#utility.yul\":1392:1417   */\n  swap1\n  pop\n    /* \"#utility.yul\":1472:1476   */\n  0x20\n    /* \"#utility.yul\":1466:1470   */\n  dup2\n    /* \"#utility.yul\":1462:1477   */\n  add\n    /* \"#utility.yul\":1454:1477   */\n  swap1\n  pop\n    /* \"#utility.yul\":1173:1484   */\n  swap2\n  swap1\n  pop\n  jump\t// out\n    /* \"#utility.yul\":1490:1607   */\ntag_39:\n    /* \"#utility.yul\":1599:1600   */\n  0x00\n    /* \"#utility.yul\":1596:1597   */\n  dup1\n    /* \"#utility.yul\":1589:1601   */\n  revert\n    /* \"#utility.yul\":1613:1739   */\ntag_40:\n    /* \"#utility.yul\":1650:1657   */\n  0x00\n    /* \"#utility.yul\":1690:1732   */\n  0xffffffffffffffffffffffffffffffffffffffff\n    /* \"#utility.yul\":1683:1688   */\n  dup3\n    /* \"#utility.yul\":1679:1733   */\n  and\n    /* \"#utility.yul\":1668:1733   */\n  swap1\n  pop\n    /* \"#utility.yul\":1613:1739   */\n  swap2\n  swap1\n  pop\n  jump\t// out\n    /* \"#utility.yul\":1745:1841   */\ntag_41:\n    /* \"#utility.yul\":1782:1789   */\n  0x00\n    /* \"#utility.yul\":1811:1835   */\n  tag_86\n    /* \"#utility.yul\":1829:1834   */\n  dup3\n    /* \"#utility.yul\":1811:1835   */\n  tag_40\n  jump\t// in\ntag_86:\n    /* \"#utility.yul\":1800:1835   */\n  swap1\n  pop\n    /* \"#utility.yul\":1745:1841   */\n  swap2\n  swap1\n  pop\n  jump\t// out\n    /* \"#utility.yul\":1847:1969   */\ntag_42:\n    /* \"#utility.yul\":1920:1944   */\n  tag_88\n    /* \"#utility.yul\":1938:1943   */\n  dup2\n    /* \"#utility.yul\":1920:1944   */\n  tag_41\n  jump\t// in\ntag_88:\n    /* \"#utility.yul\":1913:1918   */\n  dup2\n    /* \"#utility.yul\":1910:1945   */\n  eq\n    /* \"#utility.yul\":1900:1963   */\n  tag_89\n  jumpi\n    /* \"#utility.yul\":1959:1960   */\n  0x00\n    /* \"#utility.yul\":1956:1957   */\n  dup1\n    /* \"#utility.yul\":1949:1961   */\n  revert\n    /* \"#utility.yul\":1900:1963   */\ntag_89:\n    /* \"#utility.yul\":1847:1969   */\n  pop\n  jump\t// out\n    /* \"#utility.yul\":1975:2118   */\ntag_43:\n    /* \"#utility.yul\":2032:2037   */\n  0x00\n    /* \"#utility.yul\":2063:2069   */\n  dup2\n    /* \"#utility.yul\":2057:2070   */\n  mload\n    /* \"#utility.yul\":2048:2070   */\n  swap1\n  pop\n    /* \"#utility.yul\":2079:2112   */\n  tag_91\n    /* \"#utility.yul\":2106:2111   */\n  dup2\n    /* \"#utility.yul\":2079:2112   */\n  tag_42\n  jump\t// in\ntag_91:\n    /* \"#utility.yul\":1975:2118   */\n  swap3\n  swap2\n  pop\n  pop\n  jump\t// out\n    /* \"#utility.yul\":2141:2873   */\ntag_44:\n    /* \"#utility.yul\":2248:2253   */\n  0x00\n    /* \"#utility.yul\":2273:2354   */\n  tag_93\n    /* \"#utility.yul\":2289:2353   */\n  tag_94\n    /* \"#utility.yul\":2346:2352   */\n  dup5\n    /* \"#utility.yul\":2289:2353   */\n  tag_38\n  jump\t// in\ntag_94:\n    /* \"#utility.yul\":2273:2354   */\n  tag_37\n  jump\t// in\ntag_93:\n    /* \"#utility.yul\":2264:2354   */\n  swap1\n  pop\n    /* \"#utility.yul\":2374:2379   */\n  dup1\n    /* \"#utility.yul\":2403:2409   */\n  dup4\n    /* \"#utility.yul\":2396:2401   */\n  dup3\n    /* \"#utility.yul\":2389:2410   */\n  mstore\n    /* \"#utility.yul\":2437:2441   */\n  0x20\n    /* \"#utility.yul\":2430:2435   */\n  dup3\n    /* \"#utility.yul\":2426:2442   */\n  add\n    /* \"#utility.yul\":2419:2442   */\n  swap1\n  pop\n    /* \"#utility.yul\":2490:2494   */\n  0x20\n    /* \"#utility.yul\":2482:2488   */\n  dup5\n    /* \"#utility.yul\":2478:2495   */\n  mul\n    /* \"#utility.yul\":2470:2476   */\n  dup4\n    /* \"#utility.yul\":2466:2496   */\n  add\n    /* \"#utility.yul\":2519:2522   */\n  dup6\n    /* \"#utility.yul\":2511:2517   */\n  dup2\n    /* \"#utility.yul\":2508:2523   */\n  gt\n    /* \"#utility.yul\":2505:2627   */\n  iszero\n  tag_95\n  jumpi\n    /* \"#utility.yul\":2538:2617   */\n  tag_96\n  tag_39\n  jump\t// in\ntag_96:\n    /* \"#utility.yul\":2505:2627   */\ntag_95:\n    /* \"#utility.yul\":2653:2659   */\n  dup4\n    /* \"#utility.yul\":2636:2867   */\ntag_97:\n    /* \"#utility.yul\":2670:2676   */\n  dup2\n    /* \"#utility.yul\":2665:2668   */\n  dup2\n    /* \"#utility.yul\":2662:2677   */\n  lt\n    /* \"#utility.yul\":2636:2867   */\n  iszero\n  tag_99\n  jumpi\n    /* \"#utility.yul\":2745:2748   */\n  dup1\n    /* \"#utility.yul\":2774:2822   */\n  tag_100\n    /* \"#utility.yul\":2818:2821   */\n  dup9\n    /* \"#utility.yul\":2806:2816   */\n  dup3\n    /* \"#utility.yul\":2774:2822   */\n  tag_43\n  jump\t// in\ntag_100:\n    /* \"#utility.yul\":2769:2772   */\n  dup5\n    /* \"#utility.yul\":2762:2823   */\n  mstore\n    /* \"#utility.yul\":2852:2856   */\n  0x20\n    /* \"#utility.yul\":2847:2850   */\n  dup5\n    /* \"#utility.yul\":2843:2857   */\n  add\n    /* \"#utility.yul\":2836:2857   */\n  swap4\n  pop\n    /* \"#utility.yul\":2712:2867   */\n  pop\n    /* \"#utility.yul\":2696:2700   */\n  0x20\n    /* \"#utility.yul\":2691:2694   */\n  dup2\n    /* \"#utility.yul\":2687:2701   */\n  add\n    /* \"#utility.yul\":2680:2701   */\n  swap1\n  pop\n    /* \"#utility.yul\":2636:2867   */\n  jump(tag_97)\ntag_99:\n    /* \"#utility.yul\":2640:2661   */\n  pop\n    /* \"#utility.yul\":2254:2873   */\n  pop\n  pop\n    /* \"#utility.yul\":2141:2873   */\n  swap4\n  swap3\n  pop\n  pop\n  pop\n  jump\t// out\n    /* \"#utility.yul\":2896:3281   */\ntag_45:\n    /* \"#utility.yul\":2978:2983   */\n  0x00\n    /* \"#utility.yul\":3027:3030   */\n  dup3\n    /* \"#utility.yul\":3020:3024   */\n  0x1f\n    /* \"#utility.yul\":3012:3018   */\n  dup4\n    /* \"#utility.yul\":3008:3025   */\n  add\n    /* \"#utility.yul\":3004:3031   */\n  slt\n    /* \"#utility.yul\":2994:3116   */\n  tag_102\n  jumpi\n    /* \"#utility.yul\":3035:3114   */\n  tag_103\n  tag_33\n  jump\t// in\ntag_103:\n    /* \"#utility.yul\":2994:3116   */\ntag_102:\n    /* \"#utility.yul\":3145:3151   */\n  dup2\n    /* \"#utility.yul\":3139:3152   */\n  mload\n    /* \"#utility.yul\":3170:3275   */\n  tag_104\n    /* \"#utility.yul\":3271:3274   */\n  dup5\n    /* \"#utility.yul\":3263:3269   */\n  dup3\n    /* \"#utility.yul\":3256:3260   */\n  0x20\n    /* \"#utility.yul\":3248:3254   */\n  dup7\n    /* \"#utility.yul\":3244:3261   */\n  add\n    /* \"#utility.yul\":3170:3275   */\n  tag_44\n  jump\t// in\ntag_104:\n    /* \"#utility.yul\":3161:3275   */\n  swap2\n  pop\n    /* \"#utility.yul\":2984:3281   */\n  pop\n    /* \"#utility.yul\":2896:3281   */\n  swap3\n  swap2\n  pop\n  pop\n  jump\t// out\n    /* \"#utility.yul\":3287:3364   */\ntag_46:\n    /* \"#utility.yul\":3324:3331   */\n  0x00\n    /* \"#utility.yul\":3353:3358   */\n  dup2\n    /* \"#utility.yul\":3342:3358   */\n  swap1\n  pop\n    /* \"#utility.yul\":3287:3364   */\n  swap2\n  swap1\n  pop\n  jump\t// out\n    /* \"#utility.yul\":3370:3492   */\ntag_47:\n    /* \"#utility.yul\":3443:3467   */\n  tag_107\n    /* \"#utility.yul\":3461:3466   */\n  dup2\n    /* \"#utility.yul\":3443:3467   */\n  tag_46\n  jump\t// in\ntag_107:\n    /* \"#utility.yul\":3436:3441   */\n  dup2\n    /* \"#utility.yul\":3433:3468   */\n  eq\n    /* \"#utility.yul\":3423:3486   */\n  tag_108\n  jumpi\n    /* \"#utility.yul\":3482:3483   */\n  0x00\n    /* \"#utility.yul\":3479:3480   */\n  dup1\n    /* \"#utility.yul\":3472:3484   */\n  revert\n    /* \"#utility.yul\":3423:3486   */\ntag_108:\n    /* \"#utility.yul\":3370:3492   */\n  pop\n  jump\t// out\n    /* \"#utility.yul\":3498:3641   */\ntag_48:\n    /* \"#utility.yul\":3555:3560   */\n  0x00\n    /* \"#utility.yul\":3586:3592   */\n  dup2\n    /* \"#utility.yul\":3580:3593   */\n  mload\n    /* \"#utility.yul\":3571:3593   */\n  swap1\n  pop\n    /* \"#utility.yul\":3602:3635   */\n  tag_110\n    /* \"#utility.yul\":3629:3634   */\n  dup2\n    /* \"#utility.yul\":3602:3635   */\n  tag_47\n  jump\t// in\ntag_110:\n    /* \"#utility.yul\":3498:3641   */\n  swap3\n  swap2\n  pop\n  pop\n  jump\t// out\n    /* \"#utility.yul\":3647:4357   */\ntag_2:\n    /* \"#utility.yul\":3751:3757   */\n  0x00\n    /* \"#utility.yul\":3759:3765   */\n  dup1\n    /* \"#utility.yul\":3808:3810   */\n  0x40\n    /* \"#utility.yul\":3796:3805   */\n  dup4\n    /* \"#utility.yul\":3787:3794   */\n  dup6\n    /* \"#utility.yul\":3783:3806   */\n  sub\n    /* \"#utility.yul\":3779:3811   */\n  slt\n    /* \"#utility.yul\":3776:3895   */\n  iszero\n  tag_112\n  jumpi\n    /* \"#utility.yul\":3814:3893   */\n  tag_113\n  tag_31\n  jump\t// in\ntag_113:\n    /* \"#utility.yul\":3776:3895   */\ntag_112:\n    /* \"#utility.yul\":3955:3956   */\n  0x00\n    /* \"#utility.yul\":3944:3953   */\n  dup4\n    /* \"#utility.yul\":3940:3957   */\n  add\n    /* \"#utility.yul\":3934:3958   */\n  mload\n    /* \"#utility.yul\":3985:4003   */\n  0xffffffffffffffff\n    /* \"#utility.yul\":3977:3983   */\n  dup2\n    /* \"#utility.yul\":3974:4004   */\n  gt\n    /* \"#utility.yul\":3971:4088   */\n  iszero\n  tag_114\n  jumpi\n    /* \"#utility.yul\":4007:4086   */\n  tag_115\n  tag_32\n  jump\t// in\ntag_115:\n    /* \"#utility.yul\":3971:4088   */\ntag_114:\n    /* \"#utility.yul\":4112:4201   */\n  tag_116\n    /* \"#utility.yul\":4193:4200   */\n  dup6\n    /* \"#utility.yul\":4184:4190   */\n  dup3\n    /* \"#utility.yul\":4173:4182   */\n  dup7\n    /* \"#utility.yul\":4169:4191   */\n  add\n    /* \"#utility.yul\":4112:4201   */\n  tag_45\n  jump\t// in\ntag_116:\n    /* \"#utility.yul\":4102:4201   */\n  swap3\n  pop\n    /* \"#utility.yul\":3905:4211   */\n  pop\n    /* \"#utility.yul\":4250:4252   */\n  0x20\n    /* \"#utility.yul\":4276:4340   */\n  tag_117\n    /* \"#utility.yul\":4332:4339   */\n  dup6\n    /* \"#utility.yul\":4323:4329   */\n  dup3\n    /* \"#utility.yul\":4312:4321   */\n  dup7\n    /* \"#utility.yul\":4308:4330   */\n  add\n    /* \"#utility.yul\":4276:4340   */\n  tag_48\n  jump\t// in\ntag_117:\n    /* \"#utility.yul\":4266:4340   */\n  swap2\n  pop\n    /* \"#utility.yul\":4221:4350   */\n  pop\n    /* \"#utility.yul\":3647:4357   */\n  swap3\n  pop\n  swap3\n  swap1\n  pop\n  jump\t// out\n    /* \"#utility.yul\":4363:4532   */\ntag_49:\n    /* \"#utility.yul\":4447:4458   */\n  0x00\n    /* \"#utility.yul\":4481:4487   */\n  dup3\n    /* \"#utility.yul\":4476:4479   */\n  dup3\n    /* \"#utility.yul\":4469:4488   */\n  mstore\n    /* \"#utility.yul\":4521:4525   */\n  0x20\n    /* \"#utility.yul\":4516:4519   */\n  dup3\n    /* \"#utility.yul\":4512:4526   */\n  add\n    /* \"#utility.yul\":4497:4526   */\n  swap1\n  pop\n    /* \"#utility.yul\":4363:4532   */\n  swap3\n  swap2\n  pop\n  pop\n  jump\t// out\n    /* \"#utility.yul\":4538:4715   */\ntag_50:\n    /* \"#utility.yul\":4678:4707   */\n  0x4174206c65617374206f6e65206f776e65722072657175697265640000000000\n    /* \"#utility.yul\":4674:4675   */\n  0x00\n    /* \"#utility.yul\":4666:4672   */\n  dup3\n    /* \"#utility.yul\":4662:4676   */\n  add\n    /* \"#utility.yul\":4655:4708   */\n  mstore\n    /* \"#utility.yul\":4538:4715   */\n  pop\n  jump\t// out\n    /* \"#utility.yul\":4721:5087   */\ntag_51:\n    /* \"#utility.yul\":4863:4866   */\n  0x00\n    /* \"#utility.yul\":4884:4951   */\n  tag_121\n    /* \"#utility.yul\":4948:4950   */\n  0x1b\n    /* \"#utility.yul\":4943:4946   */\n  dup4\n    /* \"#utility.yul\":4884:4951   */\n  tag_49\n  jump\t// in\ntag_121:\n    /* \"#utility.yul\":4877:4951   */\n  swap2\n  pop\n    /* \"#utility.yul\":4960:5053   */\n  tag_122\n    /* \"#utility.yul\":5049:5052   */\n  dup3\n    /* \"#utility.yul\":4960:5053   */\n  tag_50\n  jump\t// in\ntag_122:\n    /* \"#utility.yul\":5078:5080   */\n  0x20\n    /* \"#utility.yul\":5073:5076   */\n  dup3\n    /* \"#utility.yul\":5069:5081   */\n  add\n    /* \"#utility.yul\":5062:5081   */\n  swap1\n  pop\n    /* \"#utility.yul\":4721:5087   */\n  swap2\n  swap1\n  pop\n  jump\t// out\n    /* \"#utility.yul\":5093:5512   */\ntag_9:\n    /* \"#utility.yul\":5259:5263   */\n  0x00\n    /* \"#utility.yul\":5297:5299   */\n  0x20\n    /* \"#utility.yul\":5286:5295   */\n  dup3\n    /* \"#utility.yul\":5282:5300   */\n  add\n    /* \"#utility.yul\":5274:5300   */\n  swap1\n  pop\n    /* \"#utility.yul\":5346:5355   */\n  dup2\n    /* \"#utility.yul\":5340:5344   */\n  dup2\n    /* \"#utility.yul\":5336:5356   */\n  sub\n    /* \"#utility.yul\":5332:5333   */\n  0x00\n    /* \"#utility.yul\":5321:5330   */\n  dup4\n    /* \"#utility.yul\":5317:5334   */\n  add\n    /* \"#utility.yul\":5310:5357   */\n  mstore\n    /* \"#utility.yul\":5374:5505   */\n  tag_124\n    /* \"#utility.yul\":5500:5504   */\n  dup2\n    /* \"#utility.yul\":5374:5505   */\n  tag_51\n  jump\t// in\ntag_124:\n    /* \"#utility.yul\":5366:5505   */\n  swap1\n  pop\n    /* \"#utility.yul\":5093:5512   */\n  swap2\n  swap1\n  pop\n  jump\t// out\n    /* \"#utility.yul\":5518:5685   */\ntag_52:\n    /* \"#utility.yul\":5658:5677   */\n  0x496e76616c6964207468726573686f6c64000000000000000000000000000000\n    /* \"#utility.yul\":5654:5655   */\n  0x00\n    /* \"#utility.yul\":5646:5652   */\n  dup3\n    /* \"#utility.yul\":5642:5656   */\n  add\n    /* \"#utility.yul\":5635:5678   */\n  mstore\n    /* \"#utility.yul\":5518:5685   */\n  pop\n  jump\t// out\n    /* \"#utility.yul\":5691:6057   */\ntag_53:\n    /* \"#utility.yul\":5833:5836   */\n  0x00\n    /* \"#utility.yul\":5854:5921   */\n  tag_127\n    /* \"#utility.yul\":5918:5920   */\n  0x11\n    /* \"#utility.yul\":5913:5916   */\n  dup4\n    /* \"#utility.yul\":5854:5921   */\n  tag_49\n  jump\t// in\ntag_127:\n    /* \"#utility.yul\":5847:5921   */\n  swap2\n  pop\n    /* \"#utility.yul\":5930:6023   */\n  tag_128\n    /* \"#utility.yul\":6019:6022   */\n  dup3\n    /* \"#utility.yul\":5930:6023   */\n  tag_52\n  jump\t// in\ntag_128:\n    /* \"#utility.yul\":6048:6050   */\n  0x20\n    /* \"#utility.yul\":6043:6046   */\n  dup3\n    /* \"#utility.yul\":6039:6051   */\n  add\n    /* \"#utility.yul\":6032:6051   */\n  swap1\n  pop\n    /* \"#utility.yul\":5691:6057   */\n  swap2\n  swap1\n  pop\n  jump\t// out\n    /* \"#utility.yul\":6063:6482   */\ntag_13:\n    /* \"#utility.yul\":6229:6233   */\n  0x00\n    /* \"#utility.yul\":6267:6269   */\n  0x20\n    /* \"#utility.yul\":6256:6265   */\n  dup3\n    /* \"#utility.yul\":6252:6270   */\n  add\n    /* \"#utility.yul\":6244:6270   */\n  swap1\n  pop\n    /* \"#utility.yul\":6316:6325   */\n  dup2\n    /* \"#utility.yul\":6310:6314   */\n  dup2\n    /* \"#utility.yul\":6306:6326   */\n  sub\n    /* \"#utility.yul\":6302:6303   */\n  0x00\n    /* \"#utility.yul\":6291:6300   */\n  dup4\n    /* \"#utility.yul\":6287:6304   */\n  add\n    /* \"#utility.yul\":6280:6327   */\n  mstore\n    /* \"#utility.yul\":6344:6475   */\n  tag_130\n    /* \"#utility.yul\":6470:6474   */\n  dup2\n    /* \"#utility.yul\":6344:6475   */\n  tag_53\n  jump\t// in\ntag_130:\n    /* \"#utility.yul\":6336:6475   */\n  swap1\n  pop\n    /* \"#utility.yul\":6063:6482   */\n  swap2\n  swap1\n  pop\n  jump\t// out\n    /* \"#utility.yul\":6488:6668   */\ntag_19:\n    /* \"#utility.yul\":6536:6613   */\n  0x4e487b7100000000000000000000000000000000000000000000000000000000\n    /* \"#utility.yul\":6533:6534   */\n  0x00\n    /* \"#utility.yul\":6526:6614   */\n  mstore\n    /* \"#utility.yul\":6633:6637   */\n  0x32\n    /* \"#utility.yul\":6630:6631   */\n  0x04\n    /* \"#utility.yul\":6623:6638   */\n  mstore\n    /* \"#utility.yul\":6657:6661   */\n  0x24\n    /* \"#utility.yul\":6654:6655   */\n  0x00\n    /* \"#utility.yul\":6647:6662   */\n  revert\n    /* \"#utility.yul\":6674:6845   */\ntag_54:\n    /* \"#utility.yul\":6814:6837   */\n  0x496e76616c6964206f776e657220616464726573730000000000000000000000\n    /* \"#utility.yul\":6810:6811   */\n  0x00\n    /* \"#utility.yul\":6802:6808   */\n  dup3\n    /* \"#utility.yul\":6798:6812   */\n  add\n    /* \"#utility.yul\":6791:6838   */\n  mstore\n    /* \"#utility.yul\":6674:6845   */\n  pop\n  jump\t// out\n    /* \"#utility.yul\":6851:7217   */\ntag_55:\n    /* \"#utility.yul\":6993:6996   */\n  0x00\n    /* \"#utility.yul\":7014:7081   */\n  tag_134\n    /* \"#utility.yul\":7078:7080   */\n  0x15\n    /* \"#utility.yul\":7073:7076   */\n  dup4\n    /* \"#utility.yul\":7014:7081   */\n  tag_49\n  jump\t// in\ntag_134:\n    /* \"#utility.yul\":7007:7081   */\n  swap2\n  pop\n    /* \"#utility.yul\":7090:7183   */\n  tag_135\n    /* \"#utility.yul\":7179:7182   */\n  dup3\n    /* \"#utility.yul\":7090:7183   */\n  tag_54\n  jump\t// in\ntag_135:\n    /* \"#utility.yul\":7208:7210   */\n  0x20\n    /* \"#utility.yul\":7203:7206   */\n  dup3\n    /* \"#utility.yul\":7199:7211   */\n  add\n    /* \"#utility.yul\":7192:7211   */\n  swap1\n  pop\n    /* \"#utility.yul\":6851:7217   */\n  swap2\n  swap1\n  pop\n  jump\t// out\n    /* \"#utility.yul\":7223:7642   */\ntag_22:\n    /* \"#utility.yul\":7389:7393   */\n  0x00\n    /* \"#utility.yul\":7427:7429   */\n  0x20\n    /* \"#utility.yul\":7416:7425   */\n  dup3\n    /* \"#utility.yul\":7412:7430   */\n  add\n    /* \"#utility.yul\":7404:7430   */\n  swap1\n  pop\n    /* \"#utility.yul\":7476:7485   */\n  dup2\n    /* \"#utility.yul\":7470:7474   */\n  dup2\n    /* \"#utility.yul\":7466:7486   */\n  sub\n    /* \"#utility.yul\":7462:7463   */\n  0x00\n    /* \"#utility.yul\":7451:7460   */\n  dup4\n    /* \"#utility.yul\":7447:7464   */\n  add\n    /* \"#utility.yul\":7440:7487   */\n  mstore\n    /* \"#utility.yul\":7504:7635   */\n  tag_137\n    /* \"#utility.yul\":7630:7634   */\n  dup2\n    /* \"#utility.yul\":7504:7635   */\n  tag_55\n  jump\t// in\ntag_137:\n    /* \"#utility.yul\":7496:7635   */\n  swap1\n  pop\n    /* \"#utility.yul\":7223:7642   */\n  swap2\n  swap1\n  pop\n  jump\t// out\n    /* \"#utility.yul\":7648:7813   */\ntag_56:\n    /* \"#utility.yul\":7788:7805   */\n  0x4475706c6963617465206f776e65720000000000000000000000000000000000\n    /* \"#utility.yul\":7784:7785   */\n  0x00\n    /* \"#utility.yul\":7776:7782   */\n  dup3\n    /* \"#utility.yul\":7772:7786   */\n  add\n    /* \"#utility.yul\":7765:7806   */\n  mstore\n    /* \"#utility.yul\":7648:7813   */\n  pop\n  jump\t// out\n    /* \"#utility.yul\":7819:8185   */\ntag_57:\n    /* \"#utility.yul\":7961:7964   */\n  0x00\n    /* \"#utility.yul\":7982:8049   */\n  tag_140\n    /* \"#utility.yul\":8046:8048   */\n  0x0f\n    /* \"#utility.yul\":8041:8044   */\n  dup4\n    /* \"#utility.yul\":7982:8049   */\n  tag_49\n  jump\t// in\ntag_140:\n    /* \"#utility.yul\":7975:8049   */\n  swap2\n  pop\n    /* \"#utility.yul\":8058:8151   */\n  tag_141\n    /* \"#utility.yul\":8147:8150   */\n  dup3\n    /* \"#utility.yul\":8058:8151   */\n  tag_56\n  jump\t// in\ntag_141:\n    /* \"#utility.yul\":8176:8178   */\n  0x20\n    /* \"#utility.yul\":8171:8174   */\n  dup3\n    /* \"#utility.yul\":8167:8179   */\n  add\n    /* \"#utility.yul\":8160:8179   */\n  swap1\n  pop\n    /* \"#utility.yul\":7819:8185   */\n  swap2\n  swap1\n  pop\n  jump\t// out\n    /* \"#utility.yul\":8191:8610   */\ntag_25:\n    /* \"#utility.yul\":8357:8361   */\n  0x00\n    /* \"#utility.yul\":8395:8397   */\n  0x20\n    /* \"#utility.yul\":8384:8393   */\n  dup3\n    /* \"#utility.yul\":8380:8398   */\n  add\n    /* \"#utility.yul\":8372:8398   */\n  swap1\n  pop\n    /* \"#utility.yul\":8444:8453   */\n  dup2\n    /* \"#utility.yul\":8438:8442   */\n  dup2\n    /* \"#utility.yul\":8434:8454   */\n  sub\n    /* \"#utility.yul\":8430:8431   */\n  0x00\n    /* \"#utility.yul\":8419:8428   */\n  dup4\n    /* \"#utility.yul\":8415:8432   */\n  add\n    /* \"#utility.yul\":8408:8455   */\n  mstore\n    /* \"#utility.yul\":8472:8603   */\n  tag_143\n    /* \"#utility.yul\":8598:8602   */\n  dup2\n    /* \"#utility.yul\":8472:8603   */\n  tag_57\n  jump\t// in\ntag_143:\n    /* \"#utility.yul\":8464:8603   */\n  swap1\n  pop\n    /* \"#utility.yul\":8191:8610   */\n  swap2\n  swap1\n  pop\n  jump\t// out\n    /* \"#utility.yul\":8616:8730   */\ntag_58:\n    /* \"#utility.yul\":8683:8689   */\n  0x00\n    /* \"#utility.yul\":8717:8722   */\n  dup2\n    /* \"#utility.yul\":8711:8723   */\n  mload\n    /* \"#utility.yul\":8701:8723   */\n  swap1\n  pop\n    /* \"#utility.yul\":8616:8730   */\n  swap2\n  swap1\n  pop\n  jump\t// out\n    /* \"#utility.yul\":8736:8920   */\ntag_59:\n    /* \"#utility.yul\":8835:8846   */\n  0x00\n    /* \"#utility.yul\":8869:8875   */\n  dup3\n    /* \"#utility.yul\":8864:8867   */\n  dup3\n    /* \"#utility.yul\":8857:8876   */\n  mstore\n    /* \"#utility.yul\":8909:8913   */\n  0x20\n    /* \"#utility.yul\":8904:8907   */\n  dup3\n    /* \"#utility.yul\":8900:8914   */\n  add\n    /* \"#utility.yul\":8885:8914   */\n  swap1\n  pop\n    /* \"#utility.yul\":8736:8920   */\n  swap3\n  swap2\n  pop\n  pop\n  jump\t// out\n    /* \"#utility.yul\":8926:9058   */\ntag_60:\n    /* \"#utility.yul\":8993:8997   */\n  0x00\n    /* \"#utility.yul\":9016:9019   */\n  dup2\n    /* \"#utility.yul\":9008:9019   */\n  swap1\n  pop\n    /* \"#utility.yul\":9046:9050   */\n  0x20\n    /* \"#utility.yul\":9041:9044   */\n  dup3\n    /* \"#utility.yul\":9037:9051   */\n  add\n    /* \"#utility.yul\":9029:9051   */\n  swap1\n  pop\n    /* \"#utility.yul\":8926:9058   */\n  swap2\n  swap1\n  pop\n  jump\t// out\n    /* \"#utility.yul\":9064:9172   */\ntag_61:\n    /* \"#utility.yul\":9141:9165   */\n  tag_148\n    /* \"#utility.yul\":9159:9164   */\n  dup2\n    /* \"#utility.yul\":9141:9165   */\n  tag_41\n  jump\t// in\ntag_148:\n    /* \"#utility.yul\":9136:9139   */\n  dup3\n    /* \"#utility.yul\":9129:9166   */\n  mstore\n    /* \"#utility.yul\":9064:9172   */\n  pop\n  pop\n  jump\t// out\n    /* \"#utility.yul\":9178:9357   */\ntag_62:\n    /* \"#utility.yul\":9247:9257   */\n  0x00\n    /* \"#utility.yul\":9268:9314   */\n  tag_150\n    /* \"#utility.yul\":9310:9313   */\n  dup4\n    /* \"#utility.yul\":9302:9308   */\n  dup4\n    /* \"#utility.yul\":9268:9314   */\n  tag_61\n  jump\t// in\ntag_150:\n    /* \"#utility.yul\":9346:9350   */\n  0x20\n    /* \"#utility.yul\":9341:9344   */\n  dup4\n    /* \"#utility.yul\":9337:9351   */\n  add\n    /* \"#utility.yul\":9323:9351   */\n  swap1\n  pop\n    /* \"#utility.yul\":9178:9357   */\n  swap3\n  swap2\n  pop\n  pop\n  jump\t// out\n    /* \"#utility.yul\":9363:9476   */\ntag_63:\n    /* \"#utility.yul\":9433:9437   */\n  0x00\n    /* \"#utility.yul\":9465:9469   */\n  0x20\n    /* \"#utility.yul\":9460:9463   */\n  dup3\n    /* \"#utility.yul\":9456:9470   */\n  add\n    /* \"#utility.yul\":9448:9470   */\n  swap1\n  pop\n    /* \"#utility.yul\":9363:9476   */\n  swap2\n  swap1\n  pop\n  jump\t// out\n    /* \"#utility.yul\":9512:10244   */\ntag_64:\n    /* \"#utility.yul\":9631:9634   */\n  0x00\n    /* \"#utility.yul\":9660:9714   */\n  tag_153\n    /* \"#utility.yul\":9708:9713   */\n  dup3\n    /* \"#utility.yul\":9660:9714   */\n  tag_58\n  jump\t// in\ntag_153:\n    /* \"#utility.yul\":9730:9816   */\n  tag_154\n    /* \"#utility.yul\":9809:9815   */\n  dup2\n    /* \"#utility.yul\":9804:9807   */\n  dup6\n    /* \"#utility.yul\":9730:9816   */\n  tag_59\n  jump\t// in\ntag_154:\n    /* \"#utility.yul\":9723:9816   */\n  swap4\n  pop\n    /* \"#utility.yul\":9840:9896   */\n  tag_155\n    /* \"#utility.yul\":9890:9895   */\n  dup4\n    /* \"#utility.yul\":9840:9896   */\n  tag_60\n  jump\t// in\ntag_155:\n    /* \"#utility.yul\":9919:9926   */\n  dup1\n    /* \"#utility.yul\":9950:9951   */\n  0x00\n    /* \"#utility.yul\":9935:10219   */\ntag_156:\n    /* \"#utility.yul\":9960:9966   */\n  dup4\n    /* \"#utility.yul\":9957:9958   */\n  dup2\n    /* \"#utility.yul\":9954:9967   */\n  lt\n    /* \"#utility.yul\":9935:10219   */\n  iszero\n  tag_158\n  jumpi\n    /* \"#utility.yul\":10036:10042   */\n  dup2\n    /* \"#utility.yul\":10030:10043   */\n  mload\n    /* \"#utility.yul\":10063:10126   */\n  tag_159\n    /* \"#utility.yul\":10122:10125   */\n  dup9\n    /* \"#utility.yul\":10107:10120   */\n  dup3\n    /* \"#utility.yul\":10063:10126   */\n  tag_62\n  jump\t// in\ntag_159:\n    /* \"#utility.yul\":10056:10126   */\n  swap8\n  pop\n    /* \"#utility.yul\":10149:10209   */\n  tag_160\n    /* \"#utility.yul\":10202:10208   */\n  dup4\n    /* \"#utility.yul\":10149:10209   */\n  tag_63\n  jump\t// in\ntag_160:\n    /* \"#utility.yul\":10139:10209   */\n  swap3\n  pop\n    /* \"#utility.yul\":9995:10219   */\n  pop\n    /* \"#utility.yul\":9982:9983   */\n  0x01\n    /* \"#utility.yul\":9979:9980   */\n  dup2\n    /* \"#utility.yul\":9975:9984   */\n  add\n    /* \"#utility.yul\":9970:9984   */\n  swap1\n  pop\n    /* \"#utility.yul\":9935:10219   */\n  jump(tag_156)\ntag_158:\n    /* \"#utility.yul\":9939:9953   */\n  pop\n    /* \"#utility.yul\":10235:10238   */\n  dup6\n    /* \"#utility.yul\":10228:10238   */\n  swap4\n  pop\n    /* \"#utility.yul\":9636:10244   */\n  pop\n  pop\n  pop\n    /* \"#utility.yul\":9512:10244   */\n  swap3\n  swap2\n  pop\n  pop\n  jump\t// out\n    /* \"#utility.yul\":10250:10368   */\ntag_65:\n    /* \"#utility.yul\":10337:10361   */\n  tag_162\n    /* \"#utility.yul\":10355:10360   */\n  dup2\n    /* \"#utility.yul\":10337:10361   */\n  tag_46\n  jump\t// in\ntag_162:\n    /* \"#utility.yul\":10332:10335   */\n  dup3\n    /* \"#utility.yul\":10325:10362   */\n  mstore\n    /* \"#utility.yul\":10250:10368   */\n  pop\n  pop\n  jump\t// out\n    /* \"#utility.yul\":10374:10857   */\ntag_28:\n    /* \"#utility.yul\":10545:10549   */\n  0x00\n    /* \"#utility.yul\":10583:10585   */\n  0x40\n    /* \"#utility.yul\":10572:10581   */\n  dup3\n    /* \"#utility.yul\":10568:10586   */\n  add\n    /* \"#utility.yul\":10560:10586   */\n  swap1\n  pop\n    /* \"#utility.yul\":10632:10641   */\n  dup2\n    /* \"#utility.yul\":10626:10630   */\n  dup2\n    /* \"#utility.yul\":10622:10642   */\n  sub\n    /* \"#utility.yul\":10618:10619   */\n  0x00\n    /* \"#utility.yul\":10607:10616   */\n  dup4\n    /* \"#utility.yul\":10603:10620   */\n  add\n    /* \"#utility.yul\":10596:10643   */\n  mstore\n    /* \"#utility.yul\":10660:10768   */\n  tag_164\n    /* \"#utility.yul\":10763:10767   */\n  dup2\n    /* \"#utility.yul\":10754:10760   */\n  dup6\n    /* \"#utility.yul\":10660:10768   */\n  tag_64\n  jump\t// in\ntag_164:\n    /* \"#utility.yul\":10652:10768   */\n  swap1\n  pop\n    /* \"#utility.yul\":10778:10850   */\n  tag_165\n    /* \"#utility.yul\":10846:10848   */\n  0x20\n    /* \"#utility.yul\":10835:10844   */\n  dup4\n    /* \"#utility.yul\":10831:10849   */\n  add\n    /* \"#utility.yul\":10822:10828   */\n  dup5\n    /* \"#utility.yul\":10778:10850   */\n  tag_65\n  jump\t// in\ntag_165:\n    /* \"#utility.yul\":10374:10857   */\n  swap4\n  swap3\n  pop\n  pop\n  pop\n  jump\t// out\n    /* \"GnosisSafeSimplified.sol\":121:7190  contract GnosisSafeSimplified is ReentrancyGuard {... */\ntag_29:\n  dataSize(sub_0)\n  dup1\n  dataOffset(sub_0)\n  0x00\n  codecopy\n  0x00\n  return\nstop\n\nsub_0: assembly {\n        /* \"GnosisSafeSimplified.sol\":121:7190  contract GnosisSafeSimplified is ReentrancyGuard {... */\n      mstore(0x40, 0x80)\n      jumpi(tag_1, lt(calldatasize, 0x04))\n      shr(0xe0, calldataload(0x00))\n      dup1\n      0x42cde4e8\n      gt\n      tag_16\n      jumpi\n      dup1\n      0xc01a8c84\n      gt\n      tag_17\n      jumpi\n      dup1\n      0xc01a8c84\n      eq\n      tag_12\n      jumpi\n      dup1\n      0xc6427474\n      eq\n      tag_13\n      jumpi\n      dup1\n      0xd7d7442f\n      eq\n      tag_14\n      jumpi\n      dup1\n      0xee22610b\n      eq\n      tag_15\n      jumpi\n      jump(tag_2)\n    tag_17:\n      dup1\n      0x42cde4e8\n      eq\n      tag_9\n      jumpi\n      dup1\n      0x9ace38c2\n      eq\n      tag_10\n      jumpi\n      dup1\n      0xa0e67e2b\n      eq\n      tag_11\n      jumpi\n      jump(tag_2)\n    tag_16:\n      dup1\n      0x025e7c27\n      eq\n      tag_3\n      jumpi\n      dup1\n      0x2e7700f0\n      eq\n      tag_4\n      jumpi\n      dup1\n      0x2f54bf6e\n      eq\n      tag_5\n      jumpi\n      dup1\n      0x3380c0d8\n      eq\n      tag_6\n      jumpi\n      dup1\n      0x33ea3dc8\n      eq\n      tag_7\n      jumpi\n      dup1\n      0x3411c81c\n      eq\n      tag_8\n      jumpi\n      jump(tag_2)\n    tag_1:\n      jumpi(tag_2, calldatasize)\n      stop\n    tag_2:\n      0x00\n      dup1\n      revert\n        /* \"GnosisSafeSimplified.sol\":1076:1099  address[] public owners */\n    tag_3:\n      callvalue\n      dup1\n      iszero\n      tag_20\n      jumpi\n      0x00\n      dup1\n      revert\n    tag_20:\n      pop\n      tag_21\n      0x04\n      dup1\n      calldatasize\n      sub\n      dup2\n      add\n      swap1\n      tag_22\n      swap2\n      swap1\n      tag_23\n      jump\t// in\n    tag_22:\n      tag_24\n      jump\t// in\n    tag_21:\n      mload(0x40)\n      tag_25\n      swap2\n      swap1\n      tag_26\n      jump\t// in\n    tag_25:\n      mload(0x40)\n      dup1\n      swap2\n      sub\n      swap1\n      return\n        /* \"GnosisSafeSimplified.sol\":6166:6270  function getTransactionCount() public view returns (uint256) {... */\n    tag_4:\n      callvalue\n      dup1\n      iszero\n      tag_27\n      jumpi\n      0x00\n      dup1\n      revert\n    tag_27:\n      pop\n      tag_28\n      tag_29\n      jump\t// in\n    tag_28:\n      mload(0x40)\n      tag_30\n      swap2\n      swap1\n      tag_31\n      jump\t// in\n    tag_30:\n      mload(0x40)\n      dup1\n      swap2\n      sub\n      swap1\n      return\n        /* \"GnosisSafeSimplified.sol\":1105:1144  mapping(address => bool) public isOwner */\n    tag_5:\n      callvalue\n      dup1\n      iszero\n      tag_32\n      jumpi\n      0x00\n      dup1\n      revert\n    tag_32:\n      pop\n      tag_33\n      0x04\n      dup1\n      calldatasize\n      sub\n      dup2\n      add\n      swap1\n      tag_34\n      swap2\n      swap1\n      tag_35\n      jump\t// in\n    tag_34:\n      tag_36\n      jump\t// in\n    tag_33:\n      mload(0x40)\n      tag_37\n      swap2\n      swap1\n      tag_38\n      jump\t// in\n    tag_37:\n      mload(0x40)\n      dup1\n      swap2\n      sub\n      swap1\n      return\n        /* \"GnosisSafeSimplified.sol\":5062:5461  function cancelTransaction(uint256 transactionId) public onlyOwner transactionExists(transactionId) notExecuted(transactionId) {... */\n    tag_6:\n      callvalue\n      dup1\n      iszero\n      tag_39\n      jumpi\n      0x00\n      dup1\n      revert\n    tag_39:\n      pop\n      tag_40\n      0x04\n      dup1\n      calldatasize\n      sub\n      dup2\n      add\n      swap1\n      tag_41\n      swap2\n      swap1\n      tag_23\n      jump\t// in\n    tag_41:\n      tag_42\n      jump\t// in\n    tag_40:\n      stop\n        /* \"GnosisSafeSimplified.sol\":6666:7113  function getTransaction(uint256 transactionId) public view returns (address destination, uint256 value, bytes memory data, bool executed, uint256 confirmationsCount) {... */\n    tag_7:\n      callvalue\n      dup1\n      iszero\n      tag_43\n      jumpi\n      0x00\n      dup1\n      revert\n    tag_43:\n      pop\n      tag_44\n      0x04\n      dup1\n      calldatasize\n      sub\n      dup2\n      add\n      swap1\n      tag_45\n      swap2\n      swap1\n      tag_23\n      jump\t// in\n    tag_45:\n      tag_46\n      jump\t// in\n    tag_44:\n      mload(0x40)\n      tag_47\n      swap6\n      swap5\n      swap4\n      swap3\n      swap2\n      swap1\n      tag_48\n      jump\t// in\n    tag_47:\n      mload(0x40)\n      dup1\n      swap2\n      sub\n      swap1\n      return\n        /* \"GnosisSafeSimplified.sol\":1219:1284  mapping(uint256 => mapping(address => bool)) public confirmations */\n    tag_8:\n      callvalue\n      dup1\n      iszero\n      tag_49\n      jumpi\n      0x00\n      dup1\n      revert\n    tag_49:\n      pop\n      tag_50\n      0x04\n      dup1\n      calldatasize\n      sub\n      dup2\n      add\n      swap1\n      tag_51\n      swap2\n      swap1\n      tag_52\n      jump\t// in\n    tag_51:\n      tag_53\n      jump\t// in\n    tag_50:\n      mload(0x40)\n      tag_54\n      swap2\n      swap1\n      tag_38\n      jump\t// in\n    tag_54:\n      mload(0x40)\n      dup1\n      swap2\n      sub\n      swap1\n      return\n        /* \"GnosisSafeSimplified.sol\":1150:1174  uint256 public threshold */\n    tag_9:\n      callvalue\n      dup1\n      iszero\n      tag_55\n      jumpi\n      0x00\n      dup1\n      revert\n    tag_55:\n      pop\n      tag_56\n      tag_57\n      jump\t// in\n    tag_56:\n      mload(0x40)\n      tag_58\n      swap2\n      swap1\n      tag_31\n      jump\t// in\n    tag_58:\n      mload(0x40)\n      dup1\n      swap2\n      sub\n      swap1\n      return\n        /* \"GnosisSafeSimplified.sol\":1180:1213  Transaction[] public transactions */\n    tag_10:\n      callvalue\n      dup1\n      iszero\n      tag_59\n      jumpi\n      0x00\n      dup1\n      revert\n    tag_59:\n      pop\n      tag_60\n      0x04\n      dup1\n      calldatasize\n      sub\n      dup2\n      add\n      swap1\n      tag_61\n      swap2\n      swap1\n      tag_23\n      jump\t// in\n    tag_61:\n      tag_62\n      jump\t// in\n    tag_60:\n      mload(0x40)\n      tag_63\n      swap6\n      swap5\n      swap4\n      swap3\n      swap2\n      swap1\n      tag_48\n      jump\t// in\n    tag_63:\n      mload(0x40)\n      dup1\n      swap2\n      sub\n      swap1\n      return\n        /* \"GnosisSafeSimplified.sol\":5961:6051  function getOwners() public view returns (address[] memory) {... */\n    tag_11:\n      callvalue\n      dup1\n      iszero\n      tag_64\n      jumpi\n      0x00\n      dup1\n      revert\n    tag_64:\n      pop\n      tag_65\n      tag_66\n      jump\t// in\n    tag_65:\n      mload(0x40)\n      tag_67\n      swap2\n      swap1\n      tag_68\n      jump\t// in\n    tag_67:\n      mload(0x40)\n      dup1\n      swap2\n      sub\n      swap1\n      return\n        /* \"GnosisSafeSimplified.sol\":3356:3765  function confirmTransaction(uint256 transactionId) public onlyOwner transactionExists(transactionId) notExecuted(transactionId) {... */\n    tag_12:\n      callvalue\n      dup1\n      iszero\n      tag_69\n      jumpi\n      0x00\n      dup1\n      revert\n    tag_69:\n      pop\n      tag_70\n      0x04\n      dup1\n      calldatasize\n      sub\n      dup2\n      add\n      swap1\n      tag_71\n      swap2\n      swap1\n      tag_23\n      jump\t// in\n    tag_71:\n      tag_72\n      jump\t// in\n    tag_70:\n      stop\n        /* \"GnosisSafeSimplified.sol\":2623:3233  function submitTransaction(address destination, uint256 value, bytes calldata data) public onlyOwner {... */\n    tag_13:\n      callvalue\n      dup1\n      iszero\n      tag_73\n      jumpi\n      0x00\n      dup1\n      revert\n    tag_73:\n      pop\n      tag_74\n      0x04\n      dup1\n      calldatasize\n      sub\n      dup2\n      add\n      swap1\n      tag_75\n      swap2\n      swap1\n      tag_76\n      jump\t// in\n    tag_75:\n      tag_77\n      jump\t// in\n    tag_74:\n      stop\n        /* \"GnosisSafeSimplified.sol\":5597:5836  function updateThreshold(uint256 newThreshold) public onlyOwner {... */\n    tag_14:\n      callvalue\n      dup1\n      iszero\n      tag_78\n      jumpi\n      0x00\n      dup1\n      revert\n    tag_78:\n      pop\n      tag_79\n      0x04\n      dup1\n      calldatasize\n      sub\n      dup2\n      add\n      swap1\n      tag_80\n      swap2\n      swap1\n      tag_23\n      jump\t// in\n    tag_80:\n      tag_81\n      jump\t// in\n    tag_79:\n      stop\n        /* \"GnosisSafeSimplified.sol\":3898:4941  function executeTransaction(uint256 transactionId) public onlyOwner transactionExists(transactionId) notExecuted(transactionId) nonReentrant {... */\n    tag_15:\n      callvalue\n      dup1\n      iszero\n      tag_82\n      jumpi\n      0x00\n      dup1\n      revert\n    tag_82:\n      pop\n      tag_83\n      0x04\n      dup1\n      calldatasize\n      sub\n      dup2\n      add\n      swap1\n      tag_84\n      swap2\n      swap1\n      tag_23\n      jump\t// in\n    tag_84:\n      tag_85\n      jump\t// in\n    tag_83:\n      stop\n        /* \"GnosisSafeSimplified.sol\":1076:1099  address[] public owners */\n    tag_24:\n      0x01\n      dup2\n      dup2\n      sload\n      dup2\n      lt\n      tag_86\n      jumpi\n      0x00\n      dup1\n      revert\n    tag_86:\n      swap1\n      0x00\n      mstore\n      keccak256(0x00, 0x20)\n      add\n      0x00\n      swap2\n      pop\n      sload\n      swap1\n      0x0100\n      exp\n      swap1\n      div\n      0xffffffffffffffffffffffffffffffffffffffff\n      and\n      dup2\n      jump\t// out\n        /* \"GnosisSafeSimplified.sol\":6166:6270  function getTransactionCount() public view returns (uint256) {... */\n    tag_29:\n        /* \"GnosisSafeSimplified.sol\":6218:6225  uint256 */\n      0x00\n        /* \"GnosisSafeSimplified.sol\":6244:6256  transactions */\n      0x04\n        /* \"GnosisSafeSimplified.sol\":6244:6263  transactions.length */\n      dup1\n      sload\n      swap1\n      pop\n        /* \"GnosisSafeSimplified.sol\":6237:6263  return transactions.length */\n      swap1\n      pop\n        /* \"GnosisSafeSimplified.sol\":6166:6270  function getTransactionCount() public view returns (uint256) {... */\n      swap1\n      jump\t// out\n        /* \"GnosisSafeSimplified.sol\":1105:1144  mapping(address => bool) public isOwner */\n    tag_36:\n      mstore(0x20, 0x02)\n      dup1\n      0x00\n      mstore\n      keccak256(0x00, 0x40)\n      0x00\n      swap2\n      pop\n      sload\n      swap1\n      0x0100\n      exp\n      swap1\n      div\n      0xff\n      and\n      dup2\n      jump\t// out\n        /* \"GnosisSafeSimplified.sol\":5062:5461  function cancelTransaction(uint256 transactionId) public onlyOwner transactionExists(transactionId) notExecuted(transactionId) {... */\n    tag_42:\n        /* \"GnosisSafeSimplified.sol\":1347:1354  isOwner */\n      0x02\n        /* \"GnosisSafeSimplified.sol\":1347:1366  isOwner[msg.sender] */\n      0x00\n        /* \"GnosisSafeSimplified.sol\":1355:1365  msg.sender */\n      caller\n        /* \"GnosisSafeSimplified.sol\":1347:1366  isOwner[msg.sender] */\n      0xffffffffffffffffffffffffffffffffffffffff\n      and\n      0xffffffffffffffffffffffffffffffffffffffff\n      and\n      dup2\n      mstore\n      0x20\n      add\n      swap1\n      dup2\n      mstore\n      0x20\n      add\n      0x00\n      keccak256\n      0x00\n      swap1\n      sload\n      swap1\n      0x0100\n      exp\n      swap1\n      div\n      0xff\n      and\n        /* \"GnosisSafeSimplified.sol\":1339:1383  require(isOwner[msg.sender], \"Not an owner\") */\n      tag_90\n      jumpi\n      mload(0x40)\n      0x08c379a000000000000000000000000000000000000000000000000000000000\n      dup2\n      mstore\n      0x04\n      add\n      tag_91\n      swap1\n      tag_92\n      jump\t// in\n    tag_91:\n      mload(0x40)\n      dup1\n      swap2\n      sub\n      swap1\n      revert\n    tag_90:\n        /* \"GnosisSafeSimplified.sol\":5147:5160  transactionId */\n      dup1\n        /* \"GnosisSafeSimplified.sol\":1491:1503  transactions */\n      0x04\n        /* \"GnosisSafeSimplified.sol\":1491:1510  transactions.length */\n      dup1\n      sload\n      swap1\n      pop\n        /* \"GnosisSafeSimplified.sol\":1475:1488  transactionId */\n      dup2\n        /* \"GnosisSafeSimplified.sol\":1475:1510  transactionId < transactions.length */\n      lt\n        /* \"GnosisSafeSimplified.sol\":1467:1541  require(transactionId < transactions.length, \"Transaction does not exist\") */\n      tag_94\n      jumpi\n      mload(0x40)\n      0x08c379a000000000000000000000000000000000000000000000000000000000\n      dup2\n      mstore\n      0x04\n      add\n      tag_95\n      swap1\n      tag_96\n      jump\t// in\n    tag_95:\n      mload(0x40)\n      dup1\n      swap2\n      sub\n      swap1\n      revert\n    tag_94:\n        /* \"GnosisSafeSimplified.sol\":5174:5187  transactionId */\n      dup2\n        /* \"GnosisSafeSimplified.sol\":1628:1640  transactions */\n      0x04\n        /* \"GnosisSafeSimplified.sol\":1641:1654  transactionId */\n      dup2\n        /* \"GnosisSafeSimplified.sol\":1628:1655  transactions[transactionId] */\n      dup2\n      sload\n      dup2\n      lt\n      tag_98\n      jumpi\n      tag_99\n      tag_100\n      jump\t// in\n    tag_99:\n    tag_98:\n      swap1\n      0x00\n      mstore\n      keccak256(0x00, 0x20)\n      swap1\n      0x05\n      mul\n      add\n        /* \"GnosisSafeSimplified.sol\":1628:1664  transactions[transactionId].executed */\n      0x03\n      add\n      0x00\n      swap1\n      sload\n      swap1\n      0x0100\n      exp\n      swap1\n      div\n      0xff\n      and\n        /* \"GnosisSafeSimplified.sol\":1627:1664  !transactions[transactionId].executed */\n      iszero\n        /* \"GnosisSafeSimplified.sol\":1619:1697  require(!transactions[transactionId].executed, \"Transaction already executed\") */\n      tag_102\n      jumpi\n      mload(0x40)\n      0x08c379a000000000000000000000000000000000000000000000000000000000\n      dup2\n      mstore\n      0x04\n      add\n      tag_103\n      swap1\n      tag_104\n      jump\t// in\n    tag_103:\n      mload(0x40)\n      dup1\n      swap2\n      sub\n      swap1\n      revert\n    tag_102:\n        /* \"GnosisSafeSimplified.sol\":5207:5220  confirmations */\n      0x05\n        /* \"GnosisSafeSimplified.sol\":5207:5235  confirmations[transactionId] */\n      0x00\n        /* \"GnosisSafeSimplified.sol\":5221:5234  transactionId */\n      dup5\n        /* \"GnosisSafeSimplified.sol\":5207:5235  confirmations[transactionId] */\n      dup2\n      mstore\n      0x20\n      add\n      swap1\n      dup2\n      mstore\n      0x20\n      add\n      0x00\n      keccak256\n        /* \"GnosisSafeSimplified.sol\":5207:5247  confirmations[transactionId][msg.sender] */\n      0x00\n        /* \"GnosisSafeSimplified.sol\":5236:5246  msg.sender */\n      caller\n        /* \"GnosisSafeSimplified.sol\":5207:5247  confirmations[transactionId][msg.sender] */\n      0xffffffffffffffffffffffffffffffffffffffff\n      and\n      0xffffffffffffffffffffffffffffffffffffffff\n      and\n      dup2\n      mstore\n      0x20\n      add\n      swap1\n      dup2\n      mstore\n      0x20\n      add\n      0x00\n      keccak256\n      0x00\n      swap1\n      sload\n      swap1\n      0x0100\n      exp\n      swap1\n      div\n      0xff\n      and\n        /* \"GnosisSafeSimplified.sol\":5199:5291  require(confirmations[transactionId][msg.sender], \"You have not confirmed this transaction\") */\n      tag_106\n      jumpi\n      mload(0x40)\n      0x08c379a000000000000000000000000000000000000000000000000000000000\n      dup2\n      mstore\n      0x04\n      add\n      tag_107\n      swap1\n      tag_108\n      jump\t// in\n    tag_107:\n      mload(0x40)\n      dup1\n      swap2\n      sub\n      swap1\n      revert\n    tag_106:\n        /* \"GnosisSafeSimplified.sol\":5341:5345  true */\n      0x01\n        /* \"GnosisSafeSimplified.sol\":5302:5314  transactions */\n      0x04\n        /* \"GnosisSafeSimplified.sol\":5315:5328  transactionId */\n      dup5\n        /* \"GnosisSafeSimplified.sol\":5302:5329  transactions[transactionId] */\n      dup2\n      sload\n      dup2\n      lt\n      tag_109\n      jumpi\n      tag_110\n      tag_100\n      jump\t// in\n    tag_110:\n    tag_109:\n      swap1\n      0x00\n      mstore\n      keccak256(0x00, 0x20)\n      swap1\n      0x05\n      mul\n      add\n        /* \"GnosisSafeSimplified.sol\":5302:5338  transactions[transactionId].executed */\n      0x03\n      add\n      0x00\n        /* \"GnosisSafeSimplified.sol\":5302:5345  transactions[transactionId].executed = true */\n      0x0100\n      exp\n      dup2\n      sload\n      dup2\n      0xff\n      mul\n      not\n      and\n      swap1\n      dup4\n      iszero\n      iszero\n      mul\n      or\n      swap1\n      sstore\n      pop\n        /* \"GnosisSafeSimplified.sol\":5443:5453  msg.sender */\n      caller\n        /* \"GnosisSafeSimplified.sol\":5407:5454  TransactionCancelled(transactionId, msg.sender) */\n      0xffffffffffffffffffffffffffffffffffffffff\n      and\n        /* \"GnosisSafeSimplified.sol\":5428:5441  transactionId */\n      dup4\n        /* \"GnosisSafeSimplified.sol\":5407:5454  TransactionCancelled(transactionId, msg.sender) */\n      0xbeed812a0535c283c6bc8eda32deb53df2603d7c1b518b07e2bec1df38da8393\n      mload(0x40)\n      mload(0x40)\n      dup1\n      swap2\n      sub\n      swap1\n      log3\n        /* \"GnosisSafeSimplified.sol\":1551:1552  _ */\n      pop\n        /* \"GnosisSafeSimplified.sol\":1393:1394  _ */\n      pop\n        /* \"GnosisSafeSimplified.sol\":5062:5461  function cancelTransaction(uint256 transactionId) public onlyOwner transactionExists(transactionId) notExecuted(transactionId) {... */\n      pop\n      jump\t// out\n        /* \"GnosisSafeSimplified.sol\":6666:7113  function getTransaction(uint256 transactionId) public view returns (address destination, uint256 value, bytes memory data, bool executed, uint256 confirmationsCount) {... */\n    tag_46:\n        /* \"GnosisSafeSimplified.sol\":6734:6753  address destination */\n      0x00\n        /* \"GnosisSafeSimplified.sol\":6755:6768  uint256 value */\n      dup1\n        /* \"GnosisSafeSimplified.sol\":6770:6787  bytes memory data */\n      0x60\n        /* \"GnosisSafeSimplified.sol\":6789:6802  bool executed */\n      0x00\n        /* \"GnosisSafeSimplified.sol\":6804:6830  uint256 confirmationsCount */\n      dup1\n        /* \"GnosisSafeSimplified.sol\":6842:6873  Transaction storage transaction */\n      0x00\n        /* \"GnosisSafeSimplified.sol\":6876:6888  transactions */\n      0x04\n        /* \"GnosisSafeSimplified.sol\":6889:6902  transactionId */\n      dup8\n        /* \"GnosisSafeSimplified.sol\":6876:6903  transactions[transactionId] */\n      dup2\n      sload\n      dup2\n      lt\n      tag_113\n      jumpi\n      tag_114\n      tag_100\n      jump\t// in\n    tag_114:\n    tag_113:\n      swap1\n      0x00\n      mstore\n      keccak256(0x00, 0x20)\n      swap1\n      0x05\n      mul\n      add\n        /* \"GnosisSafeSimplified.sol\":6842:6903  Transaction storage transaction = transactions[transactionId] */\n      swap1\n      pop\n        /* \"GnosisSafeSimplified.sol\":6934:6945  transaction */\n      dup1\n        /* \"GnosisSafeSimplified.sol\":6934:6957  transaction.destination */\n      0x00\n      add\n      0x00\n      swap1\n      sload\n      swap1\n      0x0100\n      exp\n      swap1\n      div\n      0xffffffffffffffffffffffffffffffffffffffff\n      and\n        /* \"GnosisSafeSimplified.sol\":6971:6982  transaction */\n      dup2\n        /* \"GnosisSafeSimplified.sol\":6971:6988  transaction.value */\n      0x01\n      add\n      sload\n        /* \"GnosisSafeSimplified.sol\":7002:7013  transaction */\n      dup3\n        /* \"GnosisSafeSimplified.sol\":7002:7018  transaction.data */\n      0x02\n      add\n        /* \"GnosisSafeSimplified.sol\":7032:7043  transaction */\n      dup4\n        /* \"GnosisSafeSimplified.sol\":7032:7052  transaction.executed */\n      0x03\n      add\n      0x00\n      swap1\n      sload\n      swap1\n      0x0100\n      exp\n      swap1\n      div\n      0xff\n      and\n        /* \"GnosisSafeSimplified.sol\":7066:7077  transaction */\n      dup5\n        /* \"GnosisSafeSimplified.sol\":7066:7096  transaction.confirmationsCount */\n      0x04\n      add\n      sload\n        /* \"GnosisSafeSimplified.sol\":6913:7106  return (... */\n      dup3\n      dup1\n      sload\n      tag_116\n      swap1\n      tag_117\n      jump\t// in\n    tag_116:\n      dup1\n      0x1f\n      add\n      0x20\n      dup1\n      swap2\n      div\n      mul\n      0x20\n      add\n      mload(0x40)\n      swap1\n      dup2\n      add\n      0x40\n      mstore\n      dup1\n      swap3\n      swap2\n      swap1\n      dup2\n      dup2\n      mstore\n      0x20\n      add\n      dup3\n      dup1\n      sload\n      tag_118\n      swap1\n      tag_117\n      jump\t// in\n    tag_118:\n      dup1\n      iszero\n      tag_119\n      jumpi\n      dup1\n      0x1f\n      lt\n      tag_120\n      jumpi\n      0x0100\n      dup1\n      dup4\n      sload\n      div\n      mul\n      dup4\n      mstore\n      swap2\n      0x20\n      add\n      swap2\n      jump(tag_119)\n    tag_120:\n      dup3\n      add\n      swap2\n      swap1\n      0x00\n      mstore\n      keccak256(0x00, 0x20)\n      swap1\n    tag_121:\n      dup2\n      sload\n      dup2\n      mstore\n      swap1\n      0x01\n      add\n      swap1\n      0x20\n      add\n      dup1\n      dup4\n      gt\n      tag_121\n      jumpi\n      dup3\n      swap1\n      sub\n      0x1f\n      and\n      dup3\n      add\n      swap2\n    tag_119:\n      pop\n      pop\n      pop\n      pop\n      pop\n      swap3\n      pop\n      swap6\n      pop\n      swap6\n      pop\n      swap6\n      pop\n      swap6\n      pop\n      swap6\n      pop\n      pop\n        /* \"GnosisSafeSimplified.sol\":6666:7113  function getTransaction(uint256 transactionId) public view returns (address destination, uint256 value, bytes memory data, bool executed, uint256 confirmationsCount) {... */\n      swap2\n      swap4\n      swap6\n      swap1\n      swap3\n      swap5\n      pop\n      jump\t// out\n        /* \"GnosisSafeSimplified.sol\":1219:1284  mapping(uint256 => mapping(address => bool)) public confirmations */\n    tag_53:\n      mstore(0x20, 0x05)\n      dup2\n      0x00\n      mstore\n      mstore(0x20, keccak256(0x00, 0x40))\n      dup1\n      0x00\n      mstore\n      keccak256(0x00, 0x40)\n      0x00\n      swap2\n      pop\n      swap2\n      pop\n      swap1\n      sload\n      swap1\n      0x0100\n      exp\n      swap1\n      div\n      0xff\n      and\n      dup2\n      jump\t// out\n        /* \"GnosisSafeSimplified.sol\":1150:1174  uint256 public threshold */\n    tag_57:\n      sload(0x03)\n      dup2\n      jump\t// out\n        /* \"GnosisSafeSimplified.sol\":1180:1213  Transaction[] public transactions */\n    tag_62:\n      0x04\n      dup2\n      dup2\n      sload\n      dup2\n      lt\n      tag_122\n      jumpi\n      0x00\n      dup1\n      revert\n    tag_122:\n      swap1\n      0x00\n      mstore\n      keccak256(0x00, 0x20)\n      swap1\n      0x05\n      mul\n      add\n      0x00\n      swap2\n      pop\n      swap1\n      pop\n      dup1\n      0x00\n      add\n      0x00\n      swap1\n      sload\n      swap1\n      0x0100\n      exp\n      swap1\n      div\n      0xffffffffffffffffffffffffffffffffffffffff\n      and\n      swap1\n      dup1\n      0x01\n      add\n      sload\n      swap1\n      dup1\n      0x02\n      add\n      dup1\n      sload\n      tag_124\n      swap1\n      tag_117\n      jump\t// in\n    tag_124:\n      dup1\n      0x1f\n      add\n      0x20\n      dup1\n      swap2\n      div\n      mul\n      0x20\n      add\n      mload(0x40)\n      swap1\n      dup2\n      add\n      0x40\n      mstore\n      dup1\n      swap3\n      swap2\n      swap1\n      dup2\n      dup2\n      mstore\n      0x20\n      add\n      dup3\n      dup1\n      sload\n      tag_125\n      swap1\n      tag_117\n      jump\t// in\n    tag_125:\n      dup1\n      iszero\n      tag_126\n      jumpi\n      dup1\n      0x1f\n      lt\n      tag_127\n      jumpi\n      0x0100\n      dup1\n      dup4\n      sload\n      div\n      mul\n      dup4\n      mstore\n      swap2\n      0x20\n      add\n      swap2\n      jump(tag_126)\n    tag_127:\n      dup3\n      add\n      swap2\n      swap1\n      0x00\n      mstore\n      keccak256(0x00, 0x20)\n      swap1\n    tag_128:\n      dup2\n      sload\n      dup2\n      mstore\n      swap1\n      0x01\n      add\n      swap1\n      0x20\n      add\n      dup1\n      dup4\n      gt\n      tag_128\n      jumpi\n      dup3\n      swap1\n      sub\n      0x1f\n      and\n      dup3\n      add\n      swap2\n    tag_126:\n      pop\n      pop\n      pop\n      pop\n      pop\n      swap1\n      dup1\n      0x03\n      add\n      0x00\n      swap1\n      sload\n      swap1\n      0x0100\n      exp\n      swap1\n      div\n      0xff\n      and\n      swap1\n      dup1\n      0x04\n      add\n      sload\n      swap1\n      pop\n      dup6\n      jump\t// out\n        /* \"GnosisSafeSimplified.sol\":5961:6051  function getOwners() public view returns (address[] memory) {... */\n    tag_66:\n        /* \"GnosisSafeSimplified.sol\":6003:6019  address[] memory */\n      0x60\n        /* \"GnosisSafeSimplified.sol\":6038:6044  owners */\n      0x01\n        /* \"GnosisSafeSimplified.sol\":6031:6044  return owners */\n      dup1\n      sload\n      dup1\n      0x20\n      mul\n      0x20\n      add\n      mload(0x40)\n      swap1\n      dup2\n      add\n      0x40\n      mstore\n      dup1\n      swap3\n      swap2\n      swap1\n      dup2\n      dup2\n      mstore\n      0x20\n      add\n      dup3\n      dup1\n      sload\n      dup1\n      iszero\n      tag_130\n      jumpi\n      0x20\n      mul\n      dup3\n      add\n      swap2\n      swap1\n      0x00\n      mstore\n      keccak256(0x00, 0x20)\n      swap1\n    tag_131:\n      dup2\n      0x00\n      swap1\n      sload\n      swap1\n      0x0100\n      exp\n      swap1\n      div\n      0xffffffffffffffffffffffffffffffffffffffff\n      and\n      0xffffffffffffffffffffffffffffffffffffffff\n      and\n      dup2\n      mstore\n      0x20\n      add\n      swap1\n      0x01\n      add\n      swap1\n      dup1\n      dup4\n      gt\n      tag_131\n      jumpi\n    tag_130:\n      pop\n      pop\n      pop\n      pop\n      pop\n      swap1\n      pop\n        /* \"GnosisSafeSimplified.sol\":5961:6051  function getOwners() public view returns (address[] memory) {... */\n      swap1\n      jump\t// out\n        /* \"GnosisSafeSimplified.sol\":3356:3765  function confirmTransaction(uint256 transactionId) public onlyOwner transactionExists(transactionId) notExecuted(transactionId) {... */\n    tag_72:\n        /* \"GnosisSafeSimplified.sol\":1347:1354  isOwner */\n      0x02\n        /* \"GnosisSafeSimplified.sol\":1347:1366  isOwner[msg.sender] */\n      0x00\n        /* \"GnosisSafeSimplified.sol\":1355:1365  msg.sender */\n      caller\n        /* \"GnosisSafeSimplified.sol\":1347:1366  isOwner[msg.sender] */\n      0xffffffffffffffffffffffffffffffffffffffff\n      and\n      0xffffffffffffffffffffffffffffffffffffffff\n      and\n      dup2\n      mstore\n      0x20\n      add\n      swap1\n      dup2\n      mstore\n      0x20\n      add\n      0x00\n      keccak256\n      0x00\n      swap1\n      sload\n      swap1\n      0x0100\n      exp\n      swap1\n      div\n      0xff\n      and\n        /* \"GnosisSafeSimplified.sol\":1339:1383  require(isOwner[msg.sender], \"Not an owner\") */\n      tag_133\n      jumpi\n      mload(0x40)\n      0x08c379a000000000000000000000000000000000000000000000000000000000\n      dup2\n      mstore\n      0x04\n      add\n      tag_134\n      swap1\n      tag_92\n      jump\t// in\n    tag_134:\n      mload(0x40)\n      dup1\n      swap2\n      sub\n      swap1\n      revert\n    tag_133:\n        /* \"GnosisSafeSimplified.sol\":3442:3455  transactionId */\n      dup1\n        /* \"GnosisSafeSimplified.sol\":1491:1503  transactions */\n      0x04\n        /* \"GnosisSafeSimplified.sol\":1491:1510  transactions.length */\n      dup1\n      sload\n      swap1\n      pop\n        /* \"GnosisSafeSimplified.sol\":1475:1488  transactionId */\n      dup2\n        /* \"GnosisSafeSimplified.sol\":1475:1510  transactionId < transactions.length */\n      lt\n        /* \"GnosisSafeSimplified.sol\":1467:1541  require(transactionId < transactions.length, \"Transaction does not exist\") */\n      tag_136\n      jumpi\n      mload(0x40)\n      0x08c379a000000000000000000000000000000000000000000000000000000000\n      dup2\n      mstore\n      0x04\n      add\n      tag_137\n      swap1\n      tag_96\n      jump\t// in\n    tag_137:\n      mload(0x40)\n      dup1\n      swap2\n      sub\n      swap1\n      revert\n    tag_136:\n        /* \"GnosisSafeSimplified.sol\":3469:3482  transactionId */\n      dup2\n        /* \"GnosisSafeSimplified.sol\":1628:1640  transactions */\n      0x04\n        /* \"GnosisSafeSimplified.sol\":1641:1654  transactionId */\n      dup2\n        /* \"GnosisSafeSimplified.sol\":1628:1655  transactions[transactionId] */\n      dup2\n      sload\n      dup2\n      lt\n      tag_139\n      jumpi\n      tag_140\n      tag_100\n      jump\t// in\n    tag_140:\n    tag_139:\n      swap1\n      0x00\n      mstore\n      keccak256(0x00, 0x20)\n      swap1\n      0x05\n      mul\n      add\n        /* \"GnosisSafeSimplified.sol\":1628:1664  transactions[transactionId].executed */\n      0x03\n      add\n      0x00\n      swap1\n      sload\n      swap1\n      0x0100\n      exp\n      swap1\n      div\n      0xff\n      and\n        /* \"GnosisSafeSimplified.sol\":1627:1664  !transactions[transactionId].executed */\n      iszero\n        /* \"GnosisSafeSimplified.sol\":1619:1697  require(!transactions[transactionId].executed, \"Transaction already executed\") */\n      tag_142\n      jumpi\n      mload(0x40)\n      0x08c379a000000000000000000000000000000000000000000000000000000000\n      dup2\n      mstore\n      0x04\n      add\n      tag_143\n      swap1\n      tag_104\n      jump\t// in\n    tag_143:\n      mload(0x40)\n      dup1\n      swap2\n      sub\n      swap1\n      revert\n    tag_142:\n        /* \"GnosisSafeSimplified.sol\":3503:3516  confirmations */\n      0x05\n        /* \"GnosisSafeSimplified.sol\":3503:3531  confirmations[transactionId] */\n      0x00\n        /* \"GnosisSafeSimplified.sol\":3517:3530  transactionId */\n      dup5\n        /* \"GnosisSafeSimplified.sol\":3503:3531  confirmations[transactionId] */\n      dup2\n      mstore\n      0x20\n      add\n      swap1\n      dup2\n      mstore\n      0x20\n      add\n      0x00\n      keccak256\n        /* \"GnosisSafeSimplified.sol\":3503:3543  confirmations[transactionId][msg.sender] */\n      0x00\n        /* \"GnosisSafeSimplified.sol\":3532:3542  msg.sender */\n      caller\n        /* \"GnosisSafeSimplified.sol\":3503:3543  confirmations[transactionId][msg.sender] */\n      0xffffffffffffffffffffffffffffffffffffffff\n      and\n      0xffffffffffffffffffffffffffffffffffffffff\n      and\n      dup2\n      mstore\n      0x20\n      add\n      swap1\n      dup2\n      mstore\n      0x20\n      add\n      0x00\n      keccak256\n      0x00\n      swap1\n      sload\n      swap1\n      0x0100\n      exp\n      swap1\n      div\n      0xff\n      and\n        /* \"GnosisSafeSimplified.sol\":3502:3543  !confirmations[transactionId][msg.sender] */\n      iszero\n        /* \"GnosisSafeSimplified.sol\":3494:3577  require(!confirmations[transactionId][msg.sender], \"Transaction already confirmed\") */\n      tag_145\n      jumpi\n      mload(0x40)\n      0x08c379a000000000000000000000000000000000000000000000000000000000\n      dup2\n      mstore\n      0x04\n      add\n      tag_146\n      swap1\n      tag_147\n      jump\t// in\n    tag_146:\n      mload(0x40)\n      dup1\n      swap2\n      sub\n      swap1\n      revert\n    tag_145:\n        /* \"GnosisSafeSimplified.sol\":3631:3635  true */\n      0x01\n        /* \"GnosisSafeSimplified.sol\":3588:3601  confirmations */\n      0x05\n        /* \"GnosisSafeSimplified.sol\":3588:3616  confirmations[transactionId] */\n      0x00\n        /* \"GnosisSafeSimplified.sol\":3602:3615  transactionId */\n      dup6\n        /* \"GnosisSafeSimplified.sol\":3588:3616  confirmations[transactionId] */\n      dup2\n      mstore\n      0x20\n      add\n      swap1\n      dup2\n      mstore\n      0x20\n      add\n      0x00\n      keccak256\n        /* \"GnosisSafeSimplified.sol\":3588:3628  confirmations[transactionId][msg.sender] */\n      0x00\n        /* \"GnosisSafeSimplified.sol\":3617:3627  msg.sender */\n      caller\n        /* \"GnosisSafeSimplified.sol\":3588:3628  confirmations[transactionId][msg.sender] */\n      0xffffffffffffffffffffffffffffffffffffffff\n      and\n      0xffffffffffffffffffffffffffffffffffffffff\n      and\n      dup2\n      mstore\n      0x20\n      add\n      swap1\n      dup2\n      mstore\n      0x20\n      add\n      0x00\n      keccak256\n      0x00\n        /* \"GnosisSafeSimplified.sol\":3588:3635  confirmations[transactionId][msg.sender] = true */\n      0x0100\n      exp\n      dup2\n      sload\n      dup2\n      0xff\n      mul\n      not\n      and\n      swap1\n      dup4\n      iszero\n      iszero\n      mul\n      or\n      swap1\n      sstore\n      pop\n        /* \"GnosisSafeSimplified.sol\":3695:3696  1 */\n      0x01\n        /* \"GnosisSafeSimplified.sol\":3645:3657  transactions */\n      0x04\n        /* \"GnosisSafeSimplified.sol\":3658:3671  transactionId */\n      dup5\n        /* \"GnosisSafeSimplified.sol\":3645:3672  transactions[transactionId] */\n      dup2\n      sload\n      dup2\n      lt\n      tag_148\n      jumpi\n      tag_149\n      tag_100\n      jump\t// in\n    tag_149:\n    tag_148:\n      swap1\n      0x00\n      mstore\n      keccak256(0x00, 0x20)\n      swap1\n      0x05\n      mul\n      add\n        /* \"GnosisSafeSimplified.sol\":3645:3691  transactions[transactionId].confirmationsCount */\n      0x04\n      add\n      0x00\n        /* \"GnosisSafeSimplified.sol\":3645:3696  transactions[transactionId].confirmationsCount += 1 */\n      dup3\n      dup3\n      sload\n      tag_151\n      swap2\n      swap1\n      tag_152\n      jump\t// in\n    tag_151:\n      swap3\n      pop\n      pop\n      dup2\n      swap1\n      sstore\n      pop\n        /* \"GnosisSafeSimplified.sol\":3747:3757  msg.sender */\n      caller\n        /* \"GnosisSafeSimplified.sol\":3711:3758  TransactionConfirmed(transactionId, msg.sender) */\n      0xffffffffffffffffffffffffffffffffffffffff\n      and\n        /* \"GnosisSafeSimplified.sol\":3732:3745  transactionId */\n      dup4\n        /* \"GnosisSafeSimplified.sol\":3711:3758  TransactionConfirmed(transactionId, msg.sender) */\n      0x15c2f311c9e0f53b50388279894aeff029a3457884a6601e924fca879e12adcc\n      mload(0x40)\n      mload(0x40)\n      dup1\n      swap2\n      sub\n      swap1\n      log3\n        /* \"GnosisSafeSimplified.sol\":1551:1552  _ */\n      pop\n        /* \"GnosisSafeSimplified.sol\":1393:1394  _ */\n      pop\n        /* \"GnosisSafeSimplified.sol\":3356:3765  function confirmTransaction(uint256 transactionId) public onlyOwner transactionExists(transactionId) notExecuted(transactionId) {... */\n      pop\n      jump\t// out\n        /* \"GnosisSafeSimplified.sol\":2623:3233  function submitTransaction(address destination, uint256 value, bytes calldata data) public onlyOwner {... */\n    tag_77:\n        /* \"GnosisSafeSimplified.sol\":1347:1354  isOwner */\n      0x02\n        /* \"GnosisSafeSimplified.sol\":1347:1366  isOwner[msg.sender] */\n      0x00\n        /* \"GnosisSafeSimplified.sol\":1355:1365  msg.sender */\n      caller\n        /* \"GnosisSafeSimplified.sol\":1347:1366  isOwner[msg.sender] */\n      0xffffffffffffffffffffffffffffffffffffffff\n      and\n      0xffffffffffffffffffffffffffffffffffffffff\n      and\n      dup2\n      mstore\n      0x20\n      add\n      swap1\n      dup2\n      mstore\n      0x20\n      add\n      0x00\n      keccak256\n      0x00\n      swap1\n      sload\n      swap1\n      0x0100\n      exp\n      swap1\n      div\n      0xff\n      and\n        /* \"GnosisSafeSimplified.sol\":1339:1383  require(isOwner[msg.sender], \"Not an owner\") */\n      tag_154\n      jumpi\n      mload(0x40)\n      0x08c379a000000000000000000000000000000000000000000000000000000000\n      dup2\n      mstore\n      0x04\n      add\n      tag_155\n      swap1\n      tag_92\n      jump\t// in\n    tag_155:\n      mload(0x40)\n      dup1\n      swap2\n      sub\n      swap1\n      revert\n    tag_154:\n        /* \"GnosisSafeSimplified.sol\":2765:2766  0 */\n      0x00\n        /* \"GnosisSafeSimplified.sol\":2742:2767  destination != address(0) */\n      0xffffffffffffffffffffffffffffffffffffffff\n      and\n        /* \"GnosisSafeSimplified.sol\":2742:2753  destination */\n      dup5\n        /* \"GnosisSafeSimplified.sol\":2742:2767  destination != address(0) */\n      0xffffffffffffffffffffffffffffffffffffffff\n      and\n      sub\n        /* \"GnosisSafeSimplified.sol\":2734:2799  require(destination != address(0), \"Invalid destination address\") */\n      tag_157\n      jumpi\n      mload(0x40)\n      0x08c379a000000000000000000000000000000000000000000000000000000000\n      dup2\n      mstore\n      0x04\n      add\n      tag_158\n      swap1\n      tag_159\n      jump\t// in\n    tag_158:\n      mload(0x40)\n      dup1\n      swap2\n      sub\n      swap1\n      revert\n    tag_157:\n        /* \"GnosisSafeSimplified.sol\":2826:2847  address(this).balance */\n      selfbalance\n        /* \"GnosisSafeSimplified.sol\":2817:2822  value */\n      dup4\n        /* \"GnosisSafeSimplified.sol\":2817:2847  value <= address(this).balance */\n      gt\n      iszero\n        /* \"GnosisSafeSimplified.sol\":2809:2881  require(value <= address(this).balance, \"Insufficient contract balance\") */\n      tag_160\n      jumpi\n      mload(0x40)\n      0x08c379a000000000000000000000000000000000000000000000000000000000\n      dup2\n      mstore\n      0x04\n      add\n      tag_161\n      swap1\n      tag_162\n      jump\t// in\n    tag_161:\n      mload(0x40)\n      dup1\n      swap2\n      sub\n      swap1\n      revert\n    tag_160:\n        /* \"GnosisSafeSimplified.sol\":2892:2913  uint256 transactionId */\n      0x00\n        /* \"GnosisSafeSimplified.sol\":2916:2928  transactions */\n      0x04\n        /* \"GnosisSafeSimplified.sol\":2916:2935  transactions.length */\n      dup1\n      sload\n      swap1\n      pop\n        /* \"GnosisSafeSimplified.sol\":2892:2935  uint256 transactionId = transactions.length */\n      swap1\n      pop\n        /* \"GnosisSafeSimplified.sol\":2945:2957  transactions */\n      0x04\n        /* \"GnosisSafeSimplified.sol\":2963:3138  Transaction({... */\n      mload(0x40)\n      dup1\n      0xa0\n      add\n      0x40\n      mstore\n      dup1\n        /* \"GnosisSafeSimplified.sol\":3002:3013  destination */\n      dup8\n        /* \"GnosisSafeSimplified.sol\":2963:3138  Transaction({... */\n      0xffffffffffffffffffffffffffffffffffffffff\n      and\n      dup2\n      mstore\n      0x20\n      add\n        /* \"GnosisSafeSimplified.sol\":3034:3039  value */\n      dup7\n        /* \"GnosisSafeSimplified.sol\":2963:3138  Transaction({... */\n      dup2\n      mstore\n      0x20\n      add\n        /* \"GnosisSafeSimplified.sol\":3059:3063  data */\n      dup6\n      dup6\n        /* \"GnosisSafeSimplified.sol\":2963:3138  Transaction({... */\n      dup1\n      dup1\n      0x1f\n      add\n      0x20\n      dup1\n      swap2\n      div\n      mul\n      0x20\n      add\n      mload(0x40)\n      swap1\n      dup2\n      add\n      0x40\n      mstore\n      dup1\n      swap4\n      swap3\n      swap2\n      swap1\n      dup2\n      dup2\n      mstore\n      0x20\n      add\n      dup4\n      dup4\n      dup1\n      dup3\n      dup5\n      calldatacopy\n      0x00\n      dup2\n      dup5\n      add\n      mstore\n      not(0x1f)\n      0x1f\n      dup3\n      add\n      and\n      swap1\n      pop\n      dup1\n      dup4\n      add\n      swap3\n      pop\n      pop\n      pop\n      pop\n      pop\n      pop\n      pop\n      dup2\n      mstore\n      0x20\n      add\n        /* \"GnosisSafeSimplified.sol\":3087:3092  false */\n      0x00\n        /* \"GnosisSafeSimplified.sol\":2963:3138  Transaction({... */\n      iszero\n      iszero\n      dup2\n      mstore\n      0x20\n      add\n        /* \"GnosisSafeSimplified.sol\":3126:3127  0 */\n      0x00\n        /* \"GnosisSafeSimplified.sol\":2963:3138  Transaction({... */\n      dup2\n      mstore\n      pop\n        /* \"GnosisSafeSimplified.sol\":2945:3139  transactions.push(Transaction({... */\n      swap1\n      dup1\n      0x01\n      dup2\n      sload\n      add\n      dup1\n      dup3\n      sstore\n      dup1\n      swap2\n      pop\n      pop\n      0x01\n      swap1\n      sub\n      swap1\n      0x00\n      mstore\n      keccak256(0x00, 0x20)\n      swap1\n      0x05\n      mul\n      add\n      0x00\n      swap1\n      swap2\n      swap1\n      swap2\n      swap1\n      swap2\n      pop\n      0x00\n      dup3\n      add\n      mload\n      dup2\n      0x00\n      add\n      exp(0x0100, 0x00)\n      dup2\n      sload\n      dup2\n      0xffffffffffffffffffffffffffffffffffffffff\n      mul\n      not\n      and\n      swap1\n      dup4\n      0xffffffffffffffffffffffffffffffffffffffff\n      and\n      mul\n      or\n      swap1\n      sstore\n      pop\n      0x20\n      dup3\n      add\n      mload\n      dup2\n      0x01\n      add\n      sstore\n      0x40\n      dup3\n      add\n      mload\n      dup2\n      0x02\n      add\n      swap1\n      dup2\n      tag_164\n      swap2\n      swap1\n      tag_165\n      jump\t// in\n    tag_164:\n      pop\n      0x60\n      dup3\n      add\n      mload\n      dup2\n      0x03\n      add\n      exp(0x0100, 0x00)\n      dup2\n      sload\n      dup2\n      0xff\n      mul\n      not\n      and\n      swap1\n      dup4\n      iszero\n      iszero\n      mul\n      or\n      swap1\n      sstore\n      pop\n      0x80\n      dup3\n      add\n      mload\n      dup2\n      0x04\n      add\n      sstore\n      pop\n      pop\n        /* \"GnosisSafeSimplified.sol\":3189:3199  msg.sender */\n      caller\n        /* \"GnosisSafeSimplified.sol\":3154:3226  TransactionProposed(transactionId, msg.sender, destination, value, data) */\n      0xffffffffffffffffffffffffffffffffffffffff\n      and\n        /* \"GnosisSafeSimplified.sol\":3174:3187  transactionId */\n      dup2\n        /* \"GnosisSafeSimplified.sol\":3154:3226  TransactionProposed(transactionId, msg.sender, destination, value, data) */\n      0xf13a7a4144a3232fd093fca16be52a8223bad74cee86d5fa8966c7061e75bfd3\n        /* \"GnosisSafeSimplified.sol\":3201:3212  destination */\n      dup8\n        /* \"GnosisSafeSimplified.sol\":3214:3219  value */\n      dup8\n        /* \"GnosisSafeSimplified.sol\":3221:3225  data */\n      dup8\n      dup8\n        /* \"GnosisSafeSimplified.sol\":3154:3226  TransactionProposed(transactionId, msg.sender, destination, value, data) */\n      mload(0x40)\n      tag_166\n      swap5\n      swap4\n      swap3\n      swap2\n      swap1\n      tag_167\n      jump\t// in\n    tag_166:\n      mload(0x40)\n      dup1\n      swap2\n      sub\n      swap1\n      log3\n        /* \"GnosisSafeSimplified.sol\":2724:3233  {... */\n      pop\n        /* \"GnosisSafeSimplified.sol\":2623:3233  function submitTransaction(address destination, uint256 value, bytes calldata data) public onlyOwner {... */\n      pop\n      pop\n      pop\n      pop\n      jump\t// out\n        /* \"GnosisSafeSimplified.sol\":5597:5836  function updateThreshold(uint256 newThreshold) public onlyOwner {... */\n    tag_81:\n        /* \"GnosisSafeSimplified.sol\":1347:1354  isOwner */\n      0x02\n        /* \"GnosisSafeSimplified.sol\":1347:1366  isOwner[msg.sender] */\n      0x00\n        /* \"GnosisSafeSimplified.sol\":1355:1365  msg.sender */\n      caller\n        /* \"GnosisSafeSimplified.sol\":1347:1366  isOwner[msg.sender] */\n      0xffffffffffffffffffffffffffffffffffffffff\n      and\n      0xffffffffffffffffffffffffffffffffffffffff\n      and\n      dup2\n      mstore\n      0x20\n      add\n      swap1\n      dup2\n      mstore\n      0x20\n      add\n      0x00\n      keccak256\n      0x00\n      swap1\n      sload\n      swap1\n      0x0100\n      exp\n      swap1\n      div\n      0xff\n      and\n        /* \"GnosisSafeSimplified.sol\":1339:1383  require(isOwner[msg.sender], \"Not an owner\") */\n      tag_169\n      jumpi\n      mload(0x40)\n      0x08c379a000000000000000000000000000000000000000000000000000000000\n      dup2\n      mstore\n      0x04\n      add\n      tag_170\n      swap1\n      tag_92\n      jump\t// in\n    tag_170:\n      mload(0x40)\n      dup1\n      swap2\n      sub\n      swap1\n      revert\n    tag_169:\n        /* \"GnosisSafeSimplified.sol\":5694:5695  0 */\n      0x00\n        /* \"GnosisSafeSimplified.sol\":5679:5691  newThreshold */\n      dup2\n        /* \"GnosisSafeSimplified.sol\":5679:5695  newThreshold > 0 */\n      gt\n        /* \"GnosisSafeSimplified.sol\":5679:5728  newThreshold > 0 && newThreshold <= owners.length */\n      dup1\n      iszero\n      tag_172\n      jumpi\n      pop\n        /* \"GnosisSafeSimplified.sol\":5715:5721  owners */\n      0x01\n        /* \"GnosisSafeSimplified.sol\":5715:5728  owners.length */\n      dup1\n      sload\n      swap1\n      pop\n        /* \"GnosisSafeSimplified.sol\":5699:5711  newThreshold */\n      dup2\n        /* \"GnosisSafeSimplified.sol\":5699:5728  newThreshold <= owners.length */\n      gt\n      iszero\n        /* \"GnosisSafeSimplified.sol\":5679:5728  newThreshold > 0 && newThreshold <= owners.length */\n    tag_172:\n        /* \"GnosisSafeSimplified.sol\":5671:5750  require(newThreshold > 0 && newThreshold <= owners.length, \"Invalid threshold\") */\n      tag_173\n      jumpi\n      mload(0x40)\n      0x08c379a000000000000000000000000000000000000000000000000000000000\n      dup2\n      mstore\n      0x04\n      add\n      tag_174\n      swap1\n      tag_175\n      jump\t// in\n    tag_174:\n      mload(0x40)\n      dup1\n      swap2\n      sub\n      swap1\n      revert\n    tag_173:\n        /* \"GnosisSafeSimplified.sol\":5772:5784  newThreshold */\n      dup1\n        /* \"GnosisSafeSimplified.sol\":5760:5769  threshold */\n      0x03\n        /* \"GnosisSafeSimplified.sol\":5760:5784  threshold = newThreshold */\n      dup2\n      swap1\n      sstore\n      pop\n        /* \"GnosisSafeSimplified.sol\":5799:5829  ThresholdUpdated(newThreshold) */\n      0xadfa8ecb21b6962ebcd0adbd9ab985b7b4c5b5eb3b0dead683171565c7bfe171\n        /* \"GnosisSafeSimplified.sol\":5816:5828  newThreshold */\n      dup2\n        /* \"GnosisSafeSimplified.sol\":5799:5829  ThresholdUpdated(newThreshold) */\n      mload(0x40)\n      tag_176\n      swap2\n      swap1\n      tag_31\n      jump\t// in\n    tag_176:\n      mload(0x40)\n      dup1\n      swap2\n      sub\n      swap1\n      log1\n        /* \"GnosisSafeSimplified.sol\":5597:5836  function updateThreshold(uint256 newThreshold) public onlyOwner {... */\n      pop\n      jump\t// out\n        /* \"GnosisSafeSimplified.sol\":3898:4941  function executeTransaction(uint256 transactionId) public onlyOwner transactionExists(transactionId) notExecuted(transactionId) nonReentrant {... */\n    tag_85:\n        /* \"GnosisSafeSimplified.sol\":1347:1354  isOwner */\n      0x02\n        /* \"GnosisSafeSimplified.sol\":1347:1366  isOwner[msg.sender] */\n      0x00\n        /* \"GnosisSafeSimplified.sol\":1355:1365  msg.sender */\n      caller\n        /* \"GnosisSafeSimplified.sol\":1347:1366  isOwner[msg.sender] */\n      0xffffffffffffffffffffffffffffffffffffffff\n      and\n      0xffffffffffffffffffffffffffffffffffffffff\n      and\n      dup2\n      mstore\n      0x20\n      add\n      swap1\n      dup2\n      mstore\n      0x20\n      add\n      0x00\n      keccak256\n      0x00\n      swap1\n      sload\n      swap1\n      0x0100\n      exp\n      swap1\n      div\n      0xff\n      and\n        /* \"GnosisSafeSimplified.sol\":1339:1383  require(isOwner[msg.sender], \"Not an owner\") */\n      tag_178\n      jumpi\n      mload(0x40)\n      0x08c379a000000000000000000000000000000000000000000000000000000000\n      dup2\n      mstore\n      0x04\n      add\n      tag_179\n      swap1\n      tag_92\n      jump\t// in\n    tag_179:\n      mload(0x40)\n      dup1\n      swap2\n      sub\n      swap1\n      revert\n    tag_178:\n        /* \"GnosisSafeSimplified.sol\":3984:3997  transactionId */\n      dup1\n        /* \"GnosisSafeSimplified.sol\":1491:1503  transactions */\n      0x04\n        /* \"GnosisSafeSimplified.sol\":1491:1510  transactions.length */\n      dup1\n      sload\n      swap1\n      pop\n        /* \"GnosisSafeSimplified.sol\":1475:1488  transactionId */\n      dup2\n        /* \"GnosisSafeSimplified.sol\":1475:1510  transactionId < transactions.length */\n      lt\n        /* \"GnosisSafeSimplified.sol\":1467:1541  require(transactionId < transactions.length, \"Transaction does not exist\") */\n      tag_181\n      jumpi\n      mload(0x40)\n      0x08c379a000000000000000000000000000000000000000000000000000000000\n      dup2\n      mstore\n      0x04\n      add\n      tag_182\n      swap1\n      tag_96\n      jump\t// in\n    tag_182:\n      mload(0x40)\n      dup1\n      swap2\n      sub\n      swap1\n      revert\n    tag_181:\n        /* \"GnosisSafeSimplified.sol\":4011:4024  transactionId */\n      dup2\n        /* \"GnosisSafeSimplified.sol\":1628:1640  transactions */\n      0x04\n        /* \"GnosisSafeSimplified.sol\":1641:1654  transactionId */\n      dup2\n        /* \"GnosisSafeSimplified.sol\":1628:1655  transactions[transactionId] */\n      dup2\n      sload\n      dup2\n      lt\n      tag_184\n      jumpi\n      tag_185\n      tag_100\n      jump\t// in\n    tag_185:\n    tag_184:\n      swap1\n      0x00\n      mstore\n      keccak256(0x00, 0x20)\n      swap1\n      0x05\n      mul\n      add\n        /* \"GnosisSafeSimplified.sol\":1628:1664  transactions[transactionId].executed */\n      0x03\n      add\n      0x00\n      swap1\n      sload\n      swap1\n      0x0100\n      exp\n      swap1\n      div\n      0xff\n      and\n        /* \"GnosisSafeSimplified.sol\":1627:1664  !transactions[transactionId].executed */\n      iszero\n        /* \"GnosisSafeSimplified.sol\":1619:1697  require(!transactions[transactionId].executed, \"Transaction already executed\") */\n      tag_187\n      jumpi\n      mload(0x40)\n      0x08c379a000000000000000000000000000000000000000000000000000000000\n      dup2\n      mstore\n      0x04\n      add\n      tag_188\n      swap1\n      tag_104\n      jump\t// in\n    tag_188:\n      mload(0x40)\n      dup1\n      swap2\n      sub\n      swap1\n      revert\n    tag_187:\n        /* \"@openzeppelin/contracts/security/ReentrancyGuard.sol\":2261:2282  _nonReentrantBefore() */\n      tag_190\n        /* \"@openzeppelin/contracts/security/ReentrancyGuard.sol\":2261:2280  _nonReentrantBefore */\n      tag_191\n        /* \"@openzeppelin/contracts/security/ReentrancyGuard.sol\":2261:2282  _nonReentrantBefore() */\n      jump\t// in\n    tag_190:\n        /* \"GnosisSafeSimplified.sol\":4049:4080  Transaction storage transaction */\n      0x00\n        /* \"GnosisSafeSimplified.sol\":4083:4095  transactions */\n      0x04\n        /* \"GnosisSafeSimplified.sol\":4096:4109  transactionId */\n      dup5\n        /* \"GnosisSafeSimplified.sol\":4083:4110  transactions[transactionId] */\n      dup2\n      sload\n      dup2\n      lt\n      tag_193\n      jumpi\n      tag_194\n      tag_100\n      jump\t// in\n    tag_194:\n    tag_193:\n      swap1\n      0x00\n      mstore\n      keccak256(0x00, 0x20)\n      swap1\n      0x05\n      mul\n      add\n        /* \"GnosisSafeSimplified.sol\":4049:4110  Transaction storage transaction = transactions[transactionId] */\n      swap1\n      pop\n        /* \"GnosisSafeSimplified.sol\":4162:4171  threshold */\n      sload(0x03)\n        /* \"GnosisSafeSimplified.sol\":4128:4139  transaction */\n      dup2\n        /* \"GnosisSafeSimplified.sol\":4128:4158  transaction.confirmationsCount */\n      0x04\n      add\n      sload\n        /* \"GnosisSafeSimplified.sol\":4128:4171  transaction.confirmationsCount >= threshold */\n      lt\n      iszero\n        /* \"GnosisSafeSimplified.sol\":4120:4200  require(transaction.confirmationsCount >= threshold, \"Not enough confirmations\") */\n      tag_196\n      jumpi\n      mload(0x40)\n      0x08c379a000000000000000000000000000000000000000000000000000000000\n      dup2\n      mstore\n      0x04\n      add\n      tag_197\n      swap1\n      tag_198\n      jump\t// in\n    tag_197:\n      mload(0x40)\n      dup1\n      swap2\n      sub\n      swap1\n      revert\n    tag_196:\n        /* \"GnosisSafeSimplified.sol\":4253:4254  0 */\n      0x00\n        /* \"GnosisSafeSimplified.sol\":4218:4255  transaction.destination != address(0) */\n      0xffffffffffffffffffffffffffffffffffffffff\n      and\n        /* \"GnosisSafeSimplified.sol\":4218:4229  transaction */\n      dup2\n        /* \"GnosisSafeSimplified.sol\":4218:4241  transaction.destination */\n      0x00\n      add\n      0x00\n      swap1\n      sload\n      swap1\n      0x0100\n      exp\n      swap1\n      div\n      0xffffffffffffffffffffffffffffffffffffffff\n      and\n        /* \"GnosisSafeSimplified.sol\":4218:4255  transaction.destination != address(0) */\n      0xffffffffffffffffffffffffffffffffffffffff\n      and\n      sub\n        /* \"GnosisSafeSimplified.sol\":4210:4287  require(transaction.destination != address(0), \"Invalid destination address\") */\n      tag_199\n      jumpi\n      mload(0x40)\n      0x08c379a000000000000000000000000000000000000000000000000000000000\n      dup2\n      mstore\n      0x04\n      add\n      tag_200\n      swap1\n      tag_159\n      jump\t// in\n    tag_200:\n      mload(0x40)\n      dup1\n      swap2\n      sub\n      swap1\n      revert\n    tag_199:\n        /* \"GnosisSafeSimplified.sol\":4403:4407  true */\n      0x01\n        /* \"GnosisSafeSimplified.sol\":4380:4391  transaction */\n      dup2\n        /* \"GnosisSafeSimplified.sol\":4380:4400  transaction.executed */\n      0x03\n      add\n      0x00\n        /* \"GnosisSafeSimplified.sol\":4380:4407  transaction.executed = true */\n      0x0100\n      exp\n      dup2\n      sload\n      dup2\n      0xff\n      mul\n      not\n      and\n      swap1\n      dup4\n      iszero\n      iszero\n      mul\n      or\n      swap1\n      sstore\n      pop\n        /* \"GnosisSafeSimplified.sol\":4457:4467  msg.sender */\n      caller\n        /* \"GnosisSafeSimplified.sol\":4422:4468  TransactionExecuted(transactionId, msg.sender) */\n      0xffffffffffffffffffffffffffffffffffffffff\n      and\n        /* \"GnosisSafeSimplified.sol\":4442:4455  transactionId */\n      dup5\n        /* \"GnosisSafeSimplified.sol\":4422:4468  TransactionExecuted(transactionId, msg.sender) */\n      0xefc13bdcf58f184ea7cae26b499fb33b539e01d0197cea456f3ada289b8cf19b\n      mload(0x40)\n      mload(0x40)\n      dup1\n      swap2\n      sub\n      swap1\n      log3\n        /* \"GnosisSafeSimplified.sol\":4532:4544  bool success */\n      0x00\n        /* \"GnosisSafeSimplified.sol\":4550:4561  transaction */\n      dup2\n        /* \"GnosisSafeSimplified.sol\":4550:4573  transaction.destination */\n      0x00\n      add\n      0x00\n      swap1\n      sload\n      swap1\n      0x0100\n      exp\n      swap1\n      div\n      0xffffffffffffffffffffffffffffffffffffffff\n      and\n        /* \"GnosisSafeSimplified.sol\":4550:4578  transaction.destination.call */\n      0xffffffffffffffffffffffffffffffffffffffff\n      and\n        /* \"GnosisSafeSimplified.sol\":4586:4597  transaction */\n      dup3\n        /* \"GnosisSafeSimplified.sol\":4586:4603  transaction.value */\n      0x01\n      add\n      sload\n        /* \"GnosisSafeSimplified.sol\":4610:4616  300000 */\n      0x0493e0\n        /* \"GnosisSafeSimplified.sol\":4550:4635  transaction.destination.call{value: transaction.value, gas: 300000}(transaction.data) */\n      swap1\n        /* \"GnosisSafeSimplified.sol\":4618:4629  transaction */\n      dup5\n        /* \"GnosisSafeSimplified.sol\":4618:4634  transaction.data */\n      0x02\n      add\n        /* \"GnosisSafeSimplified.sol\":4550:4635  transaction.destination.call{value: transaction.value, gas: 300000}(transaction.data) */\n      mload(0x40)\n      tag_201\n      swap2\n      swap1\n      tag_202\n      jump\t// in\n    tag_201:\n      0x00\n      mload(0x40)\n      dup1\n      dup4\n      sub\n      dup2\n      dup6\n      dup9\n      dup9\n      call\n      swap4\n      pop\n      pop\n      pop\n      pop\n      returndatasize\n      dup1\n      0x00\n      dup2\n      eq\n      tag_205\n      jumpi\n      mload(0x40)\n      swap2\n      pop\n      and(add(returndatasize, 0x3f), not(0x1f))\n      dup3\n      add\n      0x40\n      mstore\n      returndatasize\n      dup3\n      mstore\n      returndatasize\n      0x00\n      0x20\n      dup5\n      add\n      returndatacopy\n      jump(tag_204)\n    tag_205:\n      0x60\n      swap2\n      pop\n    tag_204:\n      pop\n        /* \"GnosisSafeSimplified.sol\":4531:4635  (bool success, ) = transaction.destination.call{value: transaction.value, gas: 300000}(transaction.data) */\n      pop\n      swap1\n      pop\n        /* \"GnosisSafeSimplified.sol\":4650:4657  success */\n      dup1\n        /* \"GnosisSafeSimplified.sol\":4645:4935  if (!success) {... */\n      tag_206\n      jumpi\n        /* \"GnosisSafeSimplified.sol\":4754:4759  false */\n      0x00\n        /* \"GnosisSafeSimplified.sol\":4731:4742  transaction */\n      dup3\n        /* \"GnosisSafeSimplified.sol\":4731:4751  transaction.executed */\n      0x03\n      add\n      0x00\n        /* \"GnosisSafeSimplified.sol\":4731:4759  transaction.executed = false */\n      0x0100\n      exp\n      dup2\n      sload\n      dup2\n      0xff\n      mul\n      not\n      and\n      swap1\n      dup4\n      iszero\n      iszero\n      mul\n      or\n      swap1\n      sstore\n      pop\n        /* \"GnosisSafeSimplified.sol\":4811:4822  transaction */\n      dup2\n        /* \"GnosisSafeSimplified.sol\":4811:4834  transaction.destination */\n      0x00\n      add\n      0x00\n      swap1\n      sload\n      swap1\n      0x0100\n      exp\n      swap1\n      div\n      0xffffffffffffffffffffffffffffffffffffffff\n      and\n        /* \"GnosisSafeSimplified.sol\":4778:4872  TransactionFailed(transactionId, transaction.destination, transaction.value, transaction.data) */\n      0xffffffffffffffffffffffffffffffffffffffff\n      and\n        /* \"GnosisSafeSimplified.sol\":4796:4809  transactionId */\n      dup6\n        /* \"GnosisSafeSimplified.sol\":4778:4872  TransactionFailed(transactionId, transaction.destination, transaction.value, transaction.data) */\n      0xb48cb383b633fa0880705b6499360e47282d8e5147c8932c7447a01a13392548\n        /* \"GnosisSafeSimplified.sol\":4836:4847  transaction */\n      dup5\n        /* \"GnosisSafeSimplified.sol\":4836:4853  transaction.value */\n      0x01\n      add\n      sload\n        /* \"GnosisSafeSimplified.sol\":4855:4866  transaction */\n      dup6\n        /* \"GnosisSafeSimplified.sol\":4855:4871  transaction.data */\n      0x02\n      add\n        /* \"GnosisSafeSimplified.sol\":4778:4872  TransactionFailed(transactionId, transaction.destination, transaction.value, transaction.data) */\n      mload(0x40)\n      tag_207\n      swap3\n      swap2\n      swap1\n      tag_208\n      jump\t// in\n    tag_207:\n      mload(0x40)\n      dup1\n      swap2\n      sub\n      swap1\n      log3\n        /* \"GnosisSafeSimplified.sol\":4886:4924  revert(\"Transaction execution failed\") */\n      mload(0x40)\n      0x08c379a000000000000000000000000000000000000000000000000000000000\n      dup2\n      mstore\n      0x04\n      add\n      tag_209\n      swap1\n      tag_210\n      jump\t// in\n    tag_209:\n      mload(0x40)\n      dup1\n      swap2\n      sub\n      swap1\n      revert\n        /* \"GnosisSafeSimplified.sol\":4645:4935  if (!success) {... */\n    tag_206:\n        /* \"GnosisSafeSimplified.sol\":4039:4941  {... */\n      pop\n      pop\n        /* \"@openzeppelin/contracts/security/ReentrancyGuard.sol\":2303:2323  _nonReentrantAfter() */\n      tag_211\n        /* \"@openzeppelin/contracts/security/ReentrancyGuard.sol\":2303:2321  _nonReentrantAfter */\n      tag_212\n        /* \"@openzeppelin/contracts/security/ReentrancyGuard.sol\":2303:2323  _nonReentrantAfter() */\n      jump\t// in\n    tag_211:\n        /* \"GnosisSafeSimplified.sol\":1551:1552  _ */\n      pop\n        /* \"GnosisSafeSimplified.sol\":1393:1394  _ */\n      pop\n        /* \"GnosisSafeSimplified.sol\":3898:4941  function executeTransaction(uint256 transactionId) public onlyOwner transactionExists(transactionId) notExecuted(transactionId) nonReentrant {... */\n      pop\n      jump\t// out\n        /* \"@openzeppelin/contracts/security/ReentrancyGuard.sol\":2336:2623  function _nonReentrantBefore() private {... */\n    tag_191:\n        /* \"@openzeppelin/contracts/security/ReentrancyGuard.sol\":1759:1760  2 */\n      0x02\n        /* \"@openzeppelin/contracts/security/ReentrancyGuard.sol\":2468:2475  _status */\n      sload(0x00)\n        /* \"@openzeppelin/contracts/security/ReentrancyGuard.sol\":2468:2487  _status != _ENTERED */\n      sub\n        /* \"@openzeppelin/contracts/security/ReentrancyGuard.sol\":2460:2523  require(_status != _ENTERED, \"ReentrancyGuard: reentrant call\") */\n      tag_214\n      jumpi\n      mload(0x40)\n      0x08c379a000000000000000000000000000000000000000000000000000000000\n      dup2\n      mstore\n      0x04\n      add\n      tag_215\n      swap1\n      tag_216\n      jump\t// in\n    tag_215:\n      mload(0x40)\n      dup1\n      swap2\n      sub\n      swap1\n      revert\n    tag_214:\n        /* \"@openzeppelin/contracts/security/ReentrancyGuard.sol\":1759:1760  2 */\n      0x02\n        /* \"@openzeppelin/contracts/security/ReentrancyGuard.sol\":2598:2605  _status */\n      0x00\n        /* \"@openzeppelin/contracts/security/ReentrancyGuard.sol\":2598:2616  _status = _ENTERED */\n      dup2\n      swap1\n      sstore\n      pop\n        /* \"@openzeppelin/contracts/security/ReentrancyGuard.sol\":2336:2623  function _nonReentrantBefore() private {... */\n      jump\t// out\n        /* \"@openzeppelin/contracts/security/ReentrancyGuard.sol\":2629:2838  function _nonReentrantAfter() private {... */\n    tag_212:\n        /* \"@openzeppelin/contracts/security/ReentrancyGuard.sol\":1716:1717  1 */\n      0x01\n        /* \"@openzeppelin/contracts/security/ReentrancyGuard.sol\":2809:2816  _status */\n      0x00\n        /* \"@openzeppelin/contracts/security/ReentrancyGuard.sol\":2809:2831  _status = _NOT_ENTERED */\n      dup2\n      swap1\n      sstore\n      pop\n        /* \"@openzeppelin/contracts/security/ReentrancyGuard.sol\":2629:2838  function _nonReentrantAfter() private {... */\n      jump\t// out\n        /* \"#utility.yul\":88:205   */\n    tag_219:\n        /* \"#utility.yul\":197:198   */\n      0x00\n        /* \"#utility.yul\":194:195   */\n      dup1\n        /* \"#utility.yul\":187:199   */\n      revert\n        /* \"#utility.yul\":211:328   */\n    tag_220:\n        /* \"#utility.yul\":320:321   */\n      0x00\n        /* \"#utility.yul\":317:318   */\n      dup1\n        /* \"#utility.yul\":310:322   */\n      revert\n        /* \"#utility.yul\":334:411   */\n    tag_221:\n        /* \"#utility.yul\":371:378   */\n      0x00\n        /* \"#utility.yul\":400:405   */\n      dup2\n        /* \"#utility.yul\":389:405   */\n      swap1\n      pop\n        /* \"#utility.yul\":334:411   */\n      swap2\n      swap1\n      pop\n      jump\t// out\n        /* \"#utility.yul\":417:539   */\n    tag_222:\n        /* \"#utility.yul\":490:514   */\n      tag_300\n        /* \"#utility.yul\":508:513   */\n      dup2\n        /* \"#utility.yul\":490:514   */\n      tag_221\n      jump\t// in\n    tag_300:\n        /* \"#utility.yul\":483:488   */\n      dup2\n        /* \"#utility.yul\":480:515   */\n      eq\n        /* \"#utility.yul\":470:533   */\n      tag_301\n      jumpi\n        /* \"#utility.yul\":529:530   */\n      0x00\n        /* \"#utility.yul\":526:527   */\n      dup1\n        /* \"#utility.yul\":519:531   */\n      revert\n        /* \"#utility.yul\":470:533   */\n    tag_301:\n        /* \"#utility.yul\":417:539   */\n      pop\n      jump\t// out\n        /* \"#utility.yul\":545:684   */\n    tag_223:\n        /* \"#utility.yul\":591:596   */\n      0x00\n        /* \"#utility.yul\":629:635   */\n      dup2\n        /* \"#utility.yul\":616:636   */\n      calldataload\n        /* \"#utility.yul\":607:636   */\n      swap1\n      pop\n        /* \"#utility.yul\":645:678   */\n      tag_303\n        /* \"#utility.yul\":672:677   */\n      dup2\n        /* \"#utility.yul\":645:678   */\n      tag_222\n      jump\t// in\n    tag_303:\n        /* \"#utility.yul\":545:684   */\n      swap3\n      swap2\n      pop\n      pop\n      jump\t// out\n        /* \"#utility.yul\":690:1019   */\n    tag_23:\n        /* \"#utility.yul\":749:755   */\n      0x00\n        /* \"#utility.yul\":798:800   */\n      0x20\n        /* \"#utility.yul\":786:795   */\n      dup3\n        /* \"#utility.yul\":777:784   */\n      dup5\n        /* \"#utility.yul\":773:796   */\n      sub\n        /* \"#utility.yul\":769:801   */\n      slt\n        /* \"#utility.yul\":766:885   */\n      iszero\n      tag_305\n      jumpi\n        /* \"#utility.yul\":804:883   */\n      tag_306\n      tag_219\n      jump\t// in\n    tag_306:\n        /* \"#utility.yul\":766:885   */\n    tag_305:\n        /* \"#utility.yul\":924:925   */\n      0x00\n        /* \"#utility.yul\":949:1002   */\n      tag_307\n        /* \"#utility.yul\":994:1001   */\n      dup5\n        /* \"#utility.yul\":985:991   */\n      dup3\n        /* \"#utility.yul\":974:983   */\n      dup6\n        /* \"#utility.yul\":970:992   */\n      add\n        /* \"#utility.yul\":949:1002   */\n      tag_223\n      jump\t// in\n    tag_307:\n        /* \"#utility.yul\":939:1002   */\n      swap2\n      pop\n        /* \"#utility.yul\":895:1012   */\n      pop\n        /* \"#utility.yul\":690:1019   */\n      swap3\n      swap2\n      pop\n      pop\n      jump\t// out\n        /* \"#utility.yul\":1025:1151   */\n    tag_224:\n        /* \"#utility.yul\":1062:1069   */\n      0x00\n        /* \"#utility.yul\":1102:1144   */\n      0xffffffffffffffffffffffffffffffffffffffff\n        /* \"#utility.yul\":1095:1100   */\n      dup3\n        /* \"#utility.yul\":1091:1145   */\n      and\n        /* \"#utility.yul\":1080:1145   */\n      swap1\n      pop\n        /* \"#utility.yul\":1025:1151   */\n      swap2\n      swap1\n      pop\n      jump\t// out\n        /* \"#utility.yul\":1157:1253   */\n    tag_225:\n        /* \"#utility.yul\":1194:1201   */\n      0x00\n        /* \"#utility.yul\":1223:1247   */\n      tag_310\n        /* \"#utility.yul\":1241:1246   */\n      dup3\n        /* \"#utility.yul\":1223:1247   */\n      tag_224\n      jump\t// in\n    tag_310:\n        /* \"#utility.yul\":1212:1247   */\n      swap1\n      pop\n        /* \"#utility.yul\":1157:1253   */\n      swap2\n      swap1\n      pop\n      jump\t// out\n        /* \"#utility.yul\":1259:1377   */\n    tag_226:\n        /* \"#utility.yul\":1346:1370   */\n      tag_312\n        /* \"#utility.yul\":1364:1369   */\n      dup2\n        /* \"#utility.yul\":1346:1370   */\n      tag_225\n      jump\t// in\n    tag_312:\n        /* \"#utility.yul\":1341:1344   */\n      dup3\n        /* \"#utility.yul\":1334:1371   */\n      mstore\n        /* \"#utility.yul\":1259:1377   */\n      pop\n      pop\n      jump\t// out\n        /* \"#utility.yul\":1383:1605   */\n    tag_26:\n        /* \"#utility.yul\":1476:1480   */\n      0x00\n        /* \"#utility.yul\":1514:1516   */\n      0x20\n        /* \"#utility.yul\":1503:1512   */\n      dup3\n        /* \"#utility.yul\":1499:1517   */\n      add\n        /* \"#utility.yul\":1491:1517   */\n      swap1\n      pop\n        /* \"#utility.yul\":1527:1598   */\n      tag_314\n        /* \"#utility.yul\":1595:1596   */\n      0x00\n        /* \"#utility.yul\":1584:1593   */\n      dup4\n        /* \"#utility.yul\":1580:1597   */\n      add\n        /* \"#utility.yul\":1571:1577   */\n      dup5\n        /* \"#utility.yul\":1527:1598   */\n      tag_226\n      jump\t// in\n    tag_314:\n        /* \"#utility.yul\":1383:1605   */\n      swap3\n      swap2\n      pop\n      pop\n      jump\t// out\n        /* \"#utility.yul\":1611:1729   */\n    tag_227:\n        /* \"#utility.yul\":1698:1722   */\n      tag_316\n        /* \"#utility.yul\":1716:1721   */\n      dup2\n        /* \"#utility.yul\":1698:1722   */\n      tag_221\n      jump\t// in\n    tag_316:\n        /* \"#utility.yul\":1693:1696   */\n      dup3\n        /* \"#utility.yul\":1686:1723   */\n      mstore\n        /* \"#utility.yul\":1611:1729   */\n      pop\n      pop\n      jump\t// out\n        /* \"#utility.yul\":1735:1957   */\n    tag_31:\n        /* \"#utility.yul\":1828:1832   */\n      0x00\n        /* \"#utility.yul\":1866:1868   */\n      0x20\n        /* \"#utility.yul\":1855:1864   */\n      dup3\n        /* \"#utility.yul\":1851:1869   */\n      add\n        /* \"#utility.yul\":1843:1869   */\n      swap1\n      pop\n        /* \"#utility.yul\":1879:1950   */\n      tag_318\n        /* \"#utility.yul\":1947:1948   */\n      0x00\n        /* \"#utility.yul\":1936:1945   */\n      dup4\n        /* \"#utility.yul\":1932:1949   */\n      add\n        /* \"#utility.yul\":1923:1929   */\n      dup5\n        /* \"#utility.yul\":1879:1950   */\n      tag_227\n      jump\t// in\n    tag_318:\n        /* \"#utility.yul\":1735:1957   */\n      swap3\n      swap2\n      pop\n      pop\n      jump\t// out\n        /* \"#utility.yul\":1963:2085   */\n    tag_228:\n        /* \"#utility.yul\":2036:2060   */\n      tag_320\n        /* \"#utility.yul\":2054:2059   */\n      dup2\n        /* \"#utility.yul\":2036:2060   */\n      tag_225\n      jump\t// in\n    tag_320:\n        /* \"#utility.yul\":2029:2034   */\n      dup2\n        /* \"#utility.yul\":2026:2061   */\n      eq\n        /* \"#utility.yul\":2016:2079   */\n      tag_321\n      jumpi\n        /* \"#utility.yul\":2075:2076   */\n      0x00\n        /* \"#utility.yul\":2072:2073   */\n      dup1\n        /* \"#utility.yul\":2065:2077   */\n      revert\n        /* \"#utility.yul\":2016:2079   */\n    tag_321:\n        /* \"#utility.yul\":1963:2085   */\n      pop\n      jump\t// out\n        /* \"#utility.yul\":2091:2230   */\n    tag_229:\n        /* \"#utility.yul\":2137:2142   */\n      0x00\n        /* \"#utility.yul\":2175:2181   */\n      dup2\n        /* \"#utility.yul\":2162:2182   */\n      calldataload\n        /* \"#utility.yul\":2153:2182   */\n      swap1\n      pop\n        /* \"#utility.yul\":2191:2224   */\n      tag_323\n        /* \"#utility.yul\":2218:2223   */\n      dup2\n        /* \"#utility.yul\":2191:2224   */\n      tag_228\n      jump\t// in\n    tag_323:\n        /* \"#utility.yul\":2091:2230   */\n      swap3\n      swap2\n      pop\n      pop\n      jump\t// out\n        /* \"#utility.yul\":2236:2565   */\n    tag_35:\n        /* \"#utility.yul\":2295:2301   */\n      0x00\n        /* \"#utility.yul\":2344:2346   */\n      0x20\n        /* \"#utility.yul\":2332:2341   */\n      dup3\n        /* \"#utility.yul\":2323:2330   */\n      dup5\n        /* \"#utility.yul\":2319:2342   */\n      sub\n        /* \"#utility.yul\":2315:2347   */\n      slt\n        /* \"#utility.yul\":2312:2431   */\n      iszero\n      tag_325\n      jumpi\n        /* \"#utility.yul\":2350:2429   */\n      tag_326\n      tag_219\n      jump\t// in\n    tag_326:\n        /* \"#utility.yul\":2312:2431   */\n    tag_325:\n        /* \"#utility.yul\":2470:2471   */\n      0x00\n        /* \"#utility.yul\":2495:2548   */\n      tag_327\n        /* \"#utility.yul\":2540:2547   */\n      dup5\n        /* \"#utility.yul\":2531:2537   */\n      dup3\n        /* \"#utility.yul\":2520:2529   */\n      dup6\n        /* \"#utility.yul\":2516:2538   */\n      add\n        /* \"#utility.yul\":2495:2548   */\n      tag_229\n      jump\t// in\n    tag_327:\n        /* \"#utility.yul\":2485:2548   */\n      swap2\n      pop\n        /* \"#utility.yul\":2441:2558   */\n      pop\n        /* \"#utility.yul\":2236:2565   */\n      swap3\n      swap2\n      pop\n      pop\n      jump\t// out\n        /* \"#utility.yul\":2571:2661   */\n    tag_230:\n        /* \"#utility.yul\":2605:2612   */\n      0x00\n        /* \"#utility.yul\":2648:2653   */\n      dup2\n        /* \"#utility.yul\":2641:2654   */\n      iszero\n        /* \"#utility.yul\":2634:2655   */\n      iszero\n        /* \"#utility.yul\":2623:2655   */\n      swap1\n      pop\n        /* \"#utility.yul\":2571:2661   */\n      swap2\n      swap1\n      pop\n      jump\t// out\n        /* \"#utility.yul\":2667:2776   */\n    tag_231:\n        /* \"#utility.yul\":2748:2769   */\n      tag_330\n        /* \"#utility.yul\":2763:2768   */\n      dup2\n        /* \"#utility.yul\":2748:2769   */\n      tag_230\n      jump\t// in\n    tag_330:\n        /* \"#utility.yul\":2743:2746   */\n      dup3\n        /* \"#utility.yul\":2736:2770   */\n      mstore\n        /* \"#utility.yul\":2667:2776   */\n      pop\n      pop\n      jump\t// out\n        /* \"#utility.yul\":2782:2992   */\n    tag_38:\n        /* \"#utility.yul\":2869:2873   */\n      0x00\n        /* \"#utility.yul\":2907:2909   */\n      0x20\n        /* \"#utility.yul\":2896:2905   */\n      dup3\n        /* \"#utility.yul\":2892:2910   */\n      add\n        /* \"#utility.yul\":2884:2910   */\n      swap1\n      pop\n        /* \"#utility.yul\":2920:2985   */\n      tag_332\n        /* \"#utility.yul\":2982:2983   */\n      0x00\n        /* \"#utility.yul\":2971:2980   */\n      dup4\n        /* \"#utility.yul\":2967:2984   */\n      add\n        /* \"#utility.yul\":2958:2964   */\n      dup5\n        /* \"#utility.yul\":2920:2985   */\n      tag_231\n      jump\t// in\n    tag_332:\n        /* \"#utility.yul\":2782:2992   */\n      swap3\n      swap2\n      pop\n      pop\n      jump\t// out\n        /* \"#utility.yul\":2998:3096   */\n    tag_232:\n        /* \"#utility.yul\":3049:3055   */\n      0x00\n        /* \"#utility.yul\":3083:3088   */\n      dup2\n        /* \"#utility.yul\":3077:3089   */\n      mload\n        /* \"#utility.yul\":3067:3089   */\n      swap1\n      pop\n        /* \"#utility.yul\":2998:3096   */\n      swap2\n      swap1\n      pop\n      jump\t// out\n        /* \"#utility.yul\":3102:3270   */\n    tag_233:\n        /* \"#utility.yul\":3185:3196   */\n      0x00\n        /* \"#utility.yul\":3219:3225   */\n      dup3\n        /* \"#utility.yul\":3214:3217   */\n      dup3\n        /* \"#utility.yul\":3207:3226   */\n      mstore\n        /* \"#utility.yul\":3259:3263   */\n      0x20\n        /* \"#utility.yul\":3254:3257   */\n      dup3\n        /* \"#utility.yul\":3250:3264   */\n      add\n        /* \"#utility.yul\":3235:3264   */\n      swap1\n      pop\n        /* \"#utility.yul\":3102:3270   */\n      swap3\n      swap2\n      pop\n      pop\n      jump\t// out\n        /* \"#utility.yul\":3276:3415   */\n    tag_234:\n        /* \"#utility.yul\":3365:3371   */\n      dup3\n        /* \"#utility.yul\":3360:3363   */\n      dup2\n        /* \"#utility.yul\":3355:3358   */\n      dup4\n        /* \"#utility.yul\":3349:3372   */\n      mcopy\n        /* \"#utility.yul\":3406:3407   */\n      0x00\n        /* \"#utility.yul\":3397:3403   */\n      dup4\n        /* \"#utility.yul\":3392:3395   */\n      dup4\n        /* \"#utility.yul\":3388:3404   */\n      add\n        /* \"#utility.yul\":3381:3408   */\n      mstore\n        /* \"#utility.yul\":3276:3415   */\n      pop\n      pop\n      pop\n      jump\t// out\n        /* \"#utility.yul\":3421:3523   */\n    tag_235:\n        /* \"#utility.yul\":3462:3468   */\n      0x00\n        /* \"#utility.yul\":3513:3515   */\n      0x1f\n        /* \"#utility.yul\":3509:3516   */\n      not\n        /* \"#utility.yul\":3504:3506   */\n      0x1f\n        /* \"#utility.yul\":3497:3502   */\n      dup4\n        /* \"#utility.yul\":3493:3507   */\n      add\n        /* \"#utility.yul\":3489:3517   */\n      and\n        /* \"#utility.yul\":3479:3517   */\n      swap1\n      pop\n        /* \"#utility.yul\":3421:3523   */\n      swap2\n      swap1\n      pop\n      jump\t// out\n        /* \"#utility.yul\":3529:3902   */\n    tag_236:\n        /* \"#utility.yul\":3615:3618   */\n      0x00\n        /* \"#utility.yul\":3643:3681   */\n      tag_338\n        /* \"#utility.yul\":3675:3680   */\n      dup3\n        /* \"#utility.yul\":3643:3681   */\n      tag_232\n      jump\t// in\n    tag_338:\n        /* \"#utility.yul\":3697:3767   */\n      tag_339\n        /* \"#utility.yul\":3760:3766   */\n      dup2\n        /* \"#utility.yul\":3755:3758   */\n      dup6\n        /* \"#utility.yul\":3697:3767   */\n      tag_233\n      jump\t// in\n    tag_339:\n        /* \"#utility.yul\":3690:3767   */\n      swap4\n      pop\n        /* \"#utility.yul\":3776:3841   */\n      tag_340\n        /* \"#utility.yul\":3834:3840   */\n      dup2\n        /* \"#utility.yul\":3829:3832   */\n      dup6\n        /* \"#utility.yul\":3822:3826   */\n      0x20\n        /* \"#utility.yul\":3815:3820   */\n      dup7\n        /* \"#utility.yul\":3811:3827   */\n      add\n        /* \"#utility.yul\":3776:3841   */\n      tag_234\n      jump\t// in\n    tag_340:\n        /* \"#utility.yul\":3866:3895   */\n      tag_341\n        /* \"#utility.yul\":3888:3894   */\n      dup2\n        /* \"#utility.yul\":3866:3895   */\n      tag_235\n      jump\t// in\n    tag_341:\n        /* \"#utility.yul\":3861:3864   */\n      dup5\n        /* \"#utility.yul\":3857:3896   */\n      add\n        /* \"#utility.yul\":3850:3896   */\n      swap2\n      pop\n        /* \"#utility.yul\":3619:3902   */\n      pop\n        /* \"#utility.yul\":3529:3902   */\n      swap3\n      swap2\n      pop\n      pop\n      jump\t// out\n        /* \"#utility.yul\":3908:4647   */\n    tag_48:\n        /* \"#utility.yul\":4125:4129   */\n      0x00\n        /* \"#utility.yul\":4163:4166   */\n      0xa0\n        /* \"#utility.yul\":4152:4161   */\n      dup3\n        /* \"#utility.yul\":4148:4167   */\n      add\n        /* \"#utility.yul\":4140:4167   */\n      swap1\n      pop\n        /* \"#utility.yul\":4177:4248   */\n      tag_343\n        /* \"#utility.yul\":4245:4246   */\n      0x00\n        /* \"#utility.yul\":4234:4243   */\n      dup4\n        /* \"#utility.yul\":4230:4247   */\n      add\n        /* \"#utility.yul\":4221:4227   */\n      dup9\n        /* \"#utility.yul\":4177:4248   */\n      tag_226\n      jump\t// in\n    tag_343:\n        /* \"#utility.yul\":4258:4330   */\n      tag_344\n        /* \"#utility.yul\":4326:4328   */\n      0x20\n        /* \"#utility.yul\":4315:4324   */\n      dup4\n        /* \"#utility.yul\":4311:4329   */\n      add\n        /* \"#utility.yul\":4302:4308   */\n      dup8\n        /* \"#utility.yul\":4258:4330   */\n      tag_227\n      jump\t// in\n    tag_344:\n        /* \"#utility.yul\":4377:4386   */\n      dup2\n        /* \"#utility.yul\":4371:4375   */\n      dup2\n        /* \"#utility.yul\":4367:4387   */\n      sub\n        /* \"#utility.yul\":4362:4364   */\n      0x40\n        /* \"#utility.yul\":4351:4360   */\n      dup4\n        /* \"#utility.yul\":4347:4365   */\n      add\n        /* \"#utility.yul\":4340:4388   */\n      mstore\n        /* \"#utility.yul\":4405:4481   */\n      tag_345\n        /* \"#utility.yul\":4476:4480   */\n      dup2\n        /* \"#utility.yul\":4467:4473   */\n      dup7\n        /* \"#utility.yul\":4405:4481   */\n      tag_236\n      jump\t// in\n    tag_345:\n        /* \"#utility.yul\":4397:4481   */\n      swap1\n      pop\n        /* \"#utility.yul\":4491:4557   */\n      tag_346\n        /* \"#utility.yul\":4553:4555   */\n      0x60\n        /* \"#utility.yul\":4542:4551   */\n      dup4\n        /* \"#utility.yul\":4538:4556   */\n      add\n        /* \"#utility.yul\":4529:4535   */\n      dup6\n        /* \"#utility.yul\":4491:4557   */\n      tag_231\n      jump\t// in\n    tag_346:\n        /* \"#utility.yul\":4567:4640   */\n      tag_347\n        /* \"#utility.yul\":4635:4638   */\n      0x80\n        /* \"#utility.yul\":4624:4633   */\n      dup4\n        /* \"#utility.yul\":4620:4639   */\n      add\n        /* \"#utility.yul\":4611:4617   */\n      dup5\n        /* \"#utility.yul\":4567:4640   */\n      tag_227\n      jump\t// in\n    tag_347:\n        /* \"#utility.yul\":3908:4647   */\n      swap7\n      swap6\n      pop\n      pop\n      pop\n      pop\n      pop\n      pop\n      jump\t// out\n        /* \"#utility.yul\":4653:5127   */\n    tag_52:\n        /* \"#utility.yul\":4721:4727   */\n      0x00\n        /* \"#utility.yul\":4729:4735   */\n      dup1\n        /* \"#utility.yul\":4778:4780   */\n      0x40\n        /* \"#utility.yul\":4766:4775   */\n      dup4\n        /* \"#utility.yul\":4757:4764   */\n      dup6\n        /* \"#utility.yul\":4753:4776   */\n      sub\n        /* \"#utility.yul\":4749:4781   */\n      slt\n        /* \"#utility.yul\":4746:4865   */\n      iszero\n      tag_349\n      jumpi\n        /* \"#utility.yul\":4784:4863   */\n      tag_350\n      tag_219\n      jump\t// in\n    tag_350:\n        /* \"#utility.yul\":4746:4865   */\n    tag_349:\n        /* \"#utility.yul\":4904:4905   */\n      0x00\n        /* \"#utility.yul\":4929:4982   */\n      tag_351\n        /* \"#utility.yul\":4974:4981   */\n      dup6\n        /* \"#utility.yul\":4965:4971   */\n      dup3\n        /* \"#utility.yul\":4954:4963   */\n      dup7\n        /* \"#utility.yul\":4950:4972   */\n      add\n        /* \"#utility.yul\":4929:4982   */\n      tag_223\n      jump\t// in\n    tag_351:\n        /* \"#utility.yul\":4919:4982   */\n      swap3\n      pop\n        /* \"#utility.yul\":4875:4992   */\n      pop\n        /* \"#utility.yul\":5031:5033   */\n      0x20\n        /* \"#utility.yul\":5057:5110   */\n      tag_352\n        /* \"#utility.yul\":5102:5109   */\n      dup6\n        /* \"#utility.yul\":5093:5099   */\n      dup3\n        /* \"#utility.yul\":5082:5091   */\n      dup7\n        /* \"#utility.yul\":5078:5100   */\n      add\n        /* \"#utility.yul\":5057:5110   */\n      tag_229\n      jump\t// in\n    tag_352:\n        /* \"#utility.yul\":5047:5110   */\n      swap2\n      pop\n        /* \"#utility.yul\":5002:5120   */\n      pop\n        /* \"#utility.yul\":4653:5127   */\n      swap3\n      pop\n      swap3\n      swap1\n      pop\n      jump\t// out\n        /* \"#utility.yul\":5133:5247   */\n    tag_237:\n        /* \"#utility.yul\":5200:5206   */\n      0x00\n        /* \"#utility.yul\":5234:5239   */\n      dup2\n        /* \"#utility.yul\":5228:5240   */\n      mload\n        /* \"#utility.yul\":5218:5240   */\n      swap1\n      pop\n        /* \"#utility.yul\":5133:5247   */\n      swap2\n      swap1\n      pop\n      jump\t// out\n        /* \"#utility.yul\":5253:5437   */\n    tag_238:\n        /* \"#utility.yul\":5352:5363   */\n      0x00\n        /* \"#utility.yul\":5386:5392   */\n      dup3\n        /* \"#utility.yul\":5381:5384   */\n      dup3\n        /* \"#utility.yul\":5374:5393   */\n      mstore\n        /* \"#utility.yul\":5426:5430   */\n      0x20\n        /* \"#utility.yul\":5421:5424   */\n      dup3\n        /* \"#utility.yul\":5417:5431   */\n      add\n        /* \"#utility.yul\":5402:5431   */\n      swap1\n      pop\n        /* \"#utility.yul\":5253:5437   */\n      swap3\n      swap2\n      pop\n      pop\n      jump\t// out\n        /* \"#utility.yul\":5443:5575   */\n    tag_239:\n        /* \"#utility.yul\":5510:5514   */\n      0x00\n        /* \"#utility.yul\":5533:5536   */\n      dup2\n        /* \"#utility.yul\":5525:5536   */\n      swap1\n      pop\n        /* \"#utility.yul\":5563:5567   */\n      0x20\n        /* \"#utility.yul\":5558:5561   */\n      dup3\n        /* \"#utility.yul\":5554:5568   */\n      add\n        /* \"#utility.yul\":5546:5568   */\n      swap1\n      pop\n        /* \"#utility.yul\":5443:5575   */\n      swap2\n      swap1\n      pop\n      jump\t// out\n        /* \"#utility.yul\":5581:5689   */\n    tag_240:\n        /* \"#utility.yul\":5658:5682   */\n      tag_357\n        /* \"#utility.yul\":5676:5681   */\n      dup2\n        /* \"#utility.yul\":5658:5682   */\n      tag_225\n      jump\t// in\n    tag_357:\n        /* \"#utility.yul\":5653:5656   */\n      dup3\n        /* \"#utility.yul\":5646:5683   */\n      mstore\n        /* \"#utility.yul\":5581:5689   */\n      pop\n      pop\n      jump\t// out\n        /* \"#utility.yul\":5695:5874   */\n    tag_241:\n        /* \"#utility.yul\":5764:5774   */\n      0x00\n        /* \"#utility.yul\":5785:5831   */\n      tag_359\n        /* \"#utility.yul\":5827:5830   */\n      dup4\n        /* \"#utility.yul\":5819:5825   */\n      dup4\n        /* \"#utility.yul\":5785:5831   */\n      tag_240\n      jump\t// in\n    tag_359:\n        /* \"#utility.yul\":5863:5867   */\n      0x20\n        /* \"#utility.yul\":5858:5861   */\n      dup4\n        /* \"#utility.yul\":5854:5868   */\n      add\n        /* \"#utility.yul\":5840:5868   */\n      swap1\n      pop\n        /* \"#utility.yul\":5695:5874   */\n      swap3\n      swap2\n      pop\n      pop\n      jump\t// out\n        /* \"#utility.yul\":5880:5993   */\n    tag_242:\n        /* \"#utility.yul\":5950:5954   */\n      0x00\n        /* \"#utility.yul\":5982:5986   */\n      0x20\n        /* \"#utility.yul\":5977:5980   */\n      dup3\n        /* \"#utility.yul\":5973:5987   */\n      add\n        /* \"#utility.yul\":5965:5987   */\n      swap1\n      pop\n        /* \"#utility.yul\":5880:5993   */\n      swap2\n      swap1\n      pop\n      jump\t// out\n        /* \"#utility.yul\":6029:6761   */\n    tag_243:\n        /* \"#utility.yul\":6148:6151   */\n      0x00\n        /* \"#utility.yul\":6177:6231   */\n      tag_362\n        /* \"#utility.yul\":6225:6230   */\n      dup3\n        /* \"#utility.yul\":6177:6231   */\n      tag_237\n      jump\t// in\n    tag_362:\n        /* \"#utility.yul\":6247:6333   */\n      tag_363\n        /* \"#utility.yul\":6326:6332   */\n      dup2\n        /* \"#utility.yul\":6321:6324   */\n      dup6\n        /* \"#utility.yul\":6247:6333   */\n      tag_238\n      jump\t// in\n    tag_363:\n        /* \"#utility.yul\":6240:6333   */\n      swap4\n      pop\n        /* \"#utility.yul\":6357:6413   */\n      tag_364\n        /* \"#utility.yul\":6407:6412   */\n      dup4\n        /* \"#utility.yul\":6357:6413   */\n      tag_239\n      jump\t// in\n    tag_364:\n        /* \"#utility.yul\":6436:6443   */\n      dup1\n        /* \"#utility.yul\":6467:6468   */\n      0x00\n        /* \"#utility.yul\":6452:6736   */\n    tag_365:\n        /* \"#utility.yul\":6477:6483   */\n      dup4\n        /* \"#utility.yul\":6474:6475   */\n      dup2\n        /* \"#utility.yul\":6471:6484   */\n      lt\n        /* \"#utility.yul\":6452:6736   */\n      iszero\n      tag_367\n      jumpi\n        /* \"#utility.yul\":6553:6559   */\n      dup2\n        /* \"#utility.yul\":6547:6560   */\n      mload\n        /* \"#utility.yul\":6580:6643   */\n      tag_368\n        /* \"#utility.yul\":6639:6642   */\n      dup9\n        /* \"#utility.yul\":6624:6637   */\n      dup3\n        /* \"#utility.yul\":6580:6643   */\n      tag_241\n      jump\t// in\n    tag_368:\n        /* \"#utility.yul\":6573:6643   */\n      swap8\n      pop\n        /* \"#utility.yul\":6666:6726   */\n      tag_369\n        /* \"#utility.yul\":6719:6725   */\n      dup4\n        /* \"#utility.yul\":6666:6726   */\n      tag_242\n      jump\t// in\n    tag_369:\n        /* \"#utility.yul\":6656:6726   */\n      swap3\n      pop\n        /* \"#utility.yul\":6512:6736   */\n      pop\n        /* \"#utility.yul\":6499:6500   */\n      0x01\n        /* \"#utility.yul\":6496:6497   */\n      dup2\n        /* \"#utility.yul\":6492:6501   */\n      add\n        /* \"#utility.yul\":6487:6501   */\n      swap1\n      pop\n        /* \"#utility.yul\":6452:6736   */\n      jump(tag_365)\n    tag_367:\n        /* \"#utility.yul\":6456:6470   */\n      pop\n        /* \"#utility.yul\":6752:6755   */\n      dup6\n        /* \"#utility.yul\":6745:6755   */\n      swap4\n      pop\n        /* \"#utility.yul\":6153:6761   */\n      pop\n      pop\n      pop\n        /* \"#utility.yul\":6029:6761   */\n      swap3\n      swap2\n      pop\n      pop\n      jump\t// out\n        /* \"#utility.yul\":6767:7140   */\n    tag_68:\n        /* \"#utility.yul\":6910:6914   */\n      0x00\n        /* \"#utility.yul\":6948:6950   */\n      0x20\n        /* \"#utility.yul\":6937:6946   */\n      dup3\n        /* \"#utility.yul\":6933:6951   */\n      add\n        /* \"#utility.yul\":6925:6951   */\n      swap1\n      pop\n        /* \"#utility.yul\":6997:7006   */\n      dup2\n        /* \"#utility.yul\":6991:6995   */\n      dup2\n        /* \"#utility.yul\":6987:7007   */\n      sub\n        /* \"#utility.yul\":6983:6984   */\n      0x00\n        /* \"#utility.yul\":6972:6981   */\n      dup4\n        /* \"#utility.yul\":6968:6985   */\n      add\n        /* \"#utility.yul\":6961:7008   */\n      mstore\n        /* \"#utility.yul\":7025:7133   */\n      tag_371\n        /* \"#utility.yul\":7128:7132   */\n      dup2\n        /* \"#utility.yul\":7119:7125   */\n      dup5\n        /* \"#utility.yul\":7025:7133   */\n      tag_243\n      jump\t// in\n    tag_371:\n        /* \"#utility.yul\":7017:7133   */\n      swap1\n      pop\n        /* \"#utility.yul\":6767:7140   */\n      swap3\n      swap2\n      pop\n      pop\n      jump\t// out\n        /* \"#utility.yul\":7146:7263   */\n    tag_244:\n        /* \"#utility.yul\":7255:7256   */\n      0x00\n        /* \"#utility.yul\":7252:7253   */\n      dup1\n        /* \"#utility.yul\":7245:7257   */\n      revert\n        /* \"#utility.yul\":7269:7386   */\n    tag_245:\n        /* \"#utility.yul\":7378:7379   */\n      0x00\n        /* \"#utility.yul\":7375:7376   */\n      dup1\n        /* \"#utility.yul\":7368:7380   */\n      revert\n        /* \"#utility.yul\":7392:7509   */\n    tag_246:\n        /* \"#utility.yul\":7501:7502   */\n      0x00\n        /* \"#utility.yul\":7498:7499   */\n      dup1\n        /* \"#utility.yul\":7491:7503   */\n      revert\n        /* \"#utility.yul\":7528:8080   */\n    tag_247:\n        /* \"#utility.yul\":7585:7593   */\n      0x00\n        /* \"#utility.yul\":7595:7601   */\n      dup1\n        /* \"#utility.yul\":7645:7648   */\n      dup4\n        /* \"#utility.yul\":7638:7642   */\n      0x1f\n        /* \"#utility.yul\":7630:7636   */\n      dup5\n        /* \"#utility.yul\":7626:7643   */\n      add\n        /* \"#utility.yul\":7622:7649   */\n      slt\n        /* \"#utility.yul\":7612:7734   */\n      tag_376\n      jumpi\n        /* \"#utility.yul\":7653:7732   */\n      tag_377\n      tag_244\n      jump\t// in\n    tag_377:\n        /* \"#utility.yul\":7612:7734   */\n    tag_376:\n        /* \"#utility.yul\":7766:7772   */\n      dup3\n        /* \"#utility.yul\":7753:7773   */\n      calldataload\n        /* \"#utility.yul\":7743:7773   */\n      swap1\n      pop\n        /* \"#utility.yul\":7796:7814   */\n      0xffffffffffffffff\n        /* \"#utility.yul\":7788:7794   */\n      dup2\n        /* \"#utility.yul\":7785:7815   */\n      gt\n        /* \"#utility.yul\":7782:7899   */\n      iszero\n      tag_378\n      jumpi\n        /* \"#utility.yul\":7818:7897   */\n      tag_379\n      tag_245\n      jump\t// in\n    tag_379:\n        /* \"#utility.yul\":7782:7899   */\n    tag_378:\n        /* \"#utility.yul\":7932:7936   */\n      0x20\n        /* \"#utility.yul\":7924:7930   */\n      dup4\n        /* \"#utility.yul\":7920:7937   */\n      add\n        /* \"#utility.yul\":7908:7937   */\n      swap2\n      pop\n        /* \"#utility.yul\":7986:7989   */\n      dup4\n        /* \"#utility.yul\":7978:7982   */\n      0x01\n        /* \"#utility.yul\":7970:7976   */\n      dup3\n        /* \"#utility.yul\":7966:7983   */\n      mul\n        /* \"#utility.yul\":7956:7964   */\n      dup4\n        /* \"#utility.yul\":7952:7984   */\n      add\n        /* \"#utility.yul\":7949:7990   */\n      gt\n        /* \"#utility.yul\":7946:8074   */\n      iszero\n      tag_380\n      jumpi\n        /* \"#utility.yul\":7993:8072   */\n      tag_381\n      tag_246\n      jump\t// in\n    tag_381:\n        /* \"#utility.yul\":7946:8074   */\n    tag_380:\n        /* \"#utility.yul\":7528:8080   */\n      swap3\n      pop\n      swap3\n      swap1\n      pop\n      jump\t// out\n        /* \"#utility.yul\":8086:8903   */\n    tag_76:\n        /* \"#utility.yul\":8174:8180   */\n      0x00\n        /* \"#utility.yul\":8182:8188   */\n      dup1\n        /* \"#utility.yul\":8190:8196   */\n      0x00\n        /* \"#utility.yul\":8198:8204   */\n      dup1\n        /* \"#utility.yul\":8247:8249   */\n      0x60\n        /* \"#utility.yul\":8235:8244   */\n      dup6\n        /* \"#utility.yul\":8226:8233   */\n      dup8\n        /* \"#utility.yul\":8222:8245   */\n      sub\n        /* \"#utility.yul\":8218:8250   */\n      slt\n        /* \"#utility.yul\":8215:8334   */\n      iszero\n      tag_383\n      jumpi\n        /* \"#utility.yul\":8253:8332   */\n      tag_384\n      tag_219\n      jump\t// in\n    tag_384:\n        /* \"#utility.yul\":8215:8334   */\n    tag_383:\n        /* \"#utility.yul\":8373:8374   */\n      0x00\n        /* \"#utility.yul\":8398:8451   */\n      tag_385\n        /* \"#utility.yul\":8443:8450   */\n      dup8\n        /* \"#utility.yul\":8434:8440   */\n      dup3\n        /* \"#utility.yul\":8423:8432   */\n      dup9\n        /* \"#utility.yul\":8419:8441   */\n      add\n        /* \"#utility.yul\":8398:8451   */\n      tag_229\n      jump\t// in\n    tag_385:\n        /* \"#utility.yul\":8388:8451   */\n      swap5\n      pop\n        /* \"#utility.yul\":8344:8461   */\n      pop\n        /* \"#utility.yul\":8500:8502   */\n      0x20\n        /* \"#utility.yul\":8526:8579   */\n      tag_386\n        /* \"#utility.yul\":8571:8578   */\n      dup8\n        /* \"#utility.yul\":8562:8568   */\n      dup3\n        /* \"#utility.yul\":8551:8560   */\n      dup9\n        /* \"#utility.yul\":8547:8569   */\n      add\n        /* \"#utility.yul\":8526:8579   */\n      tag_223\n      jump\t// in\n    tag_386:\n        /* \"#utility.yul\":8516:8579   */\n      swap4\n      pop\n        /* \"#utility.yul\":8471:8589   */\n      pop\n        /* \"#utility.yul\":8656:8658   */\n      0x40\n        /* \"#utility.yul\":8645:8654   */\n      dup6\n        /* \"#utility.yul\":8641:8659   */\n      add\n        /* \"#utility.yul\":8628:8660   */\n      calldataload\n        /* \"#utility.yul\":8687:8705   */\n      0xffffffffffffffff\n        /* \"#utility.yul\":8679:8685   */\n      dup2\n        /* \"#utility.yul\":8676:8706   */\n      gt\n        /* \"#utility.yul\":8673:8790   */\n      iszero\n      tag_387\n      jumpi\n        /* \"#utility.yul\":8709:8788   */\n      tag_388\n      tag_220\n      jump\t// in\n    tag_388:\n        /* \"#utility.yul\":8673:8790   */\n    tag_387:\n        /* \"#utility.yul\":8822:8886   */\n      tag_389\n        /* \"#utility.yul\":8878:8885   */\n      dup8\n        /* \"#utility.yul\":8869:8875   */\n      dup3\n        /* \"#utility.yul\":8858:8867   */\n      dup9\n        /* \"#utility.yul\":8854:8876   */\n      add\n        /* \"#utility.yul\":8822:8886   */\n      tag_247\n      jump\t// in\n    tag_389:\n        /* \"#utility.yul\":8804:8886   */\n      swap3\n      pop\n      swap3\n      pop\n        /* \"#utility.yul\":8599:8896   */\n      pop\n        /* \"#utility.yul\":8086:8903   */\n      swap3\n      swap6\n      swap2\n      swap5\n      pop\n      swap3\n      pop\n      jump\t// out\n        /* \"#utility.yul\":8909:9078   */\n    tag_248:\n        /* \"#utility.yul\":8993:9004   */\n      0x00\n        /* \"#utility.yul\":9027:9033   */\n      dup3\n        /* \"#utility.yul\":9022:9025   */\n      dup3\n        /* \"#utility.yul\":9015:9034   */\n      mstore\n        /* \"#utility.yul\":9067:9071   */\n      0x20\n        /* \"#utility.yul\":9062:9065   */\n      dup3\n        /* \"#utility.yul\":9058:9072   */\n      add\n        /* \"#utility.yul\":9043:9072   */\n      swap1\n      pop\n        /* \"#utility.yul\":8909:9078   */\n      swap3\n      swap2\n      pop\n      pop\n      jump\t// out\n        /* \"#utility.yul\":9084:9246   */\n    tag_249:\n        /* \"#utility.yul\":9224:9238   */\n      0x4e6f7420616e206f776e65720000000000000000000000000000000000000000\n        /* \"#utility.yul\":9220:9221   */\n      0x00\n        /* \"#utility.yul\":9212:9218   */\n      dup3\n        /* \"#utility.yul\":9208:9222   */\n      add\n        /* \"#utility.yul\":9201:9239   */\n      mstore\n        /* \"#utility.yul\":9084:9246   */\n      pop\n      jump\t// out\n        /* \"#utility.yul\":9252:9618   */\n    tag_250:\n        /* \"#utility.yul\":9394:9397   */\n      0x00\n        /* \"#utility.yul\":9415:9482   */\n      tag_393\n        /* \"#utility.yul\":9479:9481   */\n      0x0c\n        /* \"#utility.yul\":9474:9477   */\n      dup4\n        /* \"#utility.yul\":9415:9482   */\n      tag_248\n      jump\t// in\n    tag_393:\n        /* \"#utility.yul\":9408:9482   */\n      swap2\n      pop\n        /* \"#utility.yul\":9491:9584   */\n      tag_394\n        /* \"#utility.yul\":9580:9583   */\n      dup3\n        /* \"#utility.yul\":9491:9584   */\n      tag_249\n      jump\t// in\n    tag_394:\n        /* \"#utility.yul\":9609:9611   */\n      0x20\n        /* \"#utility.yul\":9604:9607   */\n      dup3\n        /* \"#utility.yul\":9600:9612   */\n      add\n        /* \"#utility.yul\":9593:9612   */\n      swap1\n      pop\n        /* \"#utility.yul\":9252:9618   */\n      swap2\n      swap1\n      pop\n      jump\t// out\n        /* \"#utility.yul\":9624:10043   */\n    tag_92:\n        /* \"#utility.yul\":9790:9794   */\n      0x00\n        /* \"#utility.yul\":9828:9830   */\n      0x20\n        /* \"#utility.yul\":9817:9826   */\n      dup3\n        /* \"#utility.yul\":9813:9831   */\n      add\n        /* \"#utility.yul\":9805:9831   */\n      swap1\n      pop\n        /* \"#utility.yul\":9877:9886   */\n      dup2\n        /* \"#utility.yul\":9871:9875   */\n      dup2\n        /* \"#utility.yul\":9867:9887   */\n      sub\n        /* \"#utility.yul\":9863:9864   */\n      0x00\n        /* \"#utility.yul\":9852:9861   */\n      dup4\n        /* \"#utility.yul\":9848:9865   */\n      add\n        /* \"#utility.yul\":9841:9888   */\n      mstore\n        /* \"#utility.yul\":9905:10036   */\n      tag_396\n        /* \"#utility.yul\":10031:10035   */\n      dup2\n        /* \"#utility.yul\":9905:10036   */\n      tag_250\n      jump\t// in\n    tag_396:\n        /* \"#utility.yul\":9897:10036   */\n      swap1\n      pop\n        /* \"#utility.yul\":9624:10043   */\n      swap2\n      swap1\n      pop\n      jump\t// out\n        /* \"#utility.yul\":10049:10225   */\n    tag_251:\n        /* \"#utility.yul\":10189:10217   */\n      0x5472616e73616374696f6e20646f6573206e6f74206578697374000000000000\n        /* \"#utility.yul\":10185:10186   */\n      0x00\n        /* \"#utility.yul\":10177:10183   */\n      dup3\n        /* \"#utility.yul\":10173:10187   */\n      add\n        /* \"#utility.yul\":10166:10218   */\n      mstore\n        /* \"#utility.yul\":10049:10225   */\n      pop\n      jump\t// out\n        /* \"#utility.yul\":10231:10597   */\n    tag_252:\n        /* \"#utility.yul\":10373:10376   */\n      0x00\n        /* \"#utility.yul\":10394:10461   */\n      tag_399\n        /* \"#utility.yul\":10458:10460   */\n      0x1a\n        /* \"#utility.yul\":10453:10456   */\n      dup4\n        /* \"#utility.yul\":10394:10461   */\n      tag_248\n      jump\t// in\n    tag_399:\n        /* \"#utility.yul\":10387:10461   */\n      swap2\n      pop\n        /* \"#utility.yul\":10470:10563   */\n      tag_400\n        /* \"#utility.yul\":10559:10562   */\n      dup3\n        /* \"#utility.yul\":10470:10563   */\n      tag_251\n      jump\t// in\n    tag_400:\n        /* \"#utility.yul\":10588:10590   */\n      0x20\n        /* \"#utility.yul\":10583:10586   */\n      dup3\n        /* \"#utility.yul\":10579:10591   */\n      add\n        /* \"#utility.yul\":10572:10591   */\n      swap1\n      pop\n        /* \"#utility.yul\":10231:10597   */\n      swap2\n      swap1\n      pop\n      jump\t// out\n        /* \"#utility.yul\":10603:11022   */\n    tag_96:\n        /* \"#utility.yul\":10769:10773   */\n      0x00\n        /* \"#utility.yul\":10807:10809   */\n      0x20\n        /* \"#utility.yul\":10796:10805   */\n      dup3\n        /* \"#utility.yul\":10792:10810   */\n      add\n        /* \"#utility.yul\":10784:10810   */\n      swap1\n      pop\n        /* \"#utility.yul\":10856:10865   */\n      dup2\n        /* \"#utility.yul\":10850:10854   */\n      dup2\n        /* \"#utility.yul\":10846:10866   */\n      sub\n        /* \"#utility.yul\":10842:10843   */\n      0x00\n        /* \"#utility.yul\":10831:10840   */\n      dup4\n        /* \"#utility.yul\":10827:10844   */\n      add\n        /* \"#utility.yul\":10820:10867   */\n      mstore\n        /* \"#utility.yul\":10884:11015   */\n      tag_402\n        /* \"#utility.yul\":11010:11014   */\n      dup2\n        /* \"#utility.yul\":10884:11015   */\n      tag_252\n      jump\t// in\n    tag_402:\n        /* \"#utility.yul\":10876:11015   */\n      swap1\n      pop\n        /* \"#utility.yul\":10603:11022   */\n      swap2\n      swap1\n      pop\n      jump\t// out\n        /* \"#utility.yul\":11028:11208   */\n    tag_100:\n        /* \"#utility.yul\":11076:11153   */\n      0x4e487b7100000000000000000000000000000000000000000000000000000000\n        /* \"#utility.yul\":11073:11074   */\n      0x00\n        /* \"#utility.yul\":11066:11154   */\n      mstore\n        /* \"#utility.yul\":11173:11177   */\n      0x32\n        /* \"#utility.yul\":11170:11171   */\n      0x04\n        /* \"#utility.yul\":11163:11178   */\n      mstore\n        /* \"#utility.yul\":11197:11201   */\n      0x24\n        /* \"#utility.yul\":11194:11195   */\n      0x00\n        /* \"#utility.yul\":11187:11202   */\n      revert\n        /* \"#utility.yul\":11214:11392   */\n    tag_253:\n        /* \"#utility.yul\":11354:11384   */\n      0x5472616e73616374696f6e20616c726561647920657865637574656400000000\n        /* \"#utility.yul\":11350:11351   */\n      0x00\n        /* \"#utility.yul\":11342:11348   */\n      dup3\n        /* \"#utility.yul\":11338:11352   */\n      add\n        /* \"#utility.yul\":11331:11385   */\n      mstore\n        /* \"#utility.yul\":11214:11392   */\n      pop\n      jump\t// out\n        /* \"#utility.yul\":11398:11764   */\n    tag_254:\n        /* \"#utility.yul\":11540:11543   */\n      0x00\n        /* \"#utility.yul\":11561:11628   */\n      tag_406\n        /* \"#utility.yul\":11625:11627   */\n      0x1c\n        /* \"#utility.yul\":11620:11623   */\n      dup4\n        /* \"#utility.yul\":11561:11628   */\n      tag_248\n      jump\t// in\n    tag_406:\n        /* \"#utility.yul\":11554:11628   */\n      swap2\n      pop\n        /* \"#utility.yul\":11637:11730   */\n      tag_407\n        /* \"#utility.yul\":11726:11729   */\n      dup3\n        /* \"#utility.yul\":11637:11730   */\n      tag_253\n      jump\t// in\n    tag_407:\n        /* \"#utility.yul\":11755:11757   */\n      0x20\n        /* \"#utility.yul\":11750:11753   */\n      dup3\n        /* \"#utility.yul\":11746:11758   */\n      add\n        /* \"#utility.yul\":11739:11758   */\n      swap1\n      pop\n        /* \"#utility.yul\":11398:11764   */\n      swap2\n      swap1\n      pop\n      jump\t// out\n        /* \"#utility.yul\":11770:12189   */\n    tag_104:\n        /* \"#utility.yul\":11936:11940   */\n      0x00\n        /* \"#utility.yul\":11974:11976   */\n      0x20\n        /* \"#utility.yul\":11963:11972   */\n      dup3\n        /* \"#utility.yul\":11959:11977   */\n      add\n        /* \"#utility.yul\":11951:11977   */\n      swap1\n      pop\n        /* \"#utility.yul\":12023:12032   */\n      dup2\n        /* \"#utility.yul\":12017:12021   */\n      dup2\n        /* \"#utility.yul\":12013:12033   */\n      sub\n        /* \"#utility.yul\":12009:12010   */\n      0x00\n        /* \"#utility.yul\":11998:12007   */\n      dup4\n        /* \"#utility.yul\":11994:12011   */\n      add\n        /* \"#utility.yul\":11987:12034   */\n      mstore\n        /* \"#utility.yul\":12051:12182   */\n      tag_409\n        /* \"#utility.yul\":12177:12181   */\n      dup2\n        /* \"#utility.yul\":12051:12182   */\n      tag_254\n      jump\t// in\n    tag_409:\n        /* \"#utility.yul\":12043:12182   */\n      swap1\n      pop\n        /* \"#utility.yul\":11770:12189   */\n      swap2\n      swap1\n      pop\n      jump\t// out\n        /* \"#utility.yul\":12195:12421   */\n    tag_255:\n        /* \"#utility.yul\":12335:12369   */\n      0x596f752068617665206e6f7420636f6e6669726d65642074686973207472616e\n        /* \"#utility.yul\":12331:12332   */\n      0x00\n        /* \"#utility.yul\":12323:12329   */\n      dup3\n        /* \"#utility.yul\":12319:12333   */\n      add\n        /* \"#utility.yul\":12312:12370   */\n      mstore\n        /* \"#utility.yul\":12404:12413   */\n      0x73616374696f6e00000000000000000000000000000000000000000000000000\n        /* \"#utility.yul\":12399:12401   */\n      0x20\n        /* \"#utility.yul\":12391:12397   */\n      dup3\n        /* \"#utility.yul\":12387:12402   */\n      add\n        /* \"#utility.yul\":12380:12414   */\n      mstore\n        /* \"#utility.yul\":12195:12421   */\n      pop\n      jump\t// out\n        /* \"#utility.yul\":12427:12793   */\n    tag_256:\n        /* \"#utility.yul\":12569:12572   */\n      0x00\n        /* \"#utility.yul\":12590:12657   */\n      tag_412\n        /* \"#utility.yul\":12654:12656   */\n      0x27\n        /* \"#utility.yul\":12649:12652   */\n      dup4\n        /* \"#utility.yul\":12590:12657   */\n      tag_248\n      jump\t// in\n    tag_412:\n        /* \"#utility.yul\":12583:12657   */\n      swap2\n      pop\n        /* \"#utility.yul\":12666:12759   */\n      tag_413\n        /* \"#utility.yul\":12755:12758   */\n      dup3\n        /* \"#utility.yul\":12666:12759   */\n      tag_255\n      jump\t// in\n    tag_413:\n        /* \"#utility.yul\":12784:12786   */\n      0x40\n        /* \"#utility.yul\":12779:12782   */\n      dup3\n        /* \"#utility.yul\":12775:12787   */\n      add\n        /* \"#utility.yul\":12768:12787   */\n      swap1\n      pop\n        /* \"#utility.yul\":12427:12793   */\n      swap2\n      swap1\n      pop\n      jump\t// out\n        /* \"#utility.yul\":12799:13218   */\n    tag_108:\n        /* \"#utility.yul\":12965:12969   */\n      0x00\n        /* \"#utility.yul\":13003:13005   */\n      0x20\n        /* \"#utility.yul\":12992:13001   */\n      dup3\n        /* \"#utility.yul\":12988:13006   */\n      add\n        /* \"#utility.yul\":12980:13006   */\n      swap1\n      pop\n        /* \"#utility.yul\":13052:13061   */\n      dup2\n        /* \"#utility.yul\":13046:13050   */\n      dup2\n        /* \"#utility.yul\":13042:13062   */\n      sub\n        /* \"#utility.yul\":13038:13039   */\n      0x00\n        /* \"#utility.yul\":13027:13036   */\n      dup4\n        /* \"#utility.yul\":13023:13040   */\n      add\n        /* \"#utility.yul\":13016:13063   */\n      mstore\n        /* \"#utility.yul\":13080:13211   */\n      tag_415\n        /* \"#utility.yul\":13206:13210   */\n      dup2\n        /* \"#utility.yul\":13080:13211   */\n      tag_256\n      jump\t// in\n    tag_415:\n        /* \"#utility.yul\":13072:13211   */\n      swap1\n      pop\n        /* \"#utility.yul\":12799:13218   */\n      swap2\n      swap1\n      pop\n      jump\t// out\n        /* \"#utility.yul\":13224:13404   */\n    tag_257:\n        /* \"#utility.yul\":13272:13349   */\n      0x4e487b7100000000000000000000000000000000000000000000000000000000\n        /* \"#utility.yul\":13269:13270   */\n      0x00\n        /* \"#utility.yul\":13262:13350   */\n      mstore\n        /* \"#utility.yul\":13369:13373   */\n      0x22\n        /* \"#utility.yul\":13366:13367   */\n      0x04\n        /* \"#utility.yul\":13359:13374   */\n      mstore\n        /* \"#utility.yul\":13393:13397   */\n      0x24\n        /* \"#utility.yul\":13390:13391   */\n      0x00\n        /* \"#utility.yul\":13383:13398   */\n      revert\n        /* \"#utility.yul\":13410:13730   */\n    tag_117:\n        /* \"#utility.yul\":13454:13460   */\n      0x00\n        /* \"#utility.yul\":13491:13492   */\n      0x02\n        /* \"#utility.yul\":13485:13489   */\n      dup3\n        /* \"#utility.yul\":13481:13493   */\n      div\n        /* \"#utility.yul\":13471:13493   */\n      swap1\n      pop\n        /* \"#utility.yul\":13538:13539   */\n      0x01\n        /* \"#utility.yul\":13532:13536   */\n      dup3\n        /* \"#utility.yul\":13528:13540   */\n      and\n        /* \"#utility.yul\":13559:13577   */\n      dup1\n        /* \"#utility.yul\":13549:13630   */\n      tag_418\n      jumpi\n        /* \"#utility.yul\":13615:13619   */\n      0x7f\n        /* \"#utility.yul\":13607:13613   */\n      dup3\n        /* \"#utility.yul\":13603:13620   */\n      and\n        /* \"#utility.yul\":13593:13620   */\n      swap2\n      pop\n        /* \"#utility.yul\":13549:13630   */\n    tag_418:\n        /* \"#utility.yul\":13677:13679   */\n      0x20\n        /* \"#utility.yul\":13669:13675   */\n      dup3\n        /* \"#utility.yul\":13666:13680   */\n      lt\n        /* \"#utility.yul\":13646:13664   */\n      dup2\n        /* \"#utility.yul\":13643:13681   */\n      sub\n        /* \"#utility.yul\":13640:13724   */\n      tag_419\n      jumpi\n        /* \"#utility.yul\":13696:13714   */\n      tag_420\n      tag_257\n      jump\t// in\n    tag_420:\n        /* \"#utility.yul\":13640:13724   */\n    tag_419:\n        /* \"#utility.yul\":13461:13730   */\n      pop\n        /* \"#utility.yul\":13410:13730   */\n      swap2\n      swap1\n      pop\n      jump\t// out\n        /* \"#utility.yul\":13736:13915   */\n    tag_258:\n        /* \"#utility.yul\":13876:13907   */\n      0x5472616e73616374696f6e20616c726561647920636f6e6669726d6564000000\n        /* \"#utility.yul\":13872:13873   */\n      0x00\n        /* \"#utility.yul\":13864:13870   */\n      dup3\n        /* \"#utility.yul\":13860:13874   */\n      add\n        /* \"#utility.yul\":13853:13908   */\n      mstore\n        /* \"#utility.yul\":13736:13915   */\n      pop\n      jump\t// out\n        /* \"#utility.yul\":13921:14287   */\n    tag_259:\n        /* \"#utility.yul\":14063:14066   */\n      0x00\n        /* \"#utility.yul\":14084:14151   */\n      tag_423\n        /* \"#utility.yul\":14148:14150   */\n      0x1d\n        /* \"#utility.yul\":14143:14146   */\n      dup4\n        /* \"#utility.yul\":14084:14151   */\n      tag_248\n      jump\t// in\n    tag_423:\n        /* \"#utility.yul\":14077:14151   */\n      swap2\n      pop\n        /* \"#utility.yul\":14160:14253   */\n      tag_424\n        /* \"#utility.yul\":14249:14252   */\n      dup3\n        /* \"#utility.yul\":14160:14253   */\n      tag_258\n      jump\t// in\n    tag_424:\n        /* \"#utility.yul\":14278:14280   */\n      0x20\n        /* \"#utility.yul\":14273:14276   */\n      dup3\n        /* \"#utility.yul\":14269:14281   */\n      add\n        /* \"#utility.yul\":14262:14281   */\n      swap1\n      pop\n        /* \"#utility.yul\":13921:14287   */\n      swap2\n      swap1\n      pop\n      jump\t// out\n        /* \"#utility.yul\":14293:14712   */\n    tag_147:\n        /* \"#utility.yul\":14459:14463   */\n      0x00\n        /* \"#utility.yul\":14497:14499   */\n      0x20\n        /* \"#utility.yul\":14486:14495   */\n      dup3\n        /* \"#utility.yul\":14482:14500   */\n      add\n        /* \"#utility.yul\":14474:14500   */\n      swap1\n      pop\n        /* \"#utility.yul\":14546:14555   */\n      dup2\n        /* \"#utility.yul\":14540:14544   */\n      dup2\n        /* \"#utility.yul\":14536:14556   */\n      sub\n        /* \"#utility.yul\":14532:14533   */\n      0x00\n        /* \"#utility.yul\":14521:14530   */\n      dup4\n        /* \"#utility.yul\":14517:14534   */\n      add\n        /* \"#utility.yul\":14510:14557   */\n      mstore\n        /* \"#utility.yul\":14574:14705   */\n      tag_426\n        /* \"#utility.yul\":14700:14704   */\n      dup2\n        /* \"#utility.yul\":14574:14705   */\n      tag_259\n      jump\t// in\n    tag_426:\n        /* \"#utility.yul\":14566:14705   */\n      swap1\n      pop\n        /* \"#utility.yul\":14293:14712   */\n      swap2\n      swap1\n      pop\n      jump\t// out\n        /* \"#utility.yul\":14718:14898   */\n    tag_260:\n        /* \"#utility.yul\":14766:14843   */\n      0x4e487b7100000000000000000000000000000000000000000000000000000000\n        /* \"#utility.yul\":14763:14764   */\n      0x00\n        /* \"#utility.yul\":14756:14844   */\n      mstore\n        /* \"#utility.yul\":14863:14867   */\n      0x11\n        /* \"#utility.yul\":14860:14861   */\n      0x04\n        /* \"#utility.yul\":14853:14868   */\n      mstore\n        /* \"#utility.yul\":14887:14891   */\n      0x24\n        /* \"#utility.yul\":14884:14885   */\n      0x00\n        /* \"#utility.yul\":14877:14892   */\n      revert\n        /* \"#utility.yul\":14904:15095   */\n    tag_152:\n        /* \"#utility.yul\":14944:14947   */\n      0x00\n        /* \"#utility.yul\":14963:14983   */\n      tag_429\n        /* \"#utility.yul\":14981:14982   */\n      dup3\n        /* \"#utility.yul\":14963:14983   */\n      tag_221\n      jump\t// in\n    tag_429:\n        /* \"#utility.yul\":14958:14983   */\n      swap2\n      pop\n        /* \"#utility.yul\":14997:15017   */\n      tag_430\n        /* \"#utility.yul\":15015:15016   */\n      dup4\n        /* \"#utility.yul\":14997:15017   */\n      tag_221\n      jump\t// in\n    tag_430:\n        /* \"#utility.yul\":14992:15017   */\n      swap3\n      pop\n        /* \"#utility.yul\":15040:15041   */\n      dup3\n        /* \"#utility.yul\":15037:15038   */\n      dup3\n        /* \"#utility.yul\":15033:15042   */\n      add\n        /* \"#utility.yul\":15026:15042   */\n      swap1\n      pop\n        /* \"#utility.yul\":15061:15064   */\n      dup1\n        /* \"#utility.yul\":15058:15059   */\n      dup3\n        /* \"#utility.yul\":15055:15065   */\n      gt\n        /* \"#utility.yul\":15052:15088   */\n      iszero\n      tag_431\n      jumpi\n        /* \"#utility.yul\":15068:15086   */\n      tag_432\n      tag_260\n      jump\t// in\n    tag_432:\n        /* \"#utility.yul\":15052:15088   */\n    tag_431:\n        /* \"#utility.yul\":14904:15095   */\n      swap3\n      swap2\n      pop\n      pop\n      jump\t// out\n        /* \"#utility.yul\":15101:15278   */\n    tag_261:\n        /* \"#utility.yul\":15241:15270   */\n      0x496e76616c69642064657374696e6174696f6e20616464726573730000000000\n        /* \"#utility.yul\":15237:15238   */\n      0x00\n        /* \"#utility.yul\":15229:15235   */\n      dup3\n        /* \"#utility.yul\":15225:15239   */\n      add\n        /* \"#utility.yul\":15218:15271   */\n      mstore\n        /* \"#utility.yul\":15101:15278   */\n      pop\n      jump\t// out\n        /* \"#utility.yul\":15284:15650   */\n    tag_262:\n        /* \"#utility.yul\":15426:15429   */\n      0x00\n        /* \"#utility.yul\":15447:15514   */\n      tag_435\n        /* \"#utility.yul\":15511:15513   */\n      0x1b\n        /* \"#utility.yul\":15506:15509   */\n      dup4\n        /* \"#utility.yul\":15447:15514   */\n      tag_248\n      jump\t// in\n    tag_435:\n        /* \"#utility.yul\":15440:15514   */\n      swap2\n      pop\n        /* \"#utility.yul\":15523:15616   */\n      tag_436\n        /* \"#utility.yul\":15612:15615   */\n      dup3\n        /* \"#utility.yul\":15523:15616   */\n      tag_261\n      jump\t// in\n    tag_436:\n        /* \"#utility.yul\":15641:15643   */\n      0x20\n        /* \"#utility.yul\":15636:15639   */\n      dup3\n        /* \"#utility.yul\":15632:15644   */\n      add\n        /* \"#utility.yul\":15625:15644   */\n      swap1\n      pop\n        /* \"#utility.yul\":15284:15650   */\n      swap2\n      swap1\n      pop\n      jump\t// out\n        /* \"#utility.yul\":15656:16075   */\n    tag_159:\n        /* \"#utility.yul\":15822:15826   */\n      0x00\n        /* \"#utility.yul\":15860:15862   */\n      0x20\n        /* \"#utility.yul\":15849:15858   */\n      dup3\n        /* \"#utility.yul\":15845:15863   */\n      add\n        /* \"#utility.yul\":15837:15863   */\n      swap1\n      pop\n        /* \"#utility.yul\":15909:15918   */\n      dup2\n        /* \"#utility.yul\":15903:15907   */\n      dup2\n        /* \"#utility.yul\":15899:15919   */\n      sub\n        /* \"#utility.yul\":15895:15896   */\n      0x00\n        /* \"#utility.yul\":15884:15893   */\n      dup4\n        /* \"#utility.yul\":15880:15897   */\n      add\n        /* \"#utility.yul\":15873:15920   */\n      mstore\n        /* \"#utility.yul\":15937:16068   */\n      tag_438\n        /* \"#utility.yul\":16063:16067   */\n      dup2\n        /* \"#utility.yul\":15937:16068   */\n      tag_262\n      jump\t// in\n    tag_438:\n        /* \"#utility.yul\":15929:16068   */\n      swap1\n      pop\n        /* \"#utility.yul\":15656:16075   */\n      swap2\n      swap1\n      pop\n      jump\t// out\n        /* \"#utility.yul\":16081:16260   */\n    tag_263:\n        /* \"#utility.yul\":16221:16252   */\n      0x496e73756666696369656e7420636f6e74726163742062616c616e6365000000\n        /* \"#utility.yul\":16217:16218   */\n      0x00\n        /* \"#utility.yul\":16209:16215   */\n      dup3\n        /* \"#utility.yul\":16205:16219   */\n      add\n        /* \"#utility.yul\":16198:16253   */\n      mstore\n        /* \"#utility.yul\":16081:16260   */\n      pop\n      jump\t// out\n        /* \"#utility.yul\":16266:16632   */\n    tag_264:\n        /* \"#utility.yul\":16408:16411   */\n      0x00\n        /* \"#utility.yul\":16429:16496   */\n      tag_441\n        /* \"#utility.yul\":16493:16495   */\n      0x1d\n        /* \"#utility.yul\":16488:16491   */\n      dup4\n        /* \"#utility.yul\":16429:16496   */\n      tag_248\n      jump\t// in\n    tag_441:\n        /* \"#utility.yul\":16422:16496   */\n      swap2\n      pop\n        /* \"#utility.yul\":16505:16598   */\n      tag_442\n        /* \"#utility.yul\":16594:16597   */\n      dup3\n        /* \"#utility.yul\":16505:16598   */\n      tag_263\n      jump\t// in\n    tag_442:\n        /* \"#utility.yul\":16623:16625   */\n      0x20\n        /* \"#utility.yul\":16618:16621   */\n      dup3\n        /* \"#utility.yul\":16614:16626   */\n      add\n        /* \"#utility.yul\":16607:16626   */\n      swap1\n      pop\n        /* \"#utility.yul\":16266:16632   */\n      swap2\n      swap1\n      pop\n      jump\t// out\n        /* \"#utility.yul\":16638:17057   */\n    tag_162:\n        /* \"#utility.yul\":16804:16808   */\n      0x00\n        /* \"#utility.yul\":16842:16844   */\n      0x20\n        /* \"#utility.yul\":16831:16840   */\n      dup3\n        /* \"#utility.yul\":16827:16845   */\n      add\n        /* \"#utility.yul\":16819:16845   */\n      swap1\n      pop\n        /* \"#utility.yul\":16891:16900   */\n      dup2\n        /* \"#utility.yul\":16885:16889   */\n      dup2\n        /* \"#utility.yul\":16881:16901   */\n      sub\n        /* \"#utility.yul\":16877:16878   */\n      0x00\n        /* \"#utility.yul\":16866:16875   */\n      dup4\n        /* \"#utility.yul\":16862:16879   */\n      add\n        /* \"#utility.yul\":16855:16902   */\n      mstore\n        /* \"#utility.yul\":16919:17050   */\n      tag_444\n        /* \"#utility.yul\":17045:17049   */\n      dup2\n        /* \"#utility.yul\":16919:17050   */\n      tag_264\n      jump\t// in\n    tag_444:\n        /* \"#utility.yul\":16911:17050   */\n      swap1\n      pop\n        /* \"#utility.yul\":16638:17057   */\n      swap2\n      swap1\n      pop\n      jump\t// out\n        /* \"#utility.yul\":17063:17243   */\n    tag_265:\n        /* \"#utility.yul\":17111:17188   */\n      0x4e487b7100000000000000000000000000000000000000000000000000000000\n        /* \"#utility.yul\":17108:17109   */\n      0x00\n        /* \"#utility.yul\":17101:17189   */\n      mstore\n        /* \"#utility.yul\":17208:17212   */\n      0x41\n        /* \"#utility.yul\":17205:17206   */\n      0x04\n        /* \"#utility.yul\":17198:17213   */\n      mstore\n        /* \"#utility.yul\":17232:17236   */\n      0x24\n        /* \"#utility.yul\":17229:17230   */\n      0x00\n        /* \"#utility.yul\":17222:17237   */\n      revert\n        /* \"#utility.yul\":17249:17389   */\n    tag_266:\n        /* \"#utility.yul\":17297:17301   */\n      0x00\n        /* \"#utility.yul\":17320:17323   */\n      dup2\n        /* \"#utility.yul\":17312:17323   */\n      swap1\n      pop\n        /* \"#utility.yul\":17343:17346   */\n      dup2\n        /* \"#utility.yul\":17340:17341   */\n      0x00\n        /* \"#utility.yul\":17333:17347   */\n      mstore\n        /* \"#utility.yul\":17377:17381   */\n      0x20\n        /* \"#utility.yul\":17374:17375   */\n      0x00\n        /* \"#utility.yul\":17364:17382   */\n      keccak256\n        /* \"#utility.yul\":17356:17382   */\n      swap1\n      pop\n        /* \"#utility.yul\":17249:17389   */\n      swap2\n      swap1\n      pop\n      jump\t// out\n        /* \"#utility.yul\":17395:17488   */\n    tag_267:\n        /* \"#utility.yul\":17432:17438   */\n      0x00\n        /* \"#utility.yul\":17479:17481   */\n      0x20\n        /* \"#utility.yul\":17474:17476   */\n      0x1f\n        /* \"#utility.yul\":17467:17472   */\n      dup4\n        /* \"#utility.yul\":17463:17477   */\n      add\n        /* \"#utility.yul\":17459:17482   */\n      div\n        /* \"#utility.yul\":17449:17482   */\n      swap1\n      pop\n        /* \"#utility.yul\":17395:17488   */\n      swap2\n      swap1\n      pop\n      jump\t// out\n        /* \"#utility.yul\":17494:17601   */\n    tag_268:\n        /* \"#utility.yul\":17538:17546   */\n      0x00\n        /* \"#utility.yul\":17588:17593   */\n      dup3\n        /* \"#utility.yul\":17582:17586   */\n      dup3\n        /* \"#utility.yul\":17578:17594   */\n      shl\n        /* \"#utility.yul\":17557:17594   */\n      swap1\n      pop\n        /* \"#utility.yul\":17494:17601   */\n      swap3\n      swap2\n      pop\n      pop\n      jump\t// out\n        /* \"#utility.yul\":17607:18000   */\n    tag_269:\n        /* \"#utility.yul\":17676:17682   */\n      0x00\n        /* \"#utility.yul\":17726:17727   */\n      0x08\n        /* \"#utility.yul\":17714:17724   */\n      dup4\n        /* \"#utility.yul\":17710:17728   */\n      mul\n        /* \"#utility.yul\":17749:17846   */\n      tag_450\n        /* \"#utility.yul\":17779:17845   */\n      0xffffffffffffffffffffffffffffffffffffffffffffffffffffffffffffffff\n        /* \"#utility.yul\":17768:17777   */\n      dup3\n        /* \"#utility.yul\":17749:17846   */\n      tag_268\n      jump\t// in\n    tag_450:\n        /* \"#utility.yul\":17867:17906   */\n      tag_451\n        /* \"#utility.yul\":17897:17905   */\n      dup7\n        /* \"#utility.yul\":17886:17895   */\n      dup4\n        /* \"#utility.yul\":17867:17906   */\n      tag_268\n      jump\t// in\n    tag_451:\n        /* \"#utility.yul\":17855:17906   */\n      swap6\n      pop\n        /* \"#utility.yul\":17939:17943   */\n      dup1\n        /* \"#utility.yul\":17935:17944   */\n      not\n        /* \"#utility.yul\":17928:17933   */\n      dup5\n        /* \"#utility.yul\":17924:17945   */\n      and\n        /* \"#utility.yul\":17915:17945   */\n      swap4\n      pop\n        /* \"#utility.yul\":17988:17992   */\n      dup1\n        /* \"#utility.yul\":17978:17986   */\n      dup7\n        /* \"#utility.yul\":17974:17993   */\n      and\n        /* \"#utility.yul\":17967:17972   */\n      dup5\n        /* \"#utility.yul\":17964:17994   */\n      or\n        /* \"#utility.yul\":17954:17994   */\n      swap3\n      pop\n        /* \"#utility.yul\":17683:18000   */\n      pop\n      pop\n        /* \"#utility.yul\":17607:18000   */\n      swap4\n      swap3\n      pop\n      pop\n      pop\n      jump\t// out\n        /* \"#utility.yul\":18006:18066   */\n    tag_270:\n        /* \"#utility.yul\":18034:18037   */\n      0x00\n        /* \"#utility.yul\":18055:18060   */\n      dup2\n        /* \"#utility.yul\":18048:18060   */\n      swap1\n      pop\n        /* \"#utility.yul\":18006:18066   */\n      swap2\n      swap1\n      pop\n      jump\t// out\n        /* \"#utility.yul\":18072:18214   */\n    tag_271:\n        /* \"#utility.yul\":18122:18131   */\n      0x00\n        /* \"#utility.yul\":18155:18208   */\n      tag_454\n        /* \"#utility.yul\":18173:18207   */\n      tag_455\n        /* \"#utility.yul\":18182:18206   */\n      tag_456\n        /* \"#utility.yul\":18200:18205   */\n      dup5\n        /* \"#utility.yul\":18182:18206   */\n      tag_221\n      jump\t// in\n    tag_456:\n        /* \"#utility.yul\":18173:18207   */\n      tag_270\n      jump\t// in\n    tag_455:\n        /* \"#utility.yul\":18155:18208   */\n      tag_221\n      jump\t// in\n    tag_454:\n        /* \"#utility.yul\":18142:18208   */\n      swap1\n      pop\n        /* \"#utility.yul\":18072:18214   */\n      swap2\n      swap1\n      pop\n      jump\t// out\n        /* \"#utility.yul\":18220:18295   */\n    tag_272:\n        /* \"#utility.yul\":18263:18266   */\n      0x00\n        /* \"#utility.yul\":18284:18289   */\n      dup2\n        /* \"#utility.yul\":18277:18289   */\n      swap1\n      pop\n        /* \"#utility.yul\":18220:18295   */\n      swap2\n      swap1\n      pop\n      jump\t// out\n        /* \"#utility.yul\":18301:18570   */\n    tag_273:\n        /* \"#utility.yul\":18411:18450   */\n      tag_459\n        /* \"#utility.yul\":18442:18449   */\n      dup4\n        /* \"#utility.yul\":18411:18450   */\n      tag_271\n      jump\t// in\n    tag_459:\n        /* \"#utility.yul\":18472:18563   */\n      tag_460\n        /* \"#utility.yul\":18521:18562   */\n      tag_461\n        /* \"#utility.yul\":18545:18561   */\n      dup3\n        /* \"#utility.yul\":18521:18562   */\n      tag_272\n      jump\t// in\n    tag_461:\n        /* \"#utility.yul\":18513:18519   */\n      dup5\n        /* \"#utility.yul\":18506:18510   */\n      dup5\n        /* \"#utility.yul\":18500:18511   */\n      sload\n        /* \"#utility.yul\":18472:18563   */\n      tag_269\n      jump\t// in\n    tag_460:\n        /* \"#utility.yul\":18466:18470   */\n      dup3\n        /* \"#utility.yul\":18459:18564   */\n      sstore\n        /* \"#utility.yul\":18377:18570   */\n      pop\n        /* \"#utility.yul\":18301:18570   */\n      pop\n      pop\n      pop\n      jump\t// out\n        /* \"#utility.yul\":18576:18649   */\n    tag_274:\n        /* \"#utility.yul\":18621:18624   */\n      0x00\n        /* \"#utility.yul\":18576:18649   */\n      swap1\n      jump\t// out\n        /* \"#utility.yul\":18655:18844   */\n    tag_275:\n        /* \"#utility.yul\":18732:18764   */\n      tag_464\n      tag_274\n      jump\t// in\n    tag_464:\n        /* \"#utility.yul\":18773:18838   */\n      tag_465\n        /* \"#utility.yul\":18831:18837   */\n      dup2\n        /* \"#utility.yul\":18823:18829   */\n      dup5\n        /* \"#utility.yul\":18817:18821   */\n      dup5\n        /* \"#utility.yul\":18773:18838   */\n      tag_273\n      jump\t// in\n    tag_465:\n        /* \"#utility.yul\":18708:18844   */\n      pop\n        /* \"#utility.yul\":18655:18844   */\n      pop\n      pop\n      jump\t// out\n        /* \"#utility.yul\":18850:19036   */\n    tag_276:\n        /* \"#utility.yul\":18910:19030   */\n    tag_467:\n        /* \"#utility.yul\":18927:18930   */\n      dup2\n        /* \"#utility.yul\":18920:18925   */\n      dup2\n        /* \"#utility.yul\":18917:18931   */\n      lt\n        /* \"#utility.yul\":18910:19030   */\n      iszero\n      tag_469\n      jumpi\n        /* \"#utility.yul\":18981:19020   */\n      tag_470\n        /* \"#utility.yul\":19018:19019   */\n      0x00\n        /* \"#utility.yul\":19011:19016   */\n      dup3\n        /* \"#utility.yul\":18981:19020   */\n      tag_275\n      jump\t// in\n    tag_470:\n        /* \"#utility.yul\":18954:18955   */\n      0x01\n        /* \"#utility.yul\":18947:18952   */\n      dup2\n        /* \"#utility.yul\":18943:18956   */\n      add\n        /* \"#utility.yul\":18934:18956   */\n      swap1\n      pop\n        /* \"#utility.yul\":18910:19030   */\n      jump(tag_467)\n    tag_469:\n        /* \"#utility.yul\":18850:19036   */\n      pop\n      pop\n      jump\t// out\n        /* \"#utility.yul\":19042:19583   */\n    tag_277:\n        /* \"#utility.yul\":19142:19144   */\n      0x1f\n        /* \"#utility.yul\":19137:19140   */\n      dup3\n        /* \"#utility.yul\":19134:19145   */\n      gt\n        /* \"#utility.yul\":19131:19576   */\n      iszero\n      tag_472\n      jumpi\n        /* \"#utility.yul\":19176:19213   */\n      tag_473\n        /* \"#utility.yul\":19207:19212   */\n      dup2\n        /* \"#utility.yul\":19176:19213   */\n      tag_266\n      jump\t// in\n    tag_473:\n        /* \"#utility.yul\":19259:19288   */\n      tag_474\n        /* \"#utility.yul\":19277:19287   */\n      dup5\n        /* \"#utility.yul\":19259:19288   */\n      tag_267\n      jump\t// in\n    tag_474:\n        /* \"#utility.yul\":19249:19257   */\n      dup2\n        /* \"#utility.yul\":19245:19289   */\n      add\n        /* \"#utility.yul\":19442:19444   */\n      0x20\n        /* \"#utility.yul\":19430:19440   */\n      dup6\n        /* \"#utility.yul\":19427:19445   */\n      lt\n        /* \"#utility.yul\":19424:19473   */\n      iszero\n      tag_475\n      jumpi\n        /* \"#utility.yul\":19463:19471   */\n      dup2\n        /* \"#utility.yul\":19448:19471   */\n      swap1\n      pop\n        /* \"#utility.yul\":19424:19473   */\n    tag_475:\n        /* \"#utility.yul\":19486:19566   */\n      tag_476\n        /* \"#utility.yul\":19542:19564   */\n      tag_477\n        /* \"#utility.yul\":19560:19563   */\n      dup6\n        /* \"#utility.yul\":19542:19564   */\n      tag_267\n      jump\t// in\n    tag_477:\n        /* \"#utility.yul\":19532:19540   */\n      dup4\n        /* \"#utility.yul\":19528:19565   */\n      add\n        /* \"#utility.yul\":19515:19526   */\n      dup3\n        /* \"#utility.yul\":19486:19566   */\n      tag_276\n      jump\t// in\n    tag_476:\n        /* \"#utility.yul\":19146:19576   */\n      pop\n      pop\n        /* \"#utility.yul\":19131:19576   */\n    tag_472:\n        /* \"#utility.yul\":19042:19583   */\n      pop\n      pop\n      pop\n      jump\t// out\n        /* \"#utility.yul\":19589:19706   */\n    tag_278:\n        /* \"#utility.yul\":19643:19651   */\n      0x00\n        /* \"#utility.yul\":19693:19698   */\n      dup3\n        /* \"#utility.yul\":19687:19691   */\n      dup3\n        /* \"#utility.yul\":19683:19699   */\n      shr\n        /* \"#utility.yul\":19662:19699   */\n      swap1\n      pop\n        /* \"#utility.yul\":19589:19706   */\n      swap3\n      swap2\n      pop\n      pop\n      jump\t// out\n        /* \"#utility.yul\":19712:19881   */\n    tag_279:\n        /* \"#utility.yul\":19756:19762   */\n      0x00\n        /* \"#utility.yul\":19789:19840   */\n      tag_480\n        /* \"#utility.yul\":19837:19838   */\n      0x00\n        /* \"#utility.yul\":19833:19839   */\n      not\n        /* \"#utility.yul\":19825:19830   */\n      dup5\n        /* \"#utility.yul\":19822:19823   */\n      0x08\n        /* \"#utility.yul\":19818:19831   */\n      mul\n        /* \"#utility.yul\":19789:19840   */\n      tag_278\n      jump\t// in\n    tag_480:\n        /* \"#utility.yul\":19785:19841   */\n      not\n        /* \"#utility.yul\":19870:19874   */\n      dup1\n        /* \"#utility.yul\":19864:19868   */\n      dup4\n        /* \"#utility.yul\":19860:19875   */\n      and\n        /* \"#utility.yul\":19850:19875   */\n      swap2\n      pop\n        /* \"#utility.yul\":19763:19881   */\n      pop\n        /* \"#utility.yul\":19712:19881   */\n      swap3\n      swap2\n      pop\n      pop\n      jump\t// out\n        /* \"#utility.yul\":19886:20181   */\n    tag_280:\n        /* \"#utility.yul\":19962:19966   */\n      0x00\n        /* \"#utility.yul\":20108:20137   */\n      tag_482\n        /* \"#utility.yul\":20133:20136   */\n      dup4\n        /* \"#utility.yul\":20127:20131   */\n      dup4\n        /* \"#utility.yul\":20108:20137   */\n      tag_279\n      jump\t// in\n    tag_482:\n        /* \"#utility.yul\":20100:20137   */\n      swap2\n      pop\n        /* \"#utility.yul\":20170:20173   */\n      dup3\n        /* \"#utility.yul\":20167:20168   */\n      0x02\n        /* \"#utility.yul\":20163:20174   */\n      mul\n        /* \"#utility.yul\":20157:20161   */\n      dup3\n        /* \"#utility.yul\":20154:20175   */\n      or\n        /* \"#utility.yul\":20146:20175   */\n      swap1\n      pop\n        /* \"#utility.yul\":19886:20181   */\n      swap3\n      swap2\n      pop\n      pop\n      jump\t// out\n        /* \"#utility.yul\":20186:21576   */\n    tag_165:\n        /* \"#utility.yul\":20301:20337   */\n      tag_484\n        /* \"#utility.yul\":20333:20336   */\n      dup3\n        /* \"#utility.yul\":20301:20337   */\n      tag_232\n      jump\t// in\n    tag_484:\n        /* \"#utility.yul\":20402:20420   */\n      0xffffffffffffffff\n        /* \"#utility.yul\":20394:20400   */\n      dup2\n        /* \"#utility.yul\":20391:20421   */\n      gt\n        /* \"#utility.yul\":20388:20444   */\n      iszero\n      tag_485\n      jumpi\n        /* \"#utility.yul\":20424:20442   */\n      tag_486\n      tag_265\n      jump\t// in\n    tag_486:\n        /* \"#utility.yul\":20388:20444   */\n    tag_485:\n        /* \"#utility.yul\":20468:20506   */\n      tag_487\n        /* \"#utility.yul\":20500:20504   */\n      dup3\n        /* \"#utility.yul\":20494:20505   */\n      sload\n        /* \"#utility.yul\":20468:20506   */\n      tag_117\n      jump\t// in\n    tag_487:\n        /* \"#utility.yul\":20553:20619   */\n      tag_488\n        /* \"#utility.yul\":20612:20618   */\n      dup3\n        /* \"#utility.yul\":20604:20610   */\n      dup3\n        /* \"#utility.yul\":20598:20602   */\n      dup6\n        /* \"#utility.yul\":20553:20619   */\n      tag_277\n      jump\t// in\n    tag_488:\n        /* \"#utility.yul\":20646:20647   */\n      0x00\n        /* \"#utility.yul\":20670:20674   */\n      0x20\n        /* \"#utility.yul\":20657:20674   */\n      swap1\n      pop\n        /* \"#utility.yul\":20702:20704   */\n      0x1f\n        /* \"#utility.yul\":20694:20700   */\n      dup4\n        /* \"#utility.yul\":20691:20705   */\n      gt\n        /* \"#utility.yul\":20719:20720   */\n      0x01\n        /* \"#utility.yul\":20714:21331   */\n      dup2\n      eq\n      tag_490\n      jumpi\n        /* \"#utility.yul\":21375:21376   */\n      0x00\n        /* \"#utility.yul\":21392:21398   */\n      dup5\n        /* \"#utility.yul\":21389:21466   */\n      iszero\n      tag_491\n      jumpi\n        /* \"#utility.yul\":21441:21450   */\n      dup3\n        /* \"#utility.yul\":21436:21439   */\n      dup8\n        /* \"#utility.yul\":21432:21451   */\n      add\n        /* \"#utility.yul\":21426:21452   */\n      mload\n        /* \"#utility.yul\":21417:21452   */\n      swap1\n      pop\n        /* \"#utility.yul\":21389:21466   */\n    tag_491:\n        /* \"#utility.yul\":21492:21559   */\n      tag_492\n        /* \"#utility.yul\":21552:21558   */\n      dup6\n        /* \"#utility.yul\":21545:21550   */\n      dup3\n        /* \"#utility.yul\":21492:21559   */\n      tag_280\n      jump\t// in\n    tag_492:\n        /* \"#utility.yul\":21486:21490   */\n      dup7\n        /* \"#utility.yul\":21479:21560   */\n      sstore\n        /* \"#utility.yul\":21348:21570   */\n      pop\n        /* \"#utility.yul\":20684:21570   */\n      jump(tag_489)\n        /* \"#utility.yul\":20714:21331   */\n    tag_490:\n        /* \"#utility.yul\":20766:20770   */\n      0x1f\n        /* \"#utility.yul\":20762:20771   */\n      not\n        /* \"#utility.yul\":20754:20760   */\n      dup5\n        /* \"#utility.yul\":20750:20772   */\n      and\n        /* \"#utility.yul\":20800:20836   */\n      tag_493\n        /* \"#utility.yul\":20831:20835   */\n      dup7\n        /* \"#utility.yul\":20800:20836   */\n      tag_266\n      jump\t// in\n    tag_493:\n        /* \"#utility.yul\":20858:20859   */\n      0x00\n        /* \"#utility.yul\":20872:21080   */\n    tag_494:\n        /* \"#utility.yul\":20886:20893   */\n      dup3\n        /* \"#utility.yul\":20883:20884   */\n      dup2\n        /* \"#utility.yul\":20880:20894   */\n      lt\n        /* \"#utility.yul\":20872:21080   */\n      iszero\n      tag_496\n      jumpi\n        /* \"#utility.yul\":20965:20974   */\n      dup5\n        /* \"#utility.yul\":20960:20963   */\n      dup10\n        /* \"#utility.yul\":20956:20975   */\n      add\n        /* \"#utility.yul\":20950:20976   */\n      mload\n        /* \"#utility.yul\":20942:20948   */\n      dup3\n        /* \"#utility.yul\":20935:20977   */\n      sstore\n        /* \"#utility.yul\":21016:21017   */\n      0x01\n        /* \"#utility.yul\":21008:21014   */\n      dup3\n        /* \"#utility.yul\":21004:21018   */\n      add\n        /* \"#utility.yul\":20994:21018   */\n      swap2\n      pop\n        /* \"#utility.yul\":21063:21065   */\n      0x20\n        /* \"#utility.yul\":21052:21061   */\n      dup6\n        /* \"#utility.yul\":21048:21066   */\n      add\n        /* \"#utility.yul\":21035:21066   */\n      swap5\n      pop\n        /* \"#utility.yul\":20909:20913   */\n      0x20\n        /* \"#utility.yul\":20906:20907   */\n      dup2\n        /* \"#utility.yul\":20902:20914   */\n      add\n        /* \"#utility.yul\":20897:20914   */\n      swap1\n      pop\n        /* \"#utility.yul\":20872:21080   */\n      jump(tag_494)\n    tag_496:\n        /* \"#utility.yul\":21108:21114   */\n      dup7\n        /* \"#utility.yul\":21099:21106   */\n      dup4\n        /* \"#utility.yul\":21096:21115   */\n      lt\n        /* \"#utility.yul\":21093:21272   */\n      iszero\n      tag_497\n      jumpi\n        /* \"#utility.yul\":21166:21175   */\n      dup5\n        /* \"#utility.yul\":21161:21164   */\n      dup10\n        /* \"#utility.yul\":21157:21176   */\n      add\n        /* \"#utility.yul\":21151:21177   */\n      mload\n        /* \"#utility.yul\":21209:21257   */\n      tag_498\n        /* \"#utility.yul\":21251:21255   */\n      0x1f\n        /* \"#utility.yul\":21243:21249   */\n      dup10\n        /* \"#utility.yul\":21239:21256   */\n      and\n        /* \"#utility.yul\":21228:21237   */\n      dup3\n        /* \"#utility.yul\":21209:21257   */\n      tag_279\n      jump\t// in\n    tag_498:\n        /* \"#utility.yul\":21201:21207   */\n      dup4\n        /* \"#utility.yul\":21194:21258   */\n      sstore\n        /* \"#utility.yul\":21116:21272   */\n      pop\n        /* \"#utility.yul\":21093:21272   */\n    tag_497:\n        /* \"#utility.yul\":21318:21319   */\n      0x01\n        /* \"#utility.yul\":21314:21315   */\n      0x02\n        /* \"#utility.yul\":21306:21312   */\n      dup9\n        /* \"#utility.yul\":21302:21316   */\n      mul\n        /* \"#utility.yul\":21298:21320   */\n      add\n        /* \"#utility.yul\":21292:21296   */\n      dup9\n        /* \"#utility.yul\":21285:21321   */\n      sstore\n        /* \"#utility.yul\":20721:21331   */\n      pop\n      pop\n      pop\n        /* \"#utility.yul\":20684:21570   */\n    tag_489:\n      pop\n        /* \"#utility.yul\":20276:21576   */\n      pop\n      pop\n      pop\n        /* \"#utility.yul\":20186:21576   */\n      pop\n      pop\n      jump\t// out\n        /* \"#utility.yul\":21582:21730   */\n    tag_281:\n        /* \"#utility.yul\":21680:21686   */\n      dup3\n        /* \"#utility.yul\":21675:21678   */\n      dup2\n        /* \"#utility.yul\":21670:21673   */\n      dup4\n        /* \"#utility.yul\":21657:21687   */\n      calldatacopy\n        /* \"#utility.yul\":21721:21722   */\n      0x00\n        /* \"#utility.yul\":21712:21718   */\n      dup4\n        /* \"#utility.yul\":21707:21710   */\n      dup4\n        /* \"#utility.yul\":21703:21719   */\n      add\n        /* \"#utility.yul\":21696:21723   */\n      mstore\n        /* \"#utility.yul\":21582:21730   */\n      pop\n      pop\n      pop\n      jump\t// out\n        /* \"#utility.yul\":21758:22072   */\n    tag_282:\n        /* \"#utility.yul\":21854:21857   */\n      0x00\n        /* \"#utility.yul\":21875:21945   */\n      tag_501\n        /* \"#utility.yul\":21938:21944   */\n      dup4\n        /* \"#utility.yul\":21933:21936   */\n      dup6\n        /* \"#utility.yul\":21875:21945   */\n      tag_233\n      jump\t// in\n    tag_501:\n        /* \"#utility.yul\":21868:21945   */\n      swap4\n      pop\n        /* \"#utility.yul\":21955:22011   */\n      tag_502\n        /* \"#utility.yul\":22004:22010   */\n      dup4\n        /* \"#utility.yul\":21999:22002   */\n      dup6\n        /* \"#utility.yul\":21992:21997   */\n      dup5\n        /* \"#utility.yul\":21955:22011   */\n      tag_281\n      jump\t// in\n    tag_502:\n        /* \"#utility.yul\":22036:22065   */\n      tag_503\n        /* \"#utility.yul\":22058:22064   */\n      dup4\n        /* \"#utility.yul\":22036:22065   */\n      tag_235\n      jump\t// in\n    tag_503:\n        /* \"#utility.yul\":22031:22034   */\n      dup5\n        /* \"#utility.yul\":22027:22066   */\n      add\n        /* \"#utility.yul\":22020:22066   */\n      swap1\n      pop\n        /* \"#utility.yul\":21758:22072   */\n      swap4\n      swap3\n      pop\n      pop\n      pop\n      jump\t// out\n        /* \"#utility.yul\":22078:22627   */\n    tag_167:\n        /* \"#utility.yul\":22255:22259   */\n      0x00\n        /* \"#utility.yul\":22293:22295   */\n      0x60\n        /* \"#utility.yul\":22282:22291   */\n      dup3\n        /* \"#utility.yul\":22278:22296   */\n      add\n        /* \"#utility.yul\":22270:22296   */\n      swap1\n      pop\n        /* \"#utility.yul\":22306:22377   */\n      tag_505\n        /* \"#utility.yul\":22374:22375   */\n      0x00\n        /* \"#utility.yul\":22363:22372   */\n      dup4\n        /* \"#utility.yul\":22359:22376   */\n      add\n        /* \"#utility.yul\":22350:22356   */\n      dup8\n        /* \"#utility.yul\":22306:22377   */\n      tag_226\n      jump\t// in\n    tag_505:\n        /* \"#utility.yul\":22387:22459   */\n      tag_506\n        /* \"#utility.yul\":22455:22457   */\n      0x20\n        /* \"#utility.yul\":22444:22453   */\n      dup4\n        /* \"#utility.yul\":22440:22458   */\n      add\n        /* \"#utility.yul\":22431:22437   */\n      dup7\n        /* \"#utility.yul\":22387:22459   */\n      tag_227\n      jump\t// in\n    tag_506:\n        /* \"#utility.yul\":22506:22515   */\n      dup2\n        /* \"#utility.yul\":22500:22504   */\n      dup2\n        /* \"#utility.yul\":22496:22516   */\n      sub\n        /* \"#utility.yul\":22491:22493   */\n      0x40\n        /* \"#utility.yul\":22480:22489   */\n      dup4\n        /* \"#utility.yul\":22476:22494   */\n      add\n        /* \"#utility.yul\":22469:22517   */\n      mstore\n        /* \"#utility.yul\":22534:22620   */\n      tag_507\n        /* \"#utility.yul\":22615:22619   */\n      dup2\n        /* \"#utility.yul\":22606:22612   */\n      dup5\n        /* \"#utility.yul\":22598:22604   */\n      dup7\n        /* \"#utility.yul\":22534:22620   */\n      tag_282\n      jump\t// in\n    tag_507:\n        /* \"#utility.yul\":22526:22620   */\n      swap1\n      pop\n        /* \"#utility.yul\":22078:22627   */\n      swap6\n      swap5\n      pop\n      pop\n      pop\n      pop\n      pop\n      jump\t// out\n        /* \"#utility.yul\":22633:22800   */\n    tag_283:\n        /* \"#utility.yul\":22773:22792   */\n      0x496e76616c6964207468726573686f6c64000000000000000000000000000000\n        /* \"#utility.yul\":22769:22770   */\n      0x00\n        /* \"#utility.yul\":22761:22767   */\n      dup3\n        /* \"#utility.yul\":22757:22771   */\n      add\n        /* \"#utility.yul\":22750:22793   */\n      mstore\n        /* \"#utility.yul\":22633:22800   */\n      pop\n      jump\t// out\n        /* \"#utility.yul\":22806:23172   */\n    tag_284:\n        /* \"#utility.yul\":22948:22951   */\n      0x00\n        /* \"#utility.yul\":22969:23036   */\n      tag_510\n        /* \"#utility.yul\":23033:23035   */\n      0x11\n        /* \"#utility.yul\":23028:23031   */\n      dup4\n        /* \"#utility.yul\":22969:23036   */\n      tag_248\n      jump\t// in\n    tag_510:\n        /* \"#utility.yul\":22962:23036   */\n      swap2\n      pop\n        /* \"#utility.yul\":23045:23138   */\n      tag_511\n        /* \"#utility.yul\":23134:23137   */\n      dup3\n        /* \"#utility.yul\":23045:23138   */\n      tag_283\n      jump\t// in\n    tag_511:\n        /* \"#utility.yul\":23163:23165   */\n      0x20\n        /* \"#utility.yul\":23158:23161   */\n      dup3\n        /* \"#utility.yul\":23154:23166   */\n      add\n        /* \"#utility.yul\":23147:23166   */\n      swap1\n      pop\n        /* \"#utility.yul\":22806:23172   */\n      swap2\n      swap1\n      pop\n      jump\t// out\n        /* \"#utility.yul\":23178:23597   */\n    tag_175:\n        /* \"#utility.yul\":23344:23348   */\n      0x00\n        /* \"#utility.yul\":23382:23384   */\n      0x20\n        /* \"#utility.yul\":23371:23380   */\n      dup3\n        /* \"#utility.yul\":23367:23385   */\n      add\n        /* \"#utility.yul\":23359:23385   */\n      swap1\n      pop\n        /* \"#utility.yul\":23431:23440   */\n      dup2\n        /* \"#utility.yul\":23425:23429   */\n      dup2\n        /* \"#utility.yul\":23421:23441   */\n      sub\n        /* \"#utility.yul\":23417:23418   */\n      0x00\n        /* \"#utility.yul\":23406:23415   */\n      dup4\n        /* \"#utility.yul\":23402:23419   */\n      add\n        /* \"#utility.yul\":23395:23442   */\n      mstore\n        /* \"#utility.yul\":23459:23590   */\n      tag_513\n        /* \"#utility.yul\":23585:23589   */\n      dup2\n        /* \"#utility.yul\":23459:23590   */\n      tag_284\n      jump\t// in\n    tag_513:\n        /* \"#utility.yul\":23451:23590   */\n      swap1\n      pop\n        /* \"#utility.yul\":23178:23597   */\n      swap2\n      swap1\n      pop\n      jump\t// out\n        /* \"#utility.yul\":23603:23777   */\n    tag_285:\n        /* \"#utility.yul\":23743:23769   */\n      0x4e6f7420656e6f75676820636f6e6669726d6174696f6e730000000000000000\n        /* \"#utility.yul\":23739:23740   */\n      0x00\n        /* \"#utility.yul\":23731:23737   */\n      dup3\n        /* \"#utility.yul\":23727:23741   */\n      add\n        /* \"#utility.yul\":23720:23770   */\n      mstore\n        /* \"#utility.yul\":23603:23777   */\n      pop\n      jump\t// out\n        /* \"#utility.yul\":23783:24149   */\n    tag_286:\n        /* \"#utility.yul\":23925:23928   */\n      0x00\n        /* \"#utility.yul\":23946:24013   */\n      tag_516\n        /* \"#utility.yul\":24010:24012   */\n      0x18\n        /* \"#utility.yul\":24005:24008   */\n      dup4\n        /* \"#utility.yul\":23946:24013   */\n      tag_248\n      jump\t// in\n    tag_516:\n        /* \"#utility.yul\":23939:24013   */\n      swap2\n      pop\n        /* \"#utility.yul\":24022:24115   */\n      tag_517\n        /* \"#utility.yul\":24111:24114   */\n      dup3\n        /* \"#utility.yul\":24022:24115   */\n      tag_285\n      jump\t// in\n    tag_517:\n        /* \"#utility.yul\":24140:24142   */\n      0x20\n        /* \"#utility.yul\":24135:24138   */\n      dup3\n        /* \"#utility.yul\":24131:24143   */\n      add\n        /* \"#utility.yul\":24124:24143   */\n      swap1\n      pop\n        /* \"#utility.yul\":23783:24149   */\n      swap2\n      swap1\n      pop\n      jump\t// out\n        /* \"#utility.yul\":24155:24574   */\n    tag_198:\n        /* \"#utility.yul\":24321:24325   */\n      0x00\n        /* \"#utility.yul\":24359:24361   */\n      0x20\n        /* \"#utility.yul\":24348:24357   */\n      dup3\n        /* \"#utility.yul\":24344:24362   */\n      add\n        /* \"#utility.yul\":24336:24362   */\n      swap1\n      pop\n        /* \"#utility.yul\":24408:24417   */\n      dup2\n        /* \"#utility.yul\":24402:24406   */\n      dup2\n        /* \"#utility.yul\":24398:24418   */\n      sub\n        /* \"#utility.yul\":24394:24395   */\n      0x00\n        /* \"#utility.yul\":24383:24392   */\n      dup4\n        /* \"#utility.yul\":24379:24396   */\n      add\n        /* \"#utility.yul\":24372:24419   */\n      mstore\n        /* \"#utility.yul\":24436:24567   */\n      tag_519\n        /* \"#utility.yul\":24562:24566   */\n      dup2\n        /* \"#utility.yul\":24436:24567   */\n      tag_286\n      jump\t// in\n    tag_519:\n        /* \"#utility.yul\":24428:24567   */\n      swap1\n      pop\n        /* \"#utility.yul\":24155:24574   */\n      swap2\n      swap1\n      pop\n      jump\t// out\n        /* \"#utility.yul\":24580:24727   */\n    tag_287:\n        /* \"#utility.yul\":24681:24692   */\n      0x00\n        /* \"#utility.yul\":24718:24721   */\n      dup2\n        /* \"#utility.yul\":24703:24721   */\n      swap1\n      pop\n        /* \"#utility.yul\":24580:24727   */\n      swap3\n      swap2\n      pop\n      pop\n      jump\t// out\n        /* \"#utility.yul\":24755:25625   */\n    tag_288:\n        /* \"#utility.yul\":24856:24859   */\n      0x00\n        /* \"#utility.yul\":24893:24898   */\n      dup2\n        /* \"#utility.yul\":24887:24899   */\n      sload\n        /* \"#utility.yul\":24922:24958   */\n      tag_522\n        /* \"#utility.yul\":24948:24957   */\n      dup2\n        /* \"#utility.yul\":24922:24958   */\n      tag_117\n      jump\t// in\n    tag_522:\n        /* \"#utility.yul\":24974:25062   */\n      tag_523\n        /* \"#utility.yul\":25055:25061   */\n      dup2\n        /* \"#utility.yul\":25050:25053   */\n      dup7\n        /* \"#utility.yul\":24974:25062   */\n      tag_287\n      jump\t// in\n    tag_523:\n        /* \"#utility.yul\":24967:25062   */\n      swap5\n      pop\n        /* \"#utility.yul\":25093:25094   */\n      0x01\n        /* \"#utility.yul\":25082:25091   */\n      dup3\n        /* \"#utility.yul\":25078:25095   */\n      and\n        /* \"#utility.yul\":25109:25110   */\n      0x00\n        /* \"#utility.yul\":25104:25270   */\n      dup2\n      eq\n      tag_525\n      jumpi\n        /* \"#utility.yul\":25284:25285   */\n      0x01\n        /* \"#utility.yul\":25279:25619   */\n      dup2\n      eq\n      tag_526\n      jumpi\n        /* \"#utility.yul\":25071:25619   */\n      jump(tag_524)\n        /* \"#utility.yul\":25104:25270   */\n    tag_525:\n        /* \"#utility.yul\":25188:25192   */\n      0xff\n        /* \"#utility.yul\":25184:25193   */\n      not\n        /* \"#utility.yul\":25173:25182   */\n      dup4\n        /* \"#utility.yul\":25169:25194   */\n      and\n        /* \"#utility.yul\":25164:25167   */\n      dup7\n        /* \"#utility.yul\":25157:25195   */\n      mstore\n        /* \"#utility.yul\":25250:25256   */\n      dup2\n        /* \"#utility.yul\":25243:25257   */\n      iszero\n        /* \"#utility.yul\":25236:25258   */\n      iszero\n        /* \"#utility.yul\":25228:25234   */\n      dup3\n        /* \"#utility.yul\":25224:25259   */\n      mul\n        /* \"#utility.yul\":25219:25222   */\n      dup7\n        /* \"#utility.yul\":25215:25260   */\n      add\n        /* \"#utility.yul\":25208:25260   */\n      swap4\n      pop\n        /* \"#utility.yul\":25104:25270   */\n      jump(tag_524)\n        /* \"#utility.yul\":25279:25619   */\n    tag_526:\n        /* \"#utility.yul\":25346:25383   */\n      tag_527\n        /* \"#utility.yul\":25377:25382   */\n      dup6\n        /* \"#utility.yul\":25346:25383   */\n      tag_266\n      jump\t// in\n    tag_527:\n        /* \"#utility.yul\":25405:25406   */\n      0x00\n        /* \"#utility.yul\":25419:25573   */\n    tag_528:\n        /* \"#utility.yul\":25433:25439   */\n      dup4\n        /* \"#utility.yul\":25430:25431   */\n      dup2\n        /* \"#utility.yul\":25427:25440   */\n      lt\n        /* \"#utility.yul\":25419:25573   */\n      iszero\n      tag_530\n      jumpi\n        /* \"#utility.yul\":25507:25514   */\n      dup2\n        /* \"#utility.yul\":25501:25515   */\n      sload\n        /* \"#utility.yul\":25497:25498   */\n      dup2\n        /* \"#utility.yul\":25492:25495   */\n      dup10\n        /* \"#utility.yul\":25488:25499   */\n      add\n        /* \"#utility.yul\":25481:25516   */\n      mstore\n        /* \"#utility.yul\":25557:25558   */\n      0x01\n        /* \"#utility.yul\":25548:25555   */\n      dup3\n        /* \"#utility.yul\":25544:25559   */\n      add\n        /* \"#utility.yul\":25533:25559   */\n      swap2\n      pop\n        /* \"#utility.yul\":25455:25459   */\n      0x20\n        /* \"#utility.yul\":25452:25453   */\n      dup2\n        /* \"#utility.yul\":25448:25460   */\n      add\n        /* \"#utility.yul\":25443:25460   */\n      swap1\n      pop\n        /* \"#utility.yul\":25419:25573   */\n      jump(tag_528)\n    tag_530:\n        /* \"#utility.yul\":25602:25608   */\n      dup4\n        /* \"#utility.yul\":25597:25600   */\n      dup9\n        /* \"#utility.yul\":25593:25609   */\n      add\n        /* \"#utility.yul\":25586:25609   */\n      swap6\n      pop\n        /* \"#utility.yul\":25286:25619   */\n      pop\n      pop\n        /* \"#utility.yul\":25071:25619   */\n    tag_524:\n      pop\n        /* \"#utility.yul\":24860:25625   */\n      pop\n      pop\n        /* \"#utility.yul\":24755:25625   */\n      swap3\n      swap2\n      pop\n      pop\n      jump\t// out\n        /* \"#utility.yul\":25631:25896   */\n    tag_202:\n        /* \"#utility.yul\":25758:25761   */\n      0x00\n        /* \"#utility.yul\":25780:25870   */\n      tag_532\n        /* \"#utility.yul\":25866:25869   */\n      dup3\n        /* \"#utility.yul\":25857:25863   */\n      dup5\n        /* \"#utility.yul\":25780:25870   */\n      tag_288\n      jump\t// in\n    tag_532:\n        /* \"#utility.yul\":25773:25870   */\n      swap2\n      pop\n        /* \"#utility.yul\":25887:25890   */\n      dup2\n        /* \"#utility.yul\":25880:25890   */\n      swap1\n      pop\n        /* \"#utility.yul\":25631:25896   */\n      swap3\n      swap2\n      pop\n      pop\n      jump\t// out\n        /* \"#utility.yul\":25924:26751   */\n    tag_289:\n        /* \"#utility.yul\":26007:26010   */\n      0x00\n        /* \"#utility.yul\":26044:26049   */\n      dup2\n        /* \"#utility.yul\":26038:26050   */\n      sload\n        /* \"#utility.yul\":26073:26109   */\n      tag_534\n        /* \"#utility.yul\":26099:26108   */\n      dup2\n        /* \"#utility.yul\":26073:26109   */\n      tag_117\n      jump\t// in\n    tag_534:\n        /* \"#utility.yul\":26125:26195   */\n      tag_535\n        /* \"#utility.yul\":26188:26194   */\n      dup2\n        /* \"#utility.yul\":26183:26186   */\n      dup7\n        /* \"#utility.yul\":26125:26195   */\n      tag_233\n      jump\t// in\n    tag_535:\n        /* \"#utility.yul\":26118:26195   */\n      swap5\n      pop\n        /* \"#utility.yul\":26226:26227   */\n      0x01\n        /* \"#utility.yul\":26215:26224   */\n      dup3\n        /* \"#utility.yul\":26211:26228   */\n      and\n        /* \"#utility.yul\":26242:26243   */\n      0x00\n        /* \"#utility.yul\":26237:26401   */\n      dup2\n      eq\n      tag_537\n      jumpi\n        /* \"#utility.yul\":26415:26416   */\n      0x01\n        /* \"#utility.yul\":26410:26745   */\n      dup2\n      eq\n      tag_538\n      jumpi\n        /* \"#utility.yul\":26204:26745   */\n      jump(tag_536)\n        /* \"#utility.yul\":26237:26401   */\n    tag_537:\n        /* \"#utility.yul\":26321:26325   */\n      0xff\n        /* \"#utility.yul\":26317:26326   */\n      not\n        /* \"#utility.yul\":26306:26315   */\n      dup4\n        /* \"#utility.yul\":26302:26327   */\n      and\n        /* \"#utility.yul\":26297:26300   */\n      dup7\n        /* \"#utility.yul\":26290:26328   */\n      mstore\n        /* \"#utility.yul\":26381:26387   */\n      dup2\n        /* \"#utility.yul\":26374:26388   */\n      iszero\n        /* \"#utility.yul\":26367:26389   */\n      iszero\n        /* \"#utility.yul\":26361:26365   */\n      0x20\n        /* \"#utility.yul\":26357:26390   */\n      mul\n        /* \"#utility.yul\":26352:26355   */\n      dup7\n        /* \"#utility.yul\":26348:26391   */\n      add\n        /* \"#utility.yul\":26341:26391   */\n      swap4\n      pop\n        /* \"#utility.yul\":26237:26401   */\n      jump(tag_536)\n        /* \"#utility.yul\":26410:26745   */\n    tag_538:\n        /* \"#utility.yul\":26477:26514   */\n      tag_539\n        /* \"#utility.yul\":26508:26513   */\n      dup6\n        /* \"#utility.yul\":26477:26514   */\n      tag_266\n      jump\t// in\n    tag_539:\n        /* \"#utility.yul\":26536:26537   */\n      0x00\n        /* \"#utility.yul\":26550:26704   */\n    tag_540:\n        /* \"#utility.yul\":26564:26570   */\n      dup4\n        /* \"#utility.yul\":26561:26562   */\n      dup2\n        /* \"#utility.yul\":26558:26571   */\n      lt\n        /* \"#utility.yul\":26550:26704   */\n      iszero\n      tag_542\n      jumpi\n        /* \"#utility.yul\":26638:26645   */\n      dup2\n        /* \"#utility.yul\":26632:26646   */\n      sload\n        /* \"#utility.yul\":26628:26629   */\n      dup2\n        /* \"#utility.yul\":26623:26626   */\n      dup10\n        /* \"#utility.yul\":26619:26630   */\n      add\n        /* \"#utility.yul\":26612:26647   */\n      mstore\n        /* \"#utility.yul\":26688:26689   */\n      0x01\n        /* \"#utility.yul\":26679:26686   */\n      dup3\n        /* \"#utility.yul\":26675:26690   */\n      add\n        /* \"#utility.yul\":26664:26690   */\n      swap2\n      pop\n        /* \"#utility.yul\":26586:26590   */\n      0x20\n        /* \"#utility.yul\":26583:26584   */\n      dup2\n        /* \"#utility.yul\":26579:26591   */\n      add\n        /* \"#utility.yul\":26574:26591   */\n      swap1\n      pop\n        /* \"#utility.yul\":26550:26704   */\n      jump(tag_540)\n    tag_542:\n        /* \"#utility.yul\":26733:26734   */\n      dup1\n        /* \"#utility.yul\":26728:26731   */\n      dup9\n        /* \"#utility.yul\":26724:26735   */\n      add\n        /* \"#utility.yul\":26717:26735   */\n      swap6\n      pop\n        /* \"#utility.yul\":26417:26745   */\n      pop\n      pop\n        /* \"#utility.yul\":26204:26745   */\n    tag_536:\n      pop\n        /* \"#utility.yul\":26011:26751   */\n      pop\n      pop\n        /* \"#utility.yul\":25924:26751   */\n      swap3\n      swap2\n      pop\n      pop\n      jump\t// out\n        /* \"#utility.yul\":26757:27170   */\n    tag_208:\n        /* \"#utility.yul\":26893:26897   */\n      0x00\n        /* \"#utility.yul\":26931:26933   */\n      0x40\n        /* \"#utility.yul\":26920:26929   */\n      dup3\n        /* \"#utility.yul\":26916:26934   */\n      add\n        /* \"#utility.yul\":26908:26934   */\n      swap1\n      pop\n        /* \"#utility.yul\":26944:27015   */\n      tag_544\n        /* \"#utility.yul\":27012:27013   */\n      0x00\n        /* \"#utility.yul\":27001:27010   */\n      dup4\n        /* \"#utility.yul\":26997:27014   */\n      add\n        /* \"#utility.yul\":26988:26994   */\n      dup6\n        /* \"#utility.yul\":26944:27015   */\n      tag_227\n      jump\t// in\n    tag_544:\n        /* \"#utility.yul\":27062:27071   */\n      dup2\n        /* \"#utility.yul\":27056:27060   */\n      dup2\n        /* \"#utility.yul\":27052:27072   */\n      sub\n        /* \"#utility.yul\":27047:27049   */\n      0x20\n        /* \"#utility.yul\":27036:27045   */\n      dup4\n        /* \"#utility.yul\":27032:27050   */\n      add\n        /* \"#utility.yul\":27025:27073   */\n      mstore\n        /* \"#utility.yul\":27090:27163   */\n      tag_545\n        /* \"#utility.yul\":27158:27162   */\n      dup2\n        /* \"#utility.yul\":27149:27155   */\n      dup5\n        /* \"#utility.yul\":27090:27163   */\n      tag_289\n      jump\t// in\n    tag_545:\n        /* \"#utility.yul\":27082:27163   */\n      swap1\n      pop\n        /* \"#utility.yul\":26757:27170   */\n      swap4\n      swap3\n      pop\n      pop\n      pop\n      jump\t// out\n        /* \"#utility.yul\":27176:27354   */\n    tag_290:\n        /* \"#utility.yul\":27316:27346   */\n      0x5472616e73616374696f6e20657865637574696f6e206661696c656400000000\n        /* \"#utility.yul\":27312:27313   */\n      0x00\n        /* \"#utility.yul\":27304:27310   */\n      dup3\n        /* \"#utility.yul\":27300:27314   */\n      add\n        /* \"#utility.yul\":27293:27347   */\n      mstore\n        /* \"#utility.yul\":27176:27354   */\n      pop\n      jump\t// out\n        /* \"#utility.yul\":27360:27726   */\n    tag_291:\n        /* \"#utility.yul\":27502:27505   */\n      0x00\n        /* \"#utility.yul\":27523:27590   */\n      tag_548\n        /* \"#utility.yul\":27587:27589   */\n      0x1c\n        /* \"#utility.yul\":27582:27585   */\n      dup4\n        /* \"#utility.yul\":27523:27590   */\n      tag_248\n      jump\t// in\n    tag_548:\n        /* \"#utility.yul\":27516:27590   */\n      swap2\n      pop\n        /* \"#utility.yul\":27599:27692   */\n      tag_549\n        /* \"#utility.yul\":27688:27691   */\n      dup3\n        /* \"#utility.yul\":27599:27692   */\n      tag_290\n      jump\t// in\n    tag_549:\n        /* \"#utility.yul\":27717:27719   */\n      0x20\n        /* \"#utility.yul\":27712:27715   */\n      dup3\n        /* \"#utility.yul\":27708:27720   */\n      add\n        /* \"#utility.yul\":27701:27720   */\n      swap1\n      pop\n        /* \"#utility.yul\":27360:27726   */\n      swap2\n      swap1\n      pop\n      jump\t// out\n        /* \"#utility.yul\":27732:28151   */\n    tag_210:\n        /* \"#utility.yul\":27898:27902   */\n      0x00\n        /* \"#utility.yul\":27936:27938   */\n      0x20\n        /* \"#utility.yul\":27925:27934   */\n      dup3\n        /* \"#utility.yul\":27921:27939   */\n      add\n        /* \"#utility.yul\":27913:27939   */\n      swap1\n      pop\n        /* \"#utility.yul\":27985:27994   */\n      dup2\n        /* \"#utility.yul\":27979:27983   */\n      dup2\n        /* \"#utility.yul\":27975:27995   */\n      sub\n        /* \"#utility.yul\":27971:27972   */\n      0x00\n        /* \"#utility.yul\":27960:27969   */\n      dup4\n        /* \"#utility.yul\":27956:27973   */\n      add\n        /* \"#utility.yul\":27949:27996   */\n      mstore\n        /* \"#utility.yul\":28013:28144   */\n      tag_551\n        /* \"#utility.yul\":28139:28143   */\n      dup2\n        /* \"#utility.yul\":28013:28144   */\n      tag_291\n      jump\t// in\n    tag_551:\n        /* \"#utility.yul\":28005:28144   */\n      swap1\n      pop\n        /* \"#utility.yul\":27732:28151   */\n      swap2\n      swap1\n      pop\n      jump\t// out\n        /* \"#utility.yul\":28157:28338   */\n    tag_292:\n        /* \"#utility.yul\":28297:28330   */\n      0x5265656e7472616e637947756172643a207265656e7472616e742063616c6c00\n        /* \"#utility.yul\":28293:28294   */\n      0x00\n        /* \"#utility.yul\":28285:28291   */\n      dup3\n        /* \"#utility.yul\":28281:28295   */\n      add\n        /* \"#utility.yul\":28274:28331   */\n      mstore\n        /* \"#utility.yul\":28157:28338   */\n      pop\n      jump\t// out\n        /* \"#utility.yul\":28344:28710   */\n    tag_293:\n        /* \"#utility.yul\":28486:28489   */\n      0x00\n        /* \"#utility.yul\":28507:28574   */\n      tag_554\n        /* \"#utility.yul\":28571:28573   */\n      0x1f\n        /* \"#utility.yul\":28566:28569   */\n      dup4\n        /* \"#utility.yul\":28507:28574   */\n      tag_248\n      jump\t// in\n    tag_554:\n        /* \"#utility.yul\":28500:28574   */\n      swap2\n      pop\n        /* \"#utility.yul\":28583:28676   */\n      tag_555\n        /* \"#utility.yul\":28672:28675   */\n      dup3\n        /* \"#utility.yul\":28583:28676   */\n      tag_292\n      jump\t// in\n    tag_555:\n        /* \"#utility.yul\":28701:28703   */\n      0x20\n        /* \"#utility.yul\":28696:28699   */\n      dup3\n        /* \"#utility.yul\":28692:28704   */\n      add\n        /* \"#utility.yul\":28685:28704   */\n      swap1\n      pop\n        /* \"#utility.yul\":28344:28710   */\n      swap2\n      swap1\n      pop\n      jump\t// out\n        /* \"#utility.yul\":28716:29135   */\n    tag_216:\n        /* \"#utility.yul\":28882:28886   */\n      0x00\n        /* \"#utility.yul\":28920:28922   */\n      0x20\n        /* \"#utility.yul\":28909:28918   */\n      dup3\n        /* \"#utility.yul\":28905:28923   */\n      add\n        /* \"#utility.yul\":28897:28923   */\n      swap1\n      pop\n        /* \"#utility.yul\":28969:28978   */\n      dup2\n        /* \"#utility.yul\":28963:28967   */\n      dup2\n        /* \"#utility.yul\":28959:28979   */\n      sub\n        /* \"#utility.yul\":28955:28956   */\n      0x00\n        /* \"#utility.yul\":28944:28953   */\n      dup4\n        /* \"#utility.yul\":28940:28957   */\n      add\n        /* \"#utility.yul\":28933:28980   */\n      mstore\n        /* \"#utility.yul\":28997:29128   */\n      tag_557\n        /* \"#utility.yul\":29123:29127   */\n      dup2\n        /* \"#utility.yul\":28997:29128   */\n      tag_293\n      jump\t// in\n    tag_557:\n        /* \"#utility.yul\":28989:29128   */\n      swap1\n      pop\n        /* \"#utility.yul\":28716:29135   */\n      swap2\n      swap1\n      pop\n      jump\t// out\n\n    auxdata: 0xa2646970667358221220b2e5a665907ed55b519a05cd10bde78c5d40039615fe09097916cc6d74dda43b64736f6c634300081a0033\n}\n",
				"bytecode": {
					"linkReferences": {},
					"object": "6080604052604051612a4d380380612a4d833981810160405281019061002591906104d8565b60015f819055505f82511161006f576040517f08c379a00000000000000000000000000000000000000000000000000000000081526004016100669061058c565b60405180910390fd5b5f8111801561007f575081518111155b6100be576040517f08c379a00000000000000000000000000000000000000000000000000000000081526004016100b5906105f4565b60405180910390fd5b5f5b82518110156102a2575f8382815181106100dd576100dc610612565b5b602002602001015190505f73ffffffffffffffffffffffffffffffffffffffff168173ffffffffffffffffffffffffffffffffffffffff1603610155576040517f08c379a000000000000000000000000000000000000000000000000000000000815260040161014c90610689565b60405180910390fd5b60025f8273ffffffffffffffffffffffffffffffffffffffff1673ffffffffffffffffffffffffffffffffffffffff1681526020019081526020015f205f9054906101000a900460ff16156101df576040517f08c379a00000000000000000000000000000000000000000000000000000000081526004016101d6906106f1565b60405180910390fd5b600160025f8373ffffffffffffffffffffffffffffffffffffffff1673ffffffffffffffffffffffffffffffffffffffff1681526020019081526020015f205f6101000a81548160ff021916908315150217905550600181908060018154018082558091505060019003905f5260205f20015f9091909190916101000a81548173ffffffffffffffffffffffffffffffffffffffff021916908373ffffffffffffffffffffffffffffffffffffffff1602179055505080806001019150506100c0565b50806003819055507f7699bae868b89dd6a1d348a18c33d02d0b7cdcb2f598af9eacc0d5060e779b5882826040516102db9291906107d5565b60405180910390a15050610803565b5f604051905090565b5f80fd5b5f80fd5b5f80fd5b5f601f19601f8301169050919050565b7f4e487b71000000000000000000000000000000000000000000000000000000005f52604160045260245ffd5b610345826102ff565b810181811067ffffffffffffffff821117156103645761036361030f565b5b80604052505050565b5f6103766102ea565b9050610382828261033c565b919050565b5f67ffffffffffffffff8211156103a1576103a061030f565b5b602082029050602081019050919050565b5f80fd5b5f73ffffffffffffffffffffffffffffffffffffffff82169050919050565b5f6103df826103b6565b9050919050565b6103ef816103d5565b81146103f9575f80fd5b50565b5f8151905061040a816103e6565b92915050565b5f61042261041d84610387565b61036d565b90508083825260208201905060208402830185811115610445576104446103b2565b5b835b8181101561046e578061045a88826103fc565b845260208401935050602081019050610447565b5050509392505050565b5f82601f83011261048c5761048b6102fb565b5b815161049c848260208601610410565b91505092915050565b5f819050919050565b6104b7816104a5565b81146104c1575f80fd5b50565b5f815190506104d2816104ae565b92915050565b5f80604083850312156104ee576104ed6102f3565b5b5f83015167ffffffffffffffff81111561050b5761050a6102f7565b5b61051785828601610478565b9250506020610528858286016104c4565b9150509250929050565b5f82825260208201905092915050565b7f4174206c65617374206f6e65206f776e657220726571756972656400000000005f82015250565b5f610576601b83610532565b915061058182610542565b602082019050919050565b5f6020820190508181035f8301526105a38161056a565b9050919050565b7f496e76616c6964207468726573686f6c640000000000000000000000000000005f82015250565b5f6105de601183610532565b91506105e9826105aa565b602082019050919050565b5f6020820190508181035f83015261060b816105d2565b9050919050565b7f4e487b71000000000000000000000000000000000000000000000000000000005f52603260045260245ffd5b7f496e76616c6964206f776e6572206164647265737300000000000000000000005f82015250565b5f610673601583610532565b915061067e8261063f565b602082019050919050565b5f6020820190508181035f8301526106a081610667565b9050919050565b7f4475706c6963617465206f776e657200000000000000000000000000000000005f82015250565b5f6106db600f83610532565b91506106e6826106a7565b602082019050919050565b5f6020820190508181035f830152610708816106cf565b9050919050565b5f81519050919050565b5f82825260208201905092915050565b5f819050602082019050919050565b610741816103d5565b82525050565b5f6107528383610738565b60208301905092915050565b5f602082019050919050565b5f6107748261070f565b61077e8185610719565b935061078983610729565b805f5b838110156107b95781516107a08882610747565b97506107ab8361075e565b92505060018101905061078c565b5085935050505092915050565b6107cf816104a5565b82525050565b5f6040820190508181035f8301526107ed818561076a565b90506107fc60208301846107c6565b9392505050565b61223d806108105f395ff3fe6080604052600436106100c5575f3560e01c806342cde4e81161007e578063c01a8c8411610058578063c01a8c84146102aa578063c6427474146102d2578063d7d7442f146102fa578063ee22610b14610322576100cc565b806342cde4e8146102165780639ace38c214610240578063a0e67e2b14610280576100cc565b8063025e7c27146100d05780632e7700f01461010c5780632f54bf6e146101365780633380c0d81461017257806333ea3dc81461019a5780633411c81c146101da576100cc565b366100cc57005b5f80fd5b3480156100db575f80fd5b506100f660048036038101906100f1919061142d565b61034a565b6040516101039190611497565b60405180910390f35b348015610117575f80fd5b50610120610385565b60405161012d91906114bf565b60405180910390f35b348015610141575f80fd5b5061015c60048036038101906101579190611502565b610391565b6040516101699190611547565b60405180910390f35b34801561017d575f80fd5b506101986004803603810190610193919061142d565b6103ae565b005b3480156101a5575f80fd5b506101c060048036038101906101bb919061142d565b61060c565b6040516101d19594939291906115d0565b60405180910390f35b3480156101e5575f80fd5b5061020060048036038101906101fb9190611628565b610715565b60405161020d9190611547565b60405180910390f35b348015610221575f80fd5b5061022a61073f565b60405161023791906114bf565b60405180910390f35b34801561024b575f80fd5b506102666004803603810190610261919061142d565b610745565b6040516102779594939291906115d0565b60405180910390f35b34801561028b575f80fd5b50610294610837565b6040516102a1919061171d565b60405180910390f35b3480156102b5575f80fd5b506102d060048036038101906102cb919061142d565b6108c2565b005b3480156102dd575f80fd5b506102f860048036038101906102f3919061179e565b610b84565b005b348015610305575f80fd5b50610320600480360381019061031b919061142d565b610e5c565b005b34801561032d575f80fd5b506103486004803603810190610343919061142d565b610f79565b005b60018181548110610359575f80fd5b905f5260205f20015f915054906101000a900473ffffffffffffffffffffffffffffffffffffffff1681565b5f600480549050905090565b6002602052805f5260405f205f915054906101000a900460ff1681565b60025f3373ffffffffffffffffffffffffffffffffffffffff1673ffffffffffffffffffffffffffffffffffffffff1681526020019081526020015f205f9054906101000a900460ff16610437576040517f08c379a000000000000000000000000000000000000000000000000000000000815260040161042e90611869565b60405180910390fd5b80600480549050811061047f576040517f08c379a0000000000000000000000000000000000000000000000000000000008152600401610476906118d1565b60405180910390fd5b8160048181548110610494576104936118ef565b5b905f5260205f2090600502016003015f9054906101000a900460ff16156104f0576040517f08c379a00000000000000000000000000000000000000000000000000000000081526004016104e790611966565b60405180910390fd5b60055f8481526020019081526020015f205f3373ffffffffffffffffffffffffffffffffffffffff1673ffffffffffffffffffffffffffffffffffffffff1681526020019081526020015f205f9054906101000a900460ff16610588576040517f08c379a000000000000000000000000000000000000000000000000000000000815260040161057f906119f4565b60405180910390fd5b60016004848154811061059e5761059d6118ef565b5b905f5260205f2090600502016003015f6101000a81548160ff0219169083151502179055503373ffffffffffffffffffffffffffffffffffffffff16837fbeed812a0535c283c6bc8eda32deb53df2603d7c1b518b07e2bec1df38da839360405160405180910390a3505050565b5f8060605f805f60048781548110610627576106266118ef565b5b905f5260205f2090600502019050805f015f9054906101000a900473ffffffffffffffffffffffffffffffffffffffff16816001015482600201836003015f9054906101000a900460ff16846004015482805461068390611a3f565b80601f01602080910402602001604051908101604052809291908181526020018280546106af90611a3f565b80156106fa5780601f106106d1576101008083540402835291602001916106fa565b820191905f5260205f20905b8154815290600101906020018083116106dd57829003601f168201915b50505050509250955095509550955095505091939590929450565b6005602052815f5260405f20602052805f5260405f205f915091509054906101000a900460ff1681565b60035481565b60048181548110610754575f80fd5b905f5260205f2090600502015f91509050805f015f9054906101000a900473ffffffffffffffffffffffffffffffffffffffff169080600101549080600201805461079e90611a3f565b80601f01602080910402602001604051908101604052809291908181526020018280546107ca90611a3f565b80156108155780601f106107ec57610100808354040283529160200191610815565b820191905f5260205f20905b8154815290600101906020018083116107f857829003601f168201915b505050505090806003015f9054906101000a900460ff16908060040154905085565b606060018054806020026020016040519081016040528092919081815260200182805480156108b857602002820191905f5260205f20905b815f9054906101000a900473ffffffffffffffffffffffffffffffffffffffff1673ffffffffffffffffffffffffffffffffffffffff168152602001906001019080831161086f575b5050505050905090565b60025f3373ffffffffffffffffffffffffffffffffffffffff1673ffffffffffffffffffffffffffffffffffffffff1681526020019081526020015f205f9054906101000a900460ff1661094b576040517f08c379a000000000000000000000000000000000000000000000000000000000815260040161094290611869565b60405180910390fd5b806004805490508110610993576040517f08c379a000000000000000000000000000000000000000000000000000000000815260040161098a906118d1565b60405180910390fd5b81600481815481106109a8576109a76118ef565b5b905f5260205f2090600502016003015f9054906101000a900460ff1615610a04576040517f08c379a00000000000000000000000000000000000000000000000000000000081526004016109fb90611966565b60405180910390fd5b60055f8481526020019081526020015f205f3373ffffffffffffffffffffffffffffffffffffffff1673ffffffffffffffffffffffffffffffffffffffff1681526020019081526020015f205f9054906101000a900460ff1615610a9d576040517f08c379a0000000000000000000000000000000000000000000000000000000008152600401610a9490611ab9565b60405180910390fd5b600160055f8581526020019081526020015f205f3373ffffffffffffffffffffffffffffffffffffffff1673ffffffffffffffffffffffffffffffffffffffff1681526020019081526020015f205f6101000a81548160ff021916908315150217905550600160048481548110610b1757610b166118ef565b5b905f5260205f2090600502016004015f828254610b349190611b04565b925050819055503373ffffffffffffffffffffffffffffffffffffffff16837f15c2f311c9e0f53b50388279894aeff029a3457884a6601e924fca879e12adcc60405160405180910390a3505050565b60025f3373ffffffffffffffffffffffffffffffffffffffff1673ffffffffffffffffffffffffffffffffffffffff1681526020019081526020015f205f9054906101000a900460ff16610c0d576040517f08c379a0000000000000000000000000000000000000000000000000000000008152600401610c0490611869565b60405180910390fd5b5f73ffffffffffffffffffffffffffffffffffffffff168473ffffffffffffffffffffffffffffffffffffffff1603610c7b576040517f08c379a0000000000000000000000000000000000000000000000000000000008152600401610c7290611b81565b60405180910390fd5b47831115610cbe576040517f08c379a0000000000000000000000000000000000000000000000000000000008152600401610cb590611be9565b60405180910390fd5b5f600480549050905060046040518060a001604052808773ffffffffffffffffffffffffffffffffffffffff16815260200186815260200185858080601f0160208091040260200160405190810160405280939291908181526020018383808284375f81840152601f19601f8201169050808301925050505050505081526020015f151581526020015f815250908060018154018082558091505060019003905f5260205f2090600502015f909190919091505f820151815f015f6101000a81548173ffffffffffffffffffffffffffffffffffffffff021916908373ffffffffffffffffffffffffffffffffffffffff160217905550602082015181600101556040820151816002019081610dd49190611dd1565b506060820151816003015f6101000a81548160ff0219169083151502179055506080820151816004015550503373ffffffffffffffffffffffffffffffffffffffff16817ff13a7a4144a3232fd093fca16be52a8223bad74cee86d5fa8966c7061e75bfd387878787604051610e4d9493929190611eda565b60405180910390a35050505050565b60025f3373ffffffffffffffffffffffffffffffffffffffff1673ffffffffffffffffffffffffffffffffffffffff1681526020019081526020015f205f9054906101000a900460ff16610ee5576040517f08c379a0000000000000000000000000000000000000000000000000000000008152600401610edc90611869565b60405180910390fd5b5f81118015610ef957506001805490508111155b610f38576040517f08c379a0000000000000000000000000000000000000000000000000000000008152600401610f2f90611f62565b60405180910390fd5b806003819055507fadfa8ecb21b6962ebcd0adbd9ab985b7b4c5b5eb3b0dead683171565c7bfe17181604051610f6e91906114bf565b60405180910390a150565b60025f3373ffffffffffffffffffffffffffffffffffffffff1673ffffffffffffffffffffffffffffffffffffffff1681526020019081526020015f205f9054906101000a900460ff16611002576040517f08c379a0000000000000000000000000000000000000000000000000000000008152600401610ff990611869565b60405180910390fd5b80600480549050811061104a576040517f08c379a0000000000000000000000000000000000000000000000000000000008152600401611041906118d1565b60405180910390fd5b816004818154811061105f5761105e6118ef565b5b905f5260205f2090600502016003015f9054906101000a900460ff16156110bb576040517f08c379a00000000000000000000000000000000000000000000000000000000081526004016110b290611966565b60405180910390fd5b6110c361139c565b5f600484815481106110d8576110d76118ef565b5b905f5260205f20906005020190506003548160040154101561112f576040517f08c379a000000000000000000000000000000000000000000000000000000000815260040161112690611fca565b60405180910390fd5b5f73ffffffffffffffffffffffffffffffffffffffff16815f015f9054906101000a900473ffffffffffffffffffffffffffffffffffffffff1673ffffffffffffffffffffffffffffffffffffffff16036111bf576040517f08c379a00000000000000000000000000000000000000000000000000000000081526004016111b690611b81565b60405180910390fd5b6001816003015f6101000a81548160ff0219169083151502179055503373ffffffffffffffffffffffffffffffffffffffff16847fefc13bdcf58f184ea7cae26b499fb33b539e01d0197cea456f3ada289b8cf19b60405160405180910390a35f815f015f9054906101000a900473ffffffffffffffffffffffffffffffffffffffff1673ffffffffffffffffffffffffffffffffffffffff168260010154620493e090846002016040516112749190612072565b5f60405180830381858888f193505050503d805f81146112af576040519150601f19603f3d011682016040523d82523d5f602084013e6112b4565b606091505b505090508061138d575f826003015f6101000a81548160ff021916908315150217905550815f015f9054906101000a900473ffffffffffffffffffffffffffffffffffffffff1673ffffffffffffffffffffffffffffffffffffffff16857fb48cb383b633fa0880705b6499360e47282d8e5147c8932c7447a01a1339254884600101548560020160405161134a929190612109565b60405180910390a36040517f08c379a000000000000000000000000000000000000000000000000000000000815260040161138490612181565b60405180910390fd5b50506113976113e9565b505050565b60025f54036113e0576040517f08c379a00000000000000000000000000000000000000000000000000000000081526004016113d7906121e9565b60405180910390fd5b60025f81905550565b60015f81905550565b5f80fd5b5f80fd5b5f819050919050565b61140c816113fa565b8114611416575f80fd5b50565b5f8135905061142781611403565b92915050565b5f60208284031215611442576114416113f2565b5b5f61144f84828501611419565b91505092915050565b5f73ffffffffffffffffffffffffffffffffffffffff82169050919050565b5f61148182611458565b9050919050565b61149181611477565b82525050565b5f6020820190506114aa5f830184611488565b92915050565b6114b9816113fa565b82525050565b5f6020820190506114d25f8301846114b0565b92915050565b6114e181611477565b81146114eb575f80fd5b50565b5f813590506114fc816114d8565b92915050565b5f60208284031215611517576115166113f2565b5b5f611524848285016114ee565b91505092915050565b5f8115159050919050565b6115418161152d565b82525050565b5f60208201905061155a5f830184611538565b92915050565b5f81519050919050565b5f82825260208201905092915050565b8281835e5f83830152505050565b5f601f19601f8301169050919050565b5f6115a282611560565b6115ac818561156a565b93506115bc81856020860161157a565b6115c581611588565b840191505092915050565b5f60a0820190506115e35f830188611488565b6115f060208301876114b0565b81810360408301526116028186611598565b90506116116060830185611538565b61161e60808301846114b0565b9695505050505050565b5f806040838503121561163e5761163d6113f2565b5b5f61164b85828601611419565b925050602061165c858286016114ee565b9150509250929050565b5f81519050919050565b5f82825260208201905092915050565b5f819050602082019050919050565b61169881611477565b82525050565b5f6116a9838361168f565b60208301905092915050565b5f602082019050919050565b5f6116cb82611666565b6116d58185611670565b93506116e083611680565b805f5b838110156117105781516116f7888261169e565b9750611702836116b5565b9250506001810190506116e3565b5085935050505092915050565b5f6020820190508181035f83015261173581846116c1565b905092915050565b5f80fd5b5f80fd5b5f80fd5b5f8083601f84011261175e5761175d61173d565b5b8235905067ffffffffffffffff81111561177b5761177a611741565b5b60208301915083600182028301111561179757611796611745565b5b9250929050565b5f805f80606085870312156117b6576117b56113f2565b5b5f6117c3878288016114ee565b94505060206117d487828801611419565b935050604085013567ffffffffffffffff8111156117f5576117f46113f6565b5b61180187828801611749565b925092505092959194509250565b5f82825260208201905092915050565b7f4e6f7420616e206f776e657200000000000000000000000000000000000000005f82015250565b5f611853600c8361180f565b915061185e8261181f565b602082019050919050565b5f6020820190508181035f83015261188081611847565b9050919050565b7f5472616e73616374696f6e20646f6573206e6f742065786973740000000000005f82015250565b5f6118bb601a8361180f565b91506118c682611887565b602082019050919050565b5f6020820190508181035f8301526118e8816118af565b9050919050565b7f4e487b71000000000000000000000000000000000000000000000000000000005f52603260045260245ffd5b7f5472616e73616374696f6e20616c7265616479206578656375746564000000005f82015250565b5f611950601c8361180f565b915061195b8261191c565b602082019050919050565b5f6020820190508181035f83015261197d81611944565b9050919050565b7f596f752068617665206e6f7420636f6e6669726d65642074686973207472616e5f8201527f73616374696f6e00000000000000000000000000000000000000000000000000602082015250565b5f6119de60278361180f565b91506119e982611984565b604082019050919050565b5f6020820190508181035f830152611a0b816119d2565b9050919050565b7f4e487b71000000000000000000000000000000000000000000000000000000005f52602260045260245ffd5b5f6002820490506001821680611a5657607f821691505b602082108103611a6957611a68611a12565b5b50919050565b7f5472616e73616374696f6e20616c726561647920636f6e6669726d65640000005f82015250565b5f611aa3601d8361180f565b9150611aae82611a6f565b602082019050919050565b5f6020820190508181035f830152611ad081611a97565b9050919050565b7f4e487b71000000000000000000000000000000000000000000000000000000005f52601160045260245ffd5b5f611b0e826113fa565b9150611b19836113fa565b9250828201905080821115611b3157611b30611ad7565b5b92915050565b7f496e76616c69642064657374696e6174696f6e206164647265737300000000005f82015250565b5f611b6b601b8361180f565b9150611b7682611b37565b602082019050919050565b5f6020820190508181035f830152611b9881611b5f565b9050919050565b7f496e73756666696369656e7420636f6e74726163742062616c616e63650000005f82015250565b5f611bd3601d8361180f565b9150611bde82611b9f565b602082019050919050565b5f6020820190508181035f830152611c0081611bc7565b9050919050565b7f4e487b71000000000000000000000000000000000000000000000000000000005f52604160045260245ffd5b5f819050815f5260205f209050919050565b5f6020601f8301049050919050565b5f82821b905092915050565b5f60088302611c907fffffffffffffffffffffffffffffffffffffffffffffffffffffffffffffffff82611c55565b611c9a8683611c55565b95508019841693508086168417925050509392505050565b5f819050919050565b5f611cd5611cd0611ccb846113fa565b611cb2565b6113fa565b9050919050565b5f819050919050565b611cee83611cbb565b611d02611cfa82611cdc565b848454611c61565b825550505050565b5f90565b611d16611d0a565b611d21818484611ce5565b505050565b5b81811015611d4457611d395f82611d0e565b600181019050611d27565b5050565b601f821115611d8957611d5a81611c34565b611d6384611c46565b81016020851015611d72578190505b611d86611d7e85611c46565b830182611d26565b50505b505050565b5f82821c905092915050565b5f611da95f1984600802611d8e565b1980831691505092915050565b5f611dc18383611d9a565b9150826002028217905092915050565b611dda82611560565b67ffffffffffffffff811115611df357611df2611c07565b5b611dfd8254611a3f565b611e08828285611d48565b5f60209050601f831160018114611e39575f8415611e27578287015190505b611e318582611db6565b865550611e98565b601f198416611e4786611c34565b5f5b82811015611e6e57848901518255600182019150602085019450602081019050611e49565b86831015611e8b5784890151611e87601f891682611d9a565b8355505b6001600288020188555050505b505050505050565b828183375f83830152505050565b5f611eb9838561156a565b9350611ec6838584611ea0565b611ecf83611588565b840190509392505050565b5f606082019050611eed5f830187611488565b611efa60208301866114b0565b8181036040830152611f0d818486611eae565b905095945050505050565b7f496e76616c6964207468726573686f6c640000000000000000000000000000005f82015250565b5f611f4c60118361180f565b9150611f5782611f18565b602082019050919050565b5f6020820190508181035f830152611f7981611f40565b9050919050565b7f4e6f7420656e6f75676820636f6e6669726d6174696f6e7300000000000000005f82015250565b5f611fb460188361180f565b9150611fbf82611f80565b602082019050919050565b5f6020820190508181035f830152611fe181611fa8565b9050919050565b5f81905092915050565b5f8154611ffe81611a3f565b6120088186611fe8565b9450600182165f8114612022576001811461203757612069565b60ff1983168652811515820286019350612069565b61204085611c34565b5f5b8381101561206157815481890152600182019150602081019050612042565b838801955050505b50505092915050565b5f61207d8284611ff2565b915081905092915050565b5f815461209481611a3f565b61209e818661156a565b9450600182165f81146120b857600181146120ce57612100565b60ff198316865281151560200286019350612100565b6120d785611c34565b5f5b838110156120f8578154818901526001820191506020810190506120d9565b808801955050505b50505092915050565b5f60408201905061211c5f8301856114b0565b818103602083015261212e8184612088565b90509392505050565b7f5472616e73616374696f6e20657865637574696f6e206661696c6564000000005f82015250565b5f61216b601c8361180f565b915061217682612137565b602082019050919050565b5f6020820190508181035f8301526121988161215f565b9050919050565b7f5265656e7472616e637947756172643a207265656e7472616e742063616c6c005f82015250565b5f6121d3601f8361180f565b91506121de8261219f565b602082019050919050565b5f6020820190508181035f830152612200816121c7565b905091905056fea2646970667358221220b2e5a665907ed55b519a05cd10bde78c5d40039615fe09097916cc6d74dda43b64736f6c634300081a0033",
					"opcodes": "PUSH1 0x80 PUSH1 0x40 MSTORE PUSH1 0x40 MLOAD PUSH2 0x2A4D CODESIZE SUB DUP1 PUSH2 0x2A4D DUP4 CODECOPY DUP2 DUP2 ADD PUSH1 0x40 MSTORE DUP2 ADD SWAP1 PUSH2 0x25 SWAP2 SWAP1 PUSH2 0x4D8 JUMP JUMPDEST PUSH1 0x1 PUSH0 DUP2 SWAP1 SSTORE POP PUSH0 DUP3 MLOAD GT PUSH2 0x6F JUMPI PUSH1 0x40 MLOAD PUSH32 0x8C379A000000000000000000000000000000000000000000000000000000000 DUP2 MSTORE PUSH1 0x4 ADD PUSH2 0x66 SWAP1 PUSH2 0x58C JUMP JUMPDEST PUSH1 0x40 MLOAD DUP1 SWAP2 SUB SWAP1 REVERT JUMPDEST PUSH0 DUP2 GT DUP1 ISZERO PUSH2 0x7F JUMPI POP DUP2 MLOAD DUP2 GT ISZERO JUMPDEST PUSH2 0xBE JUMPI PUSH1 0x40 MLOAD PUSH32 0x8C379A000000000000000000000000000000000000000000000000000000000 DUP2 MSTORE PUSH1 0x4 ADD PUSH2 0xB5 SWAP1 PUSH2 0x5F4 JUMP JUMPDEST PUSH1 0x40 MLOAD DUP1 SWAP2 SUB SWAP1 REVERT JUMPDEST PUSH0 JUMPDEST DUP3 MLOAD DUP2 LT ISZERO PUSH2 0x2A2 JUMPI PUSH0 DUP4 DUP3 DUP2 MLOAD DUP2 LT PUSH2 0xDD JUMPI PUSH2 0xDC PUSH2 0x612 JUMP JUMPDEST JUMPDEST PUSH1 0x20 MUL PUSH1 0x20 ADD ADD MLOAD SWAP1 POP PUSH0 PUSH20 0xFFFFFFFFFFFFFFFFFFFFFFFFFFFFFFFFFFFFFFFF AND DUP2 PUSH20 0xFFFFFFFFFFFFFFFFFFFFFFFFFFFFFFFFFFFFFFFF AND SUB PUSH2 0x155 JUMPI PUSH1 0x40 MLOAD PUSH32 0x8C379A000000000000000000000000000000000000000000000000000000000 DUP2 MSTORE PUSH1 0x4 ADD PUSH2 0x14C SWAP1 PUSH2 0x689 JUMP JUMPDEST PUSH1 0x40 MLOAD DUP1 SWAP2 SUB SWAP1 REVERT JUMPDEST PUSH1 0x2 PUSH0 DUP3 PUSH20 0xFFFFFFFFFFFFFFFFFFFFFFFFFFFFFFFFFFFFFFFF AND PUSH20 0xFFFFFFFFFFFFFFFFFFFFFFFFFFFFFFFFFFFFFFFF AND DUP2 MSTORE PUSH1 0x20 ADD SWAP1 DUP2 MSTORE PUSH1 0x20 ADD PUSH0 KECCAK256 PUSH0 SWAP1 SLOAD SWAP1 PUSH2 0x100 EXP SWAP1 DIV PUSH1 0xFF AND ISZERO PUSH2 0x1DF JUMPI PUSH1 0x40 MLOAD PUSH32 0x8C379A000000000000000000000000000000000000000000000000000000000 DUP2 MSTORE PUSH1 0x4 ADD PUSH2 0x1D6 SWAP1 PUSH2 0x6F1 JUMP JUMPDEST PUSH1 0x40 MLOAD DUP1 SWAP2 SUB SWAP1 REVERT JUMPDEST PUSH1 0x1 PUSH1 0x2 PUSH0 DUP4 PUSH20 0xFFFFFFFFFFFFFFFFFFFFFFFFFFFFFFFFFFFFFFFF AND PUSH20 0xFFFFFFFFFFFFFFFFFFFFFFFFFFFFFFFFFFFFFFFF AND DUP2 MSTORE PUSH1 0x20 ADD SWAP1 DUP2 MSTORE PUSH1 0x20 ADD PUSH0 KECCAK256 PUSH0 PUSH2 0x100 EXP DUP2 SLOAD DUP2 PUSH1 0xFF MUL NOT AND SWAP1 DUP4 ISZERO ISZERO MUL OR SWAP1 SSTORE POP PUSH1 0x1 DUP2 SWAP1 DUP1 PUSH1 0x1 DUP2 SLOAD ADD DUP1 DUP3 SSTORE DUP1 SWAP2 POP POP PUSH1 0x1 SWAP1 SUB SWAP1 PUSH0 MSTORE PUSH1 0x20 PUSH0 KECCAK256 ADD PUSH0 SWAP1 SWAP2 SWAP1 SWAP2 SWAP1 SWAP2 PUSH2 0x100 EXP DUP2 SLOAD DUP2 PUSH20 0xFFFFFFFFFFFFFFFFFFFFFFFFFFFFFFFFFFFFFFFF MUL NOT AND SWAP1 DUP4 PUSH20 0xFFFFFFFFFFFFFFFFFFFFFFFFFFFFFFFFFFFFFFFF AND MUL OR SWAP1 SSTORE POP POP DUP1 DUP1 PUSH1 0x1 ADD SWAP2 POP POP PUSH2 0xC0 JUMP JUMPDEST POP DUP1 PUSH1 0x3 DUP2 SWAP1 SSTORE POP PUSH32 0x7699BAE868B89DD6A1D348A18C33D02D0B7CDCB2F598AF9EACC0D5060E779B58 DUP3 DUP3 PUSH1 0x40 MLOAD PUSH2 0x2DB SWAP3 SWAP2 SWAP1 PUSH2 0x7D5 JUMP JUMPDEST PUSH1 0x40 MLOAD DUP1 SWAP2 SUB SWAP1 LOG1 POP POP PUSH2 0x803 JUMP JUMPDEST PUSH0 PUSH1 0x40 MLOAD SWAP1 POP SWAP1 JUMP JUMPDEST PUSH0 DUP1 REVERT JUMPDEST PUSH0 DUP1 REVERT JUMPDEST PUSH0 DUP1 REVERT JUMPDEST PUSH0 PUSH1 0x1F NOT PUSH1 0x1F DUP4 ADD AND SWAP1 POP SWAP2 SWAP1 POP JUMP JUMPDEST PUSH32 0x4E487B7100000000000000000000000000000000000000000000000000000000 PUSH0 MSTORE PUSH1 0x41 PUSH1 0x4 MSTORE PUSH1 0x24 PUSH0 REVERT JUMPDEST PUSH2 0x345 DUP3 PUSH2 0x2FF JUMP JUMPDEST DUP2 ADD DUP2 DUP2 LT PUSH8 0xFFFFFFFFFFFFFFFF DUP3 GT OR ISZERO PUSH2 0x364 JUMPI PUSH2 0x363 PUSH2 0x30F JUMP JUMPDEST JUMPDEST DUP1 PUSH1 0x40 MSTORE POP POP POP JUMP JUMPDEST PUSH0 PUSH2 0x376 PUSH2 0x2EA JUMP JUMPDEST SWAP1 POP PUSH2 0x382 DUP3 DUP3 PUSH2 0x33C JUMP JUMPDEST SWAP2 SWAP1 POP JUMP JUMPDEST PUSH0 PUSH8 0xFFFFFFFFFFFFFFFF DUP3 GT ISZERO PUSH2 0x3A1 JUMPI PUSH2 0x3A0 PUSH2 0x30F JUMP JUMPDEST JUMPDEST PUSH1 0x20 DUP3 MUL SWAP1 POP PUSH1 0x20 DUP2 ADD SWAP1 POP SWAP2 SWAP1 POP JUMP JUMPDEST PUSH0 DUP1 REVERT JUMPDEST PUSH0 PUSH20 0xFFFFFFFFFFFFFFFFFFFFFFFFFFFFFFFFFFFFFFFF DUP3 AND SWAP1 POP SWAP2 SWAP1 POP JUMP JUMPDEST PUSH0 PUSH2 0x3DF DUP3 PUSH2 0x3B6 JUMP JUMPDEST SWAP1 POP SWAP2 SWAP1 POP JUMP JUMPDEST PUSH2 0x3EF DUP2 PUSH2 0x3D5 JUMP JUMPDEST DUP2 EQ PUSH2 0x3F9 JUMPI PUSH0 DUP1 REVERT JUMPDEST POP JUMP JUMPDEST PUSH0 DUP2 MLOAD SWAP1 POP PUSH2 0x40A DUP2 PUSH2 0x3E6 JUMP JUMPDEST SWAP3 SWAP2 POP POP JUMP JUMPDEST PUSH0 PUSH2 0x422 PUSH2 0x41D DUP5 PUSH2 0x387 JUMP JUMPDEST PUSH2 0x36D JUMP JUMPDEST SWAP1 POP DUP1 DUP4 DUP3 MSTORE PUSH1 0x20 DUP3 ADD SWAP1 POP PUSH1 0x20 DUP5 MUL DUP4 ADD DUP6 DUP2 GT ISZERO PUSH2 0x445 JUMPI PUSH2 0x444 PUSH2 0x3B2 JUMP JUMPDEST JUMPDEST DUP4 JUMPDEST DUP2 DUP2 LT ISZERO PUSH2 0x46E JUMPI DUP1 PUSH2 0x45A DUP9 DUP3 PUSH2 0x3FC JUMP JUMPDEST DUP5 MSTORE PUSH1 0x20 DUP5 ADD SWAP4 POP POP PUSH1 0x20 DUP2 ADD SWAP1 POP PUSH2 0x447 JUMP JUMPDEST POP POP POP SWAP4 SWAP3 POP POP POP JUMP JUMPDEST PUSH0 DUP3 PUSH1 0x1F DUP4 ADD SLT PUSH2 0x48C JUMPI PUSH2 0x48B PUSH2 0x2FB JUMP JUMPDEST JUMPDEST DUP2 MLOAD PUSH2 0x49C DUP5 DUP3 PUSH1 0x20 DUP7 ADD PUSH2 0x410 JUMP JUMPDEST SWAP2 POP POP SWAP3 SWAP2 POP POP JUMP JUMPDEST PUSH0 DUP2 SWAP1 POP SWAP2 SWAP1 POP JUMP JUMPDEST PUSH2 0x4B7 DUP2 PUSH2 0x4A5 JUMP JUMPDEST DUP2 EQ PUSH2 0x4C1 JUMPI PUSH0 DUP1 REVERT JUMPDEST POP JUMP JUMPDEST PUSH0 DUP2 MLOAD SWAP1 POP PUSH2 0x4D2 DUP2 PUSH2 0x4AE JUMP JUMPDEST SWAP3 SWAP2 POP POP JUMP JUMPDEST PUSH0 DUP1 PUSH1 0x40 DUP4 DUP6 SUB SLT ISZERO PUSH2 0x4EE JUMPI PUSH2 0x4ED PUSH2 0x2F3 JUMP JUMPDEST JUMPDEST PUSH0 DUP4 ADD MLOAD PUSH8 0xFFFFFFFFFFFFFFFF DUP2 GT ISZERO PUSH2 0x50B JUMPI PUSH2 0x50A PUSH2 0x2F7 JUMP JUMPDEST JUMPDEST PUSH2 0x517 DUP6 DUP3 DUP7 ADD PUSH2 0x478 JUMP JUMPDEST SWAP3 POP POP PUSH1 0x20 PUSH2 0x528 DUP6 DUP3 DUP7 ADD PUSH2 0x4C4 JUMP JUMPDEST SWAP2 POP POP SWAP3 POP SWAP3 SWAP1 POP JUMP JUMPDEST PUSH0 DUP3 DUP3 MSTORE PUSH1 0x20 DUP3 ADD SWAP1 POP SWAP3 SWAP2 POP POP JUMP JUMPDEST PUSH32 0x4174206C65617374206F6E65206F776E65722072657175697265640000000000 PUSH0 DUP3 ADD MSTORE POP JUMP JUMPDEST PUSH0 PUSH2 0x576 PUSH1 0x1B DUP4 PUSH2 0x532 JUMP JUMPDEST SWAP2 POP PUSH2 0x581 DUP3 PUSH2 0x542 JUMP JUMPDEST PUSH1 0x20 DUP3 ADD SWAP1 POP SWAP2 SWAP1 POP JUMP JUMPDEST PUSH0 PUSH1 0x20 DUP3 ADD SWAP1 POP DUP2 DUP2 SUB PUSH0 DUP4 ADD MSTORE PUSH2 0x5A3 DUP2 PUSH2 0x56A JUMP JUMPDEST SWAP1 POP SWAP2 SWAP1 POP JUMP JUMPDEST PUSH32 0x496E76616C6964207468726573686F6C64000000000000000000000000000000 PUSH0 DUP3 ADD MSTORE POP JUMP JUMPDEST PUSH0 PUSH2 0x5DE PUSH1 0x11 DUP4 PUSH2 0x532 JUMP JUMPDEST SWAP2 POP PUSH2 0x5E9 DUP3 PUSH2 0x5AA JUMP JUMPDEST PUSH1 0x20 DUP3 ADD SWAP1 POP SWAP2 SWAP1 POP JUMP JUMPDEST PUSH0 PUSH1 0x20 DUP3 ADD SWAP1 POP DUP2 DUP2 SUB PUSH0 DUP4 ADD MSTORE PUSH2 0x60B DUP2 PUSH2 0x5D2 JUMP JUMPDEST SWAP1 POP SWAP2 SWAP1 POP JUMP JUMPDEST PUSH32 0x4E487B7100000000000000000000000000000000000000000000000000000000 PUSH0 MSTORE PUSH1 0x32 PUSH1 0x4 MSTORE PUSH1 0x24 PUSH0 REVERT JUMPDEST PUSH32 0x496E76616C6964206F776E657220616464726573730000000000000000000000 PUSH0 DUP3 ADD MSTORE POP JUMP JUMPDEST PUSH0 PUSH2 0x673 PUSH1 0x15 DUP4 PUSH2 0x532 JUMP JUMPDEST SWAP2 POP PUSH2 0x67E DUP3 PUSH2 0x63F JUMP JUMPDEST PUSH1 0x20 DUP3 ADD SWAP1 POP SWAP2 SWAP1 POP JUMP JUMPDEST PUSH0 PUSH1 0x20 DUP3 ADD SWAP1 POP DUP2 DUP2 SUB PUSH0 DUP4 ADD MSTORE PUSH2 0x6A0 DUP2 PUSH2 0x667 JUMP JUMPDEST SWAP1 POP SWAP2 SWAP1 POP JUMP JUMPDEST PUSH32 0x4475706C6963617465206F776E65720000000000000000000000000000000000 PUSH0 DUP3 ADD MSTORE POP JUMP JUMPDEST PUSH0 PUSH2 0x6DB PUSH1 0xF DUP4 PUSH2 0x532 JUMP JUMPDEST SWAP2 POP PUSH2 0x6E6 DUP3 PUSH2 0x6A7 JUMP JUMPDEST PUSH1 0x20 DUP3 ADD SWAP1 POP SWAP2 SWAP1 POP JUMP JUMPDEST PUSH0 PUSH1 0x20 DUP3 ADD SWAP1 POP DUP2 DUP2 SUB PUSH0 DUP4 ADD MSTORE PUSH2 0x708 DUP2 PUSH2 0x6CF JUMP JUMPDEST SWAP1 POP SWAP2 SWAP1 POP JUMP JUMPDEST PUSH0 DUP2 MLOAD SWAP1 POP SWAP2 SWAP1 POP JUMP JUMPDEST PUSH0 DUP3 DUP3 MSTORE PUSH1 0x20 DUP3 ADD SWAP1 POP SWAP3 SWAP2 POP POP JUMP JUMPDEST PUSH0 DUP2 SWAP1 POP PUSH1 0x20 DUP3 ADD SWAP1 POP SWAP2 SWAP1 POP JUMP JUMPDEST PUSH2 0x741 DUP2 PUSH2 0x3D5 JUMP JUMPDEST DUP3 MSTORE POP POP JUMP JUMPDEST PUSH0 PUSH2 0x752 DUP4 DUP4 PUSH2 0x738 JUMP JUMPDEST PUSH1 0x20 DUP4 ADD SWAP1 POP SWAP3 SWAP2 POP POP JUMP JUMPDEST PUSH0 PUSH1 0x20 DUP3 ADD SWAP1 POP SWAP2 SWAP1 POP JUMP JUMPDEST PUSH0 PUSH2 0x774 DUP3 PUSH2 0x70F JUMP JUMPDEST PUSH2 0x77E DUP2 DUP6 PUSH2 0x719 JUMP JUMPDEST SWAP4 POP PUSH2 0x789 DUP4 PUSH2 0x729 JUMP JUMPDEST DUP1 PUSH0 JUMPDEST DUP4 DUP2 LT ISZERO PUSH2 0x7B9 JUMPI DUP2 MLOAD PUSH2 0x7A0 DUP9 DUP3 PUSH2 0x747 JUMP JUMPDEST SWAP8 POP PUSH2 0x7AB DUP4 PUSH2 0x75E JUMP JUMPDEST SWAP3 POP POP PUSH1 0x1 DUP2 ADD SWAP1 POP PUSH2 0x78C JUMP JUMPDEST POP DUP6 SWAP4 POP POP POP POP SWAP3 SWAP2 POP POP JUMP JUMPDEST PUSH2 0x7CF DUP2 PUSH2 0x4A5 JUMP JUMPDEST DUP3 MSTORE POP POP JUMP JUMPDEST PUSH0 PUSH1 0x40 DUP3 ADD SWAP1 POP DUP2 DUP2 SUB PUSH0 DUP4 ADD MSTORE PUSH2 0x7ED DUP2 DUP6 PUSH2 0x76A JUMP JUMPDEST SWAP1 POP PUSH2 0x7FC PUSH1 0x20 DUP4 ADD DUP5 PUSH2 0x7C6 JUMP JUMPDEST SWAP4 SWAP3 POP POP POP JUMP JUMPDEST PUSH2 0x223D DUP1 PUSH2 0x810 PUSH0 CODECOPY PUSH0 RETURN INVALID PUSH1 0x80 PUSH1 0x40 MSTORE PUSH1 0x4 CALLDATASIZE LT PUSH2 0xC5 JUMPI PUSH0 CALLDATALOAD PUSH1 0xE0 SHR DUP1 PUSH4 0x42CDE4E8 GT PUSH2 0x7E JUMPI DUP1 PUSH4 0xC01A8C84 GT PUSH2 0x58 JUMPI DUP1 PUSH4 0xC01A8C84 EQ PUSH2 0x2AA JUMPI DUP1 PUSH4 0xC6427474 EQ PUSH2 0x2D2 JUMPI DUP1 PUSH4 0xD7D7442F EQ PUSH2 0x2FA JUMPI DUP1 PUSH4 0xEE22610B EQ PUSH2 0x322 JUMPI PUSH2 0xCC JUMP JUMPDEST DUP1 PUSH4 0x42CDE4E8 EQ PUSH2 0x216 JUMPI DUP1 PUSH4 0x9ACE38C2 EQ PUSH2 0x240 JUMPI DUP1 PUSH4 0xA0E67E2B EQ PUSH2 0x280 JUMPI PUSH2 0xCC JUMP JUMPDEST DUP1 PUSH4 0x25E7C27 EQ PUSH2 0xD0 JUMPI DUP1 PUSH4 0x2E7700F0 EQ PUSH2 0x10C JUMPI DUP1 PUSH4 0x2F54BF6E EQ PUSH2 0x136 JUMPI DUP1 PUSH4 0x3380C0D8 EQ PUSH2 0x172 JUMPI DUP1 PUSH4 0x33EA3DC8 EQ PUSH2 0x19A JUMPI DUP1 PUSH4 0x3411C81C EQ PUSH2 0x1DA JUMPI PUSH2 0xCC JUMP JUMPDEST CALLDATASIZE PUSH2 0xCC JUMPI STOP JUMPDEST PUSH0 DUP1 REVERT JUMPDEST CALLVALUE DUP1 ISZERO PUSH2 0xDB JUMPI PUSH0 DUP1 REVERT JUMPDEST POP PUSH2 0xF6 PUSH1 0x4 DUP1 CALLDATASIZE SUB DUP2 ADD SWAP1 PUSH2 0xF1 SWAP2 SWAP1 PUSH2 0x142D JUMP JUMPDEST PUSH2 0x34A JUMP JUMPDEST PUSH1 0x40 MLOAD PUSH2 0x103 SWAP2 SWAP1 PUSH2 0x1497 JUMP JUMPDEST PUSH1 0x40 MLOAD DUP1 SWAP2 SUB SWAP1 RETURN JUMPDEST CALLVALUE DUP1 ISZERO PUSH2 0x117 JUMPI PUSH0 DUP1 REVERT JUMPDEST POP PUSH2 0x120 PUSH2 0x385 JUMP JUMPDEST PUSH1 0x40 MLOAD PUSH2 0x12D SWAP2 SWAP1 PUSH2 0x14BF JUMP JUMPDEST PUSH1 0x40 MLOAD DUP1 SWAP2 SUB SWAP1 RETURN JUMPDEST CALLVALUE DUP1 ISZERO PUSH2 0x141 JUMPI PUSH0 DUP1 REVERT JUMPDEST POP PUSH2 0x15C PUSH1 0x4 DUP1 CALLDATASIZE SUB DUP2 ADD SWAP1 PUSH2 0x157 SWAP2 SWAP1 PUSH2 0x1502 JUMP JUMPDEST PUSH2 0x391 JUMP JUMPDEST PUSH1 0x40 MLOAD PUSH2 0x169 SWAP2 SWAP1 PUSH2 0x1547 JUMP JUMPDEST PUSH1 0x40 MLOAD DUP1 SWAP2 SUB SWAP1 RETURN JUMPDEST CALLVALUE DUP1 ISZERO PUSH2 0x17D JUMPI PUSH0 DUP1 REVERT JUMPDEST POP PUSH2 0x198 PUSH1 0x4 DUP1 CALLDATASIZE SUB DUP2 ADD SWAP1 PUSH2 0x193 SWAP2 SWAP1 PUSH2 0x142D JUMP JUMPDEST PUSH2 0x3AE JUMP JUMPDEST STOP JUMPDEST CALLVALUE DUP1 ISZERO PUSH2 0x1A5 JUMPI PUSH0 DUP1 REVERT JUMPDEST POP PUSH2 0x1C0 PUSH1 0x4 DUP1 CALLDATASIZE SUB DUP2 ADD SWAP1 PUSH2 0x1BB SWAP2 SWAP1 PUSH2 0x142D JUMP JUMPDEST PUSH2 0x60C JUMP JUMPDEST PUSH1 0x40 MLOAD PUSH2 0x1D1 SWAP6 SWAP5 SWAP4 SWAP3 SWAP2 SWAP1 PUSH2 0x15D0 JUMP JUMPDEST PUSH1 0x40 MLOAD DUP1 SWAP2 SUB SWAP1 RETURN JUMPDEST CALLVALUE DUP1 ISZERO PUSH2 0x1E5 JUMPI PUSH0 DUP1 REVERT JUMPDEST POP PUSH2 0x200 PUSH1 0x4 DUP1 CALLDATASIZE SUB DUP2 ADD SWAP1 PUSH2 0x1FB SWAP2 SWAP1 PUSH2 0x1628 JUMP JUMPDEST PUSH2 0x715 JUMP JUMPDEST PUSH1 0x40 MLOAD PUSH2 0x20D SWAP2 SWAP1 PUSH2 0x1547 JUMP JUMPDEST PUSH1 0x40 MLOAD DUP1 SWAP2 SUB SWAP1 RETURN JUMPDEST CALLVALUE DUP1 ISZERO PUSH2 0x221 JUMPI PUSH0 DUP1 REVERT JUMPDEST POP PUSH2 0x22A PUSH2 0x73F JUMP JUMPDEST PUSH1 0x40 MLOAD PUSH2 0x237 SWAP2 SWAP1 PUSH2 0x14BF JUMP JUMPDEST PUSH1 0x40 MLOAD DUP1 SWAP2 SUB SWAP1 RETURN JUMPDEST CALLVALUE DUP1 ISZERO PUSH2 0x24B JUMPI PUSH0 DUP1 REVERT JUMPDEST POP PUSH2 0x266 PUSH1 0x4 DUP1 CALLDATASIZE SUB DUP2 ADD SWAP1 PUSH2 0x261 SWAP2 SWAP1 PUSH2 0x142D JUMP JUMPDEST PUSH2 0x745 JUMP JUMPDEST PUSH1 0x40 MLOAD PUSH2 0x277 SWAP6 SWAP5 SWAP4 SWAP3 SWAP2 SWAP1 PUSH2 0x15D0 JUMP JUMPDEST PUSH1 0x40 MLOAD DUP1 SWAP2 SUB SWAP1 RETURN JUMPDEST CALLVALUE DUP1 ISZERO PUSH2 0x28B JUMPI PUSH0 DUP1 REVERT JUMPDEST POP PUSH2 0x294 PUSH2 0x837 JUMP JUMPDEST PUSH1 0x40 MLOAD PUSH2 0x2A1 SWAP2 SWAP1 PUSH2 0x171D JUMP JUMPDEST PUSH1 0x40 MLOAD DUP1 SWAP2 SUB SWAP1 RETURN JUMPDEST CALLVALUE DUP1 ISZERO PUSH2 0x2B5 JUMPI PUSH0 DUP1 REVERT JUMPDEST POP PUSH2 0x2D0 PUSH1 0x4 DUP1 CALLDATASIZE SUB DUP2 ADD SWAP1 PUSH2 0x2CB SWAP2 SWAP1 PUSH2 0x142D JUMP JUMPDEST PUSH2 0x8C2 JUMP JUMPDEST STOP JUMPDEST CALLVALUE DUP1 ISZERO PUSH2 0x2DD JUMPI PUSH0 DUP1 REVERT JUMPDEST POP PUSH2 0x2F8 PUSH1 0x4 DUP1 CALLDATASIZE SUB DUP2 ADD SWAP1 PUSH2 0x2F3 SWAP2 SWAP1 PUSH2 0x179E JUMP JUMPDEST PUSH2 0xB84 JUMP JUMPDEST STOP JUMPDEST CALLVALUE DUP1 ISZERO PUSH2 0x305 JUMPI PUSH0 DUP1 REVERT JUMPDEST POP PUSH2 0x320 PUSH1 0x4 DUP1 CALLDATASIZE SUB DUP2 ADD SWAP1 PUSH2 0x31B SWAP2 SWAP1 PUSH2 0x142D JUMP JUMPDEST PUSH2 0xE5C JUMP JUMPDEST STOP JUMPDEST CALLVALUE DUP1 ISZERO PUSH2 0x32D JUMPI PUSH0 DUP1 REVERT JUMPDEST POP PUSH2 0x348 PUSH1 0x4 DUP1 CALLDATASIZE SUB DUP2 ADD SWAP1 PUSH2 0x343 SWAP2 SWAP1 PUSH2 0x142D JUMP JUMPDEST PUSH2 0xF79 JUMP JUMPDEST STOP JUMPDEST PUSH1 0x1 DUP2 DUP2 SLOAD DUP2 LT PUSH2 0x359 JUMPI PUSH0 DUP1 REVERT JUMPDEST SWAP1 PUSH0 MSTORE PUSH1 0x20 PUSH0 KECCAK256 ADD PUSH0 SWAP2 POP SLOAD SWAP1 PUSH2 0x100 EXP SWAP1 DIV PUSH20 0xFFFFFFFFFFFFFFFFFFFFFFFFFFFFFFFFFFFFFFFF AND DUP2 JUMP JUMPDEST PUSH0 PUSH1 0x4 DUP1 SLOAD SWAP1 POP SWAP1 POP SWAP1 JUMP JUMPDEST PUSH1 0x2 PUSH1 0x20 MSTORE DUP1 PUSH0 MSTORE PUSH1 0x40 PUSH0 KECCAK256 PUSH0 SWAP2 POP SLOAD SWAP1 PUSH2 0x100 EXP SWAP1 DIV PUSH1 0xFF AND DUP2 JUMP JUMPDEST PUSH1 0x2 PUSH0 CALLER PUSH20 0xFFFFFFFFFFFFFFFFFFFFFFFFFFFFFFFFFFFFFFFF AND PUSH20 0xFFFFFFFFFFFFFFFFFFFFFFFFFFFFFFFFFFFFFFFF AND DUP2 MSTORE PUSH1 0x20 ADD SWAP1 DUP2 MSTORE PUSH1 0x20 ADD PUSH0 KECCAK256 PUSH0 SWAP1 SLOAD SWAP1 PUSH2 0x100 EXP SWAP1 DIV PUSH1 0xFF AND PUSH2 0x437 JUMPI PUSH1 0x40 MLOAD PUSH32 0x8C379A000000000000000000000000000000000000000000000000000000000 DUP2 MSTORE PUSH1 0x4 ADD PUSH2 0x42E SWAP1 PUSH2 0x1869 JUMP JUMPDEST PUSH1 0x40 MLOAD DUP1 SWAP2 SUB SWAP1 REVERT JUMPDEST DUP1 PUSH1 0x4 DUP1 SLOAD SWAP1 POP DUP2 LT PUSH2 0x47F JUMPI PUSH1 0x40 MLOAD PUSH32 0x8C379A000000000000000000000000000000000000000000000000000000000 DUP2 MSTORE PUSH1 0x4 ADD PUSH2 0x476 SWAP1 PUSH2 0x18D1 JUMP JUMPDEST PUSH1 0x40 MLOAD DUP1 SWAP2 SUB SWAP1 REVERT JUMPDEST DUP2 PUSH1 0x4 DUP2 DUP2 SLOAD DUP2 LT PUSH2 0x494 JUMPI PUSH2 0x493 PUSH2 0x18EF JUMP JUMPDEST JUMPDEST SWAP1 PUSH0 MSTORE PUSH1 0x20 PUSH0 KECCAK256 SWAP1 PUSH1 0x5 MUL ADD PUSH1 0x3 ADD PUSH0 SWAP1 SLOAD SWAP1 PUSH2 0x100 EXP SWAP1 DIV PUSH1 0xFF AND ISZERO PUSH2 0x4F0 JUMPI PUSH1 0x40 MLOAD PUSH32 0x8C379A000000000000000000000000000000000000000000000000000000000 DUP2 MSTORE PUSH1 0x4 ADD PUSH2 0x4E7 SWAP1 PUSH2 0x1966 JUMP JUMPDEST PUSH1 0x40 MLOAD DUP1 SWAP2 SUB SWAP1 REVERT JUMPDEST PUSH1 0x5 PUSH0 DUP5 DUP2 MSTORE PUSH1 0x20 ADD SWAP1 DUP2 MSTORE PUSH1 0x20 ADD PUSH0 KECCAK256 PUSH0 CALLER PUSH20 0xFFFFFFFFFFFFFFFFFFFFFFFFFFFFFFFFFFFFFFFF AND PUSH20 0xFFFFFFFFFFFFFFFFFFFFFFFFFFFFFFFFFFFFFFFF AND DUP2 MSTORE PUSH1 0x20 ADD SWAP1 DUP2 MSTORE PUSH1 0x20 ADD PUSH0 KECCAK256 PUSH0 SWAP1 SLOAD SWAP1 PUSH2 0x100 EXP SWAP1 DIV PUSH1 0xFF AND PUSH2 0x588 JUMPI PUSH1 0x40 MLOAD PUSH32 0x8C379A000000000000000000000000000000000000000000000000000000000 DUP2 MSTORE PUSH1 0x4 ADD PUSH2 0x57F SWAP1 PUSH2 0x19F4 JUMP JUMPDEST PUSH1 0x40 MLOAD DUP1 SWAP2 SUB SWAP1 REVERT JUMPDEST PUSH1 0x1 PUSH1 0x4 DUP5 DUP2 SLOAD DUP2 LT PUSH2 0x59E JUMPI PUSH2 0x59D PUSH2 0x18EF JUMP JUMPDEST JUMPDEST SWAP1 PUSH0 MSTORE PUSH1 0x20 PUSH0 KECCAK256 SWAP1 PUSH1 0x5 MUL ADD PUSH1 0x3 ADD PUSH0 PUSH2 0x100 EXP DUP2 SLOAD DUP2 PUSH1 0xFF MUL NOT AND SWAP1 DUP4 ISZERO ISZERO MUL OR SWAP1 SSTORE POP CALLER PUSH20 0xFFFFFFFFFFFFFFFFFFFFFFFFFFFFFFFFFFFFFFFF AND DUP4 PUSH32 0xBEED812A0535C283C6BC8EDA32DEB53DF2603D7C1B518B07E2BEC1DF38DA8393 PUSH1 0x40 MLOAD PUSH1 0x40 MLOAD DUP1 SWAP2 SUB SWAP1 LOG3 POP POP POP JUMP JUMPDEST PUSH0 DUP1 PUSH1 0x60 PUSH0 DUP1 PUSH0 PUSH1 0x4 DUP8 DUP2 SLOAD DUP2 LT PUSH2 0x627 JUMPI PUSH2 0x626 PUSH2 0x18EF JUMP JUMPDEST JUMPDEST SWAP1 PUSH0 MSTORE PUSH1 0x20 PUSH0 KECCAK256 SWAP1 PUSH1 0x5 MUL ADD SWAP1 POP DUP1 PUSH0 ADD PUSH0 SWAP1 SLOAD SWAP1 PUSH2 0x100 EXP SWAP1 DIV PUSH20 0xFFFFFFFFFFFFFFFFFFFFFFFFFFFFFFFFFFFFFFFF AND DUP2 PUSH1 0x1 ADD SLOAD DUP3 PUSH1 0x2 ADD DUP4 PUSH1 0x3 ADD PUSH0 SWAP1 SLOAD SWAP1 PUSH2 0x100 EXP SWAP1 DIV PUSH1 0xFF AND DUP5 PUSH1 0x4 ADD SLOAD DUP3 DUP1 SLOAD PUSH2 0x683 SWAP1 PUSH2 0x1A3F JUMP JUMPDEST DUP1 PUSH1 0x1F ADD PUSH1 0x20 DUP1 SWAP2 DIV MUL PUSH1 0x20 ADD PUSH1 0x40 MLOAD SWAP1 DUP2 ADD PUSH1 0x40 MSTORE DUP1 SWAP3 SWAP2 SWAP1 DUP2 DUP2 MSTORE PUSH1 0x20 ADD DUP3 DUP1 SLOAD PUSH2 0x6AF SWAP1 PUSH2 0x1A3F JUMP JUMPDEST DUP1 ISZERO PUSH2 0x6FA JUMPI DUP1 PUSH1 0x1F LT PUSH2 0x6D1 JUMPI PUSH2 0x100 DUP1 DUP4 SLOAD DIV MUL DUP4 MSTORE SWAP2 PUSH1 0x20 ADD SWAP2 PUSH2 0x6FA JUMP JUMPDEST DUP3 ADD SWAP2 SWAP1 PUSH0 MSTORE PUSH1 0x20 PUSH0 KECCAK256 SWAP1 JUMPDEST DUP2 SLOAD DUP2 MSTORE SWAP1 PUSH1 0x1 ADD SWAP1 PUSH1 0x20 ADD DUP1 DUP4 GT PUSH2 0x6DD JUMPI DUP3 SWAP1 SUB PUSH1 0x1F AND DUP3 ADD SWAP2 JUMPDEST POP POP POP POP POP SWAP3 POP SWAP6 POP SWAP6 POP SWAP6 POP SWAP6 POP SWAP6 POP POP SWAP2 SWAP4 SWAP6 SWAP1 SWAP3 SWAP5 POP JUMP JUMPDEST PUSH1 0x5 PUSH1 0x20 MSTORE DUP2 PUSH0 MSTORE PUSH1 0x40 PUSH0 KECCAK256 PUSH1 0x20 MSTORE DUP1 PUSH0 MSTORE PUSH1 0x40 PUSH0 KECCAK256 PUSH0 SWAP2 POP SWAP2 POP SWAP1 SLOAD SWAP1 PUSH2 0x100 EXP SWAP1 DIV PUSH1 0xFF AND DUP2 JUMP JUMPDEST PUSH1 0x3 SLOAD DUP2 JUMP JUMPDEST PUSH1 0x4 DUP2 DUP2 SLOAD DUP2 LT PUSH2 0x754 JUMPI PUSH0 DUP1 REVERT JUMPDEST SWAP1 PUSH0 MSTORE PUSH1 0x20 PUSH0 KECCAK256 SWAP1 PUSH1 0x5 MUL ADD PUSH0 SWAP2 POP SWAP1 POP DUP1 PUSH0 ADD PUSH0 SWAP1 SLOAD SWAP1 PUSH2 0x100 EXP SWAP1 DIV PUSH20 0xFFFFFFFFFFFFFFFFFFFFFFFFFFFFFFFFFFFFFFFF AND SWAP1 DUP1 PUSH1 0x1 ADD SLOAD SWAP1 DUP1 PUSH1 0x2 ADD DUP1 SLOAD PUSH2 0x79E SWAP1 PUSH2 0x1A3F JUMP JUMPDEST DUP1 PUSH1 0x1F ADD PUSH1 0x20 DUP1 SWAP2 DIV MUL PUSH1 0x20 ADD PUSH1 0x40 MLOAD SWAP1 DUP2 ADD PUSH1 0x40 MSTORE DUP1 SWAP3 SWAP2 SWAP1 DUP2 DUP2 MSTORE PUSH1 0x20 ADD DUP3 DUP1 SLOAD PUSH2 0x7CA SWAP1 PUSH2 0x1A3F JUMP JUMPDEST DUP1 ISZERO PUSH2 0x815 JUMPI DUP1 PUSH1 0x1F LT PUSH2 0x7EC JUMPI PUSH2 0x100 DUP1 DUP4 SLOAD DIV MUL DUP4 MSTORE SWAP2 PUSH1 0x20 ADD SWAP2 PUSH2 0x815 JUMP JUMPDEST DUP3 ADD SWAP2 SWAP1 PUSH0 MSTORE PUSH1 0x20 PUSH0 KECCAK256 SWAP1 JUMPDEST DUP2 SLOAD DUP2 MSTORE SWAP1 PUSH1 0x1 ADD SWAP1 PUSH1 0x20 ADD DUP1 DUP4 GT PUSH2 0x7F8 JUMPI DUP3 SWAP1 SUB PUSH1 0x1F AND DUP3 ADD SWAP2 JUMPDEST POP POP POP POP POP SWAP1 DUP1 PUSH1 0x3 ADD PUSH0 SWAP1 SLOAD SWAP1 PUSH2 0x100 EXP SWAP1 DIV PUSH1 0xFF AND SWAP1 DUP1 PUSH1 0x4 ADD SLOAD SWAP1 POP DUP6 JUMP JUMPDEST PUSH1 0x60 PUSH1 0x1 DUP1 SLOAD DUP1 PUSH1 0x20 MUL PUSH1 0x20 ADD PUSH1 0x40 MLOAD SWAP1 DUP2 ADD PUSH1 0x40 MSTORE DUP1 SWAP3 SWAP2 SWAP1 DUP2 DUP2 MSTORE PUSH1 0x20 ADD DUP3 DUP1 SLOAD DUP1 ISZERO PUSH2 0x8B8 JUMPI PUSH1 0x20 MUL DUP3 ADD SWAP2 SWAP1 PUSH0 MSTORE PUSH1 0x20 PUSH0 KECCAK256 SWAP1 JUMPDEST DUP2 PUSH0 SWAP1 SLOAD SWAP1 PUSH2 0x100 EXP SWAP1 DIV PUSH20 0xFFFFFFFFFFFFFFFFFFFFFFFFFFFFFFFFFFFFFFFF AND PUSH20 0xFFFFFFFFFFFFFFFFFFFFFFFFFFFFFFFFFFFFFFFF AND DUP2 MSTORE PUSH1 0x20 ADD SWAP1 PUSH1 0x1 ADD SWAP1 DUP1 DUP4 GT PUSH2 0x86F JUMPI JUMPDEST POP POP POP POP POP SWAP1 POP SWAP1 JUMP JUMPDEST PUSH1 0x2 PUSH0 CALLER PUSH20 0xFFFFFFFFFFFFFFFFFFFFFFFFFFFFFFFFFFFFFFFF AND PUSH20 0xFFFFFFFFFFFFFFFFFFFFFFFFFFFFFFFFFFFFFFFF AND DUP2 MSTORE PUSH1 0x20 ADD SWAP1 DUP2 MSTORE PUSH1 0x20 ADD PUSH0 KECCAK256 PUSH0 SWAP1 SLOAD SWAP1 PUSH2 0x100 EXP SWAP1 DIV PUSH1 0xFF AND PUSH2 0x94B JUMPI PUSH1 0x40 MLOAD PUSH32 0x8C379A000000000000000000000000000000000000000000000000000000000 DUP2 MSTORE PUSH1 0x4 ADD PUSH2 0x942 SWAP1 PUSH2 0x1869 JUMP JUMPDEST PUSH1 0x40 MLOAD DUP1 SWAP2 SUB SWAP1 REVERT JUMPDEST DUP1 PUSH1 0x4 DUP1 SLOAD SWAP1 POP DUP2 LT PUSH2 0x993 JUMPI PUSH1 0x40 MLOAD PUSH32 0x8C379A000000000000000000000000000000000000000000000000000000000 DUP2 MSTORE PUSH1 0x4 ADD PUSH2 0x98A SWAP1 PUSH2 0x18D1 JUMP JUMPDEST PUSH1 0x40 MLOAD DUP1 SWAP2 SUB SWAP1 REVERT JUMPDEST DUP2 PUSH1 0x4 DUP2 DUP2 SLOAD DUP2 LT PUSH2 0x9A8 JUMPI PUSH2 0x9A7 PUSH2 0x18EF JUMP JUMPDEST JUMPDEST SWAP1 PUSH0 MSTORE PUSH1 0x20 PUSH0 KECCAK256 SWAP1 PUSH1 0x5 MUL ADD PUSH1 0x3 ADD PUSH0 SWAP1 SLOAD SWAP1 PUSH2 0x100 EXP SWAP1 DIV PUSH1 0xFF AND ISZERO PUSH2 0xA04 JUMPI PUSH1 0x40 MLOAD PUSH32 0x8C379A000000000000000000000000000000000000000000000000000000000 DUP2 MSTORE PUSH1 0x4 ADD PUSH2 0x9FB SWAP1 PUSH2 0x1966 JUMP JUMPDEST PUSH1 0x40 MLOAD DUP1 SWAP2 SUB SWAP1 REVERT JUMPDEST PUSH1 0x5 PUSH0 DUP5 DUP2 MSTORE PUSH1 0x20 ADD SWAP1 DUP2 MSTORE PUSH1 0x20 ADD PUSH0 KECCAK256 PUSH0 CALLER PUSH20 0xFFFFFFFFFFFFFFFFFFFFFFFFFFFFFFFFFFFFFFFF AND PUSH20 0xFFFFFFFFFFFFFFFFFFFFFFFFFFFFFFFFFFFFFFFF AND DUP2 MSTORE PUSH1 0x20 ADD SWAP1 DUP2 MSTORE PUSH1 0x20 ADD PUSH0 KECCAK256 PUSH0 SWAP1 SLOAD SWAP1 PUSH2 0x100 EXP SWAP1 DIV PUSH1 0xFF AND ISZERO PUSH2 0xA9D JUMPI PUSH1 0x40 MLOAD PUSH32 0x8C379A000000000000000000000000000000000000000000000000000000000 DUP2 MSTORE PUSH1 0x4 ADD PUSH2 0xA94 SWAP1 PUSH2 0x1AB9 JUMP JUMPDEST PUSH1 0x40 MLOAD DUP1 SWAP2 SUB SWAP1 REVERT JUMPDEST PUSH1 0x1 PUSH1 0x5 PUSH0 DUP6 DUP2 MSTORE PUSH1 0x20 ADD SWAP1 DUP2 MSTORE PUSH1 0x20 ADD PUSH0 KECCAK256 PUSH0 CALLER PUSH20 0xFFFFFFFFFFFFFFFFFFFFFFFFFFFFFFFFFFFFFFFF AND PUSH20 0xFFFFFFFFFFFFFFFFFFFFFFFFFFFFFFFFFFFFFFFF AND DUP2 MSTORE PUSH1 0x20 ADD SWAP1 DUP2 MSTORE PUSH1 0x20 ADD PUSH0 KECCAK256 PUSH0 PUSH2 0x100 EXP DUP2 SLOAD DUP2 PUSH1 0xFF MUL NOT AND SWAP1 DUP4 ISZERO ISZERO MUL OR SWAP1 SSTORE POP PUSH1 0x1 PUSH1 0x4 DUP5 DUP2 SLOAD DUP2 LT PUSH2 0xB17 JUMPI PUSH2 0xB16 PUSH2 0x18EF JUMP JUMPDEST JUMPDEST SWAP1 PUSH0 MSTORE PUSH1 0x20 PUSH0 KECCAK256 SWAP1 PUSH1 0x5 MUL ADD PUSH1 0x4 ADD PUSH0 DUP3 DUP3 SLOAD PUSH2 0xB34 SWAP2 SWAP1 PUSH2 0x1B04 JUMP JUMPDEST SWAP3 POP POP DUP2 SWAP1 SSTORE POP CALLER PUSH20 0xFFFFFFFFFFFFFFFFFFFFFFFFFFFFFFFFFFFFFFFF AND DUP4 PUSH32 0x15C2F311C9E0F53B50388279894AEFF029A3457884A6601E924FCA879E12ADCC PUSH1 0x40 MLOAD PUSH1 0x40 MLOAD DUP1 SWAP2 SUB SWAP1 LOG3 POP POP POP JUMP JUMPDEST PUSH1 0x2 PUSH0 CALLER PUSH20 0xFFFFFFFFFFFFFFFFFFFFFFFFFFFFFFFFFFFFFFFF AND PUSH20 0xFFFFFFFFFFFFFFFFFFFFFFFFFFFFFFFFFFFFFFFF AND DUP2 MSTORE PUSH1 0x20 ADD SWAP1 DUP2 MSTORE PUSH1 0x20 ADD PUSH0 KECCAK256 PUSH0 SWAP1 SLOAD SWAP1 PUSH2 0x100 EXP SWAP1 DIV PUSH1 0xFF AND PUSH2 0xC0D JUMPI PUSH1 0x40 MLOAD PUSH32 0x8C379A000000000000000000000000000000000000000000000000000000000 DUP2 MSTORE PUSH1 0x4 ADD PUSH2 0xC04 SWAP1 PUSH2 0x1869 JUMP JUMPDEST PUSH1 0x40 MLOAD DUP1 SWAP2 SUB SWAP1 REVERT JUMPDEST PUSH0 PUSH20 0xFFFFFFFFFFFFFFFFFFFFFFFFFFFFFFFFFFFFFFFF AND DUP5 PUSH20 0xFFFFFFFFFFFFFFFFFFFFFFFFFFFFFFFFFFFFFFFF AND SUB PUSH2 0xC7B JUMPI PUSH1 0x40 MLOAD PUSH32 0x8C379A000000000000000000000000000000000000000000000000000000000 DUP2 MSTORE PUSH1 0x4 ADD PUSH2 0xC72 SWAP1 PUSH2 0x1B81 JUMP JUMPDEST PUSH1 0x40 MLOAD DUP1 SWAP2 SUB SWAP1 REVERT JUMPDEST SELFBALANCE DUP4 GT ISZERO PUSH2 0xCBE JUMPI PUSH1 0x40 MLOAD PUSH32 0x8C379A000000000000000000000000000000000000000000000000000000000 DUP2 MSTORE PUSH1 0x4 ADD PUSH2 0xCB5 SWAP1 PUSH2 0x1BE9 JUMP JUMPDEST PUSH1 0x40 MLOAD DUP1 SWAP2 SUB SWAP1 REVERT JUMPDEST PUSH0 PUSH1 0x4 DUP1 SLOAD SWAP1 POP SWAP1 POP PUSH1 0x4 PUSH1 0x40 MLOAD DUP1 PUSH1 0xA0 ADD PUSH1 0x40 MSTORE DUP1 DUP8 PUSH20 0xFFFFFFFFFFFFFFFFFFFFFFFFFFFFFFFFFFFFFFFF AND DUP2 MSTORE PUSH1 0x20 ADD DUP7 DUP2 MSTORE PUSH1 0x20 ADD DUP6 DUP6 DUP1 DUP1 PUSH1 0x1F ADD PUSH1 0x20 DUP1 SWAP2 DIV MUL PUSH1 0x20 ADD PUSH1 0x40 MLOAD SWAP1 DUP2 ADD PUSH1 0x40 MSTORE DUP1 SWAP4 SWAP3 SWAP2 SWAP1 DUP2 DUP2 MSTORE PUSH1 0x20 ADD DUP4 DUP4 DUP1 DUP3 DUP5 CALLDATACOPY PUSH0 DUP2 DUP5 ADD MSTORE PUSH1 0x1F NOT PUSH1 0x1F DUP3 ADD AND SWAP1 POP DUP1 DUP4 ADD SWAP3 POP POP POP POP POP POP POP DUP2 MSTORE PUSH1 0x20 ADD PUSH0 ISZERO ISZERO DUP2 MSTORE PUSH1 0x20 ADD PUSH0 DUP2 MSTORE POP SWAP1 DUP1 PUSH1 0x1 DUP2 SLOAD ADD DUP1 DUP3 SSTORE DUP1 SWAP2 POP POP PUSH1 0x1 SWAP1 SUB SWAP1 PUSH0 MSTORE PUSH1 0x20 PUSH0 KECCAK256 SWAP1 PUSH1 0x5 MUL ADD PUSH0 SWAP1 SWAP2 SWAP1 SWAP2 SWAP1 SWAP2 POP PUSH0 DUP3 ADD MLOAD DUP2 PUSH0 ADD PUSH0 PUSH2 0x100 EXP DUP2 SLOAD DUP2 PUSH20 0xFFFFFFFFFFFFFFFFFFFFFFFFFFFFFFFFFFFFFFFF MUL NOT AND SWAP1 DUP4 PUSH20 0xFFFFFFFFFFFFFFFFFFFFFFFFFFFFFFFFFFFFFFFF AND MUL OR SWAP1 SSTORE POP PUSH1 0x20 DUP3 ADD MLOAD DUP2 PUSH1 0x1 ADD SSTORE PUSH1 0x40 DUP3 ADD MLOAD DUP2 PUSH1 0x2 ADD SWAP1 DUP2 PUSH2 0xDD4 SWAP2 SWAP1 PUSH2 0x1DD1 JUMP JUMPDEST POP PUSH1 0x60 DUP3 ADD MLOAD DUP2 PUSH1 0x3 ADD PUSH0 PUSH2 0x100 EXP DUP2 SLOAD DUP2 PUSH1 0xFF MUL NOT AND SWAP1 DUP4 ISZERO ISZERO MUL OR SWAP1 SSTORE POP PUSH1 0x80 DUP3 ADD MLOAD DUP2 PUSH1 0x4 ADD SSTORE POP POP CALLER PUSH20 0xFFFFFFFFFFFFFFFFFFFFFFFFFFFFFFFFFFFFFFFF AND DUP2 PUSH32 0xF13A7A4144A3232FD093FCA16BE52A8223BAD74CEE86D5FA8966C7061E75BFD3 DUP8 DUP8 DUP8 DUP8 PUSH1 0x40 MLOAD PUSH2 0xE4D SWAP5 SWAP4 SWAP3 SWAP2 SWAP1 PUSH2 0x1EDA JUMP JUMPDEST PUSH1 0x40 MLOAD DUP1 SWAP2 SUB SWAP1 LOG3 POP POP POP POP POP JUMP JUMPDEST PUSH1 0x2 PUSH0 CALLER PUSH20 0xFFFFFFFFFFFFFFFFFFFFFFFFFFFFFFFFFFFFFFFF AND PUSH20 0xFFFFFFFFFFFFFFFFFFFFFFFFFFFFFFFFFFFFFFFF AND DUP2 MSTORE PUSH1 0x20 ADD SWAP1 DUP2 MSTORE PUSH1 0x20 ADD PUSH0 KECCAK256 PUSH0 SWAP1 SLOAD SWAP1 PUSH2 0x100 EXP SWAP1 DIV PUSH1 0xFF AND PUSH2 0xEE5 JUMPI PUSH1 0x40 MLOAD PUSH32 0x8C379A000000000000000000000000000000000000000000000000000000000 DUP2 MSTORE PUSH1 0x4 ADD PUSH2 0xEDC SWAP1 PUSH2 0x1869 JUMP JUMPDEST PUSH1 0x40 MLOAD DUP1 SWAP2 SUB SWAP1 REVERT JUMPDEST PUSH0 DUP2 GT DUP1 ISZERO PUSH2 0xEF9 JUMPI POP PUSH1 0x1 DUP1 SLOAD SWAP1 POP DUP2 GT ISZERO JUMPDEST PUSH2 0xF38 JUMPI PUSH1 0x40 MLOAD PUSH32 0x8C379A000000000000000000000000000000000000000000000000000000000 DUP2 MSTORE PUSH1 0x4 ADD PUSH2 0xF2F SWAP1 PUSH2 0x1F62 JUMP JUMPDEST PUSH1 0x40 MLOAD DUP1 SWAP2 SUB SWAP1 REVERT JUMPDEST DUP1 PUSH1 0x3 DUP2 SWAP1 SSTORE POP PUSH32 0xADFA8ECB21B6962EBCD0ADBD9AB985B7B4C5B5EB3B0DEAD683171565C7BFE171 DUP2 PUSH1 0x40 MLOAD PUSH2 0xF6E SWAP2 SWAP1 PUSH2 0x14BF JUMP JUMPDEST PUSH1 0x40 MLOAD DUP1 SWAP2 SUB SWAP1 LOG1 POP JUMP JUMPDEST PUSH1 0x2 PUSH0 CALLER PUSH20 0xFFFFFFFFFFFFFFFFFFFFFFFFFFFFFFFFFFFFFFFF AND PUSH20 0xFFFFFFFFFFFFFFFFFFFFFFFFFFFFFFFFFFFFFFFF AND DUP2 MSTORE PUSH1 0x20 ADD SWAP1 DUP2 MSTORE PUSH1 0x20 ADD PUSH0 KECCAK256 PUSH0 SWAP1 SLOAD SWAP1 PUSH2 0x100 EXP SWAP1 DIV PUSH1 0xFF AND PUSH2 0x1002 JUMPI PUSH1 0x40 MLOAD PUSH32 0x8C379A000000000000000000000000000000000000000000000000000000000 DUP2 MSTORE PUSH1 0x4 ADD PUSH2 0xFF9 SWAP1 PUSH2 0x1869 JUMP JUMPDEST PUSH1 0x40 MLOAD DUP1 SWAP2 SUB SWAP1 REVERT JUMPDEST DUP1 PUSH1 0x4 DUP1 SLOAD SWAP1 POP DUP2 LT PUSH2 0x104A JUMPI PUSH1 0x40 MLOAD PUSH32 0x8C379A000000000000000000000000000000000000000000000000000000000 DUP2 MSTORE PUSH1 0x4 ADD PUSH2 0x1041 SWAP1 PUSH2 0x18D1 JUMP JUMPDEST PUSH1 0x40 MLOAD DUP1 SWAP2 SUB SWAP1 REVERT JUMPDEST DUP2 PUSH1 0x4 DUP2 DUP2 SLOAD DUP2 LT PUSH2 0x105F JUMPI PUSH2 0x105E PUSH2 0x18EF JUMP JUMPDEST JUMPDEST SWAP1 PUSH0 MSTORE PUSH1 0x20 PUSH0 KECCAK256 SWAP1 PUSH1 0x5 MUL ADD PUSH1 0x3 ADD PUSH0 SWAP1 SLOAD SWAP1 PUSH2 0x100 EXP SWAP1 DIV PUSH1 0xFF AND ISZERO PUSH2 0x10BB JUMPI PUSH1 0x40 MLOAD PUSH32 0x8C379A000000000000000000000000000000000000000000000000000000000 DUP2 MSTORE PUSH1 0x4 ADD PUSH2 0x10B2 SWAP1 PUSH2 0x1966 JUMP JUMPDEST PUSH1 0x40 MLOAD DUP1 SWAP2 SUB SWAP1 REVERT JUMPDEST PUSH2 0x10C3 PUSH2 0x139C JUMP JUMPDEST PUSH0 PUSH1 0x4 DUP5 DUP2 SLOAD DUP2 LT PUSH2 0x10D8 JUMPI PUSH2 0x10D7 PUSH2 0x18EF JUMP JUMPDEST JUMPDEST SWAP1 PUSH0 MSTORE PUSH1 0x20 PUSH0 KECCAK256 SWAP1 PUSH1 0x5 MUL ADD SWAP1 POP PUSH1 0x3 SLOAD DUP2 PUSH1 0x4 ADD SLOAD LT ISZERO PUSH2 0x112F JUMPI PUSH1 0x40 MLOAD PUSH32 0x8C379A000000000000000000000000000000000000000000000000000000000 DUP2 MSTORE PUSH1 0x4 ADD PUSH2 0x1126 SWAP1 PUSH2 0x1FCA JUMP JUMPDEST PUSH1 0x40 MLOAD DUP1 SWAP2 SUB SWAP1 REVERT JUMPDEST PUSH0 PUSH20 0xFFFFFFFFFFFFFFFFFFFFFFFFFFFFFFFFFFFFFFFF AND DUP2 PUSH0 ADD PUSH0 SWAP1 SLOAD SWAP1 PUSH2 0x100 EXP SWAP1 DIV PUSH20 0xFFFFFFFFFFFFFFFFFFFFFFFFFFFFFFFFFFFFFFFF AND PUSH20 0xFFFFFFFFFFFFFFFFFFFFFFFFFFFFFFFFFFFFFFFF AND SUB PUSH2 0x11BF JUMPI PUSH1 0x40 MLOAD PUSH32 0x8C379A000000000000000000000000000000000000000000000000000000000 DUP2 MSTORE PUSH1 0x4 ADD PUSH2 0x11B6 SWAP1 PUSH2 0x1B81 JUMP JUMPDEST PUSH1 0x40 MLOAD DUP1 SWAP2 SUB SWAP1 REVERT JUMPDEST PUSH1 0x1 DUP2 PUSH1 0x3 ADD PUSH0 PUSH2 0x100 EXP DUP2 SLOAD DUP2 PUSH1 0xFF MUL NOT AND SWAP1 DUP4 ISZERO ISZERO MUL OR SWAP1 SSTORE POP CALLER PUSH20 0xFFFFFFFFFFFFFFFFFFFFFFFFFFFFFFFFFFFFFFFF AND DUP5 PUSH32 0xEFC13BDCF58F184EA7CAE26B499FB33B539E01D0197CEA456F3ADA289B8CF19B PUSH1 0x40 MLOAD PUSH1 0x40 MLOAD DUP1 SWAP2 SUB SWAP1 LOG3 PUSH0 DUP2 PUSH0 ADD PUSH0 SWAP1 SLOAD SWAP1 PUSH2 0x100 EXP SWAP1 DIV PUSH20 0xFFFFFFFFFFFFFFFFFFFFFFFFFFFFFFFFFFFFFFFF AND PUSH20 0xFFFFFFFFFFFFFFFFFFFFFFFFFFFFFFFFFFFFFFFF AND DUP3 PUSH1 0x1 ADD SLOAD PUSH3 0x493E0 SWAP1 DUP5 PUSH1 0x2 ADD PUSH1 0x40 MLOAD PUSH2 0x1274 SWAP2 SWAP1 PUSH2 0x2072 JUMP JUMPDEST PUSH0 PUSH1 0x40 MLOAD DUP1 DUP4 SUB DUP2 DUP6 DUP9 DUP9 CALL SWAP4 POP POP POP POP RETURNDATASIZE DUP1 PUSH0 DUP2 EQ PUSH2 0x12AF JUMPI PUSH1 0x40 MLOAD SWAP2 POP PUSH1 0x1F NOT PUSH1 0x3F RETURNDATASIZE ADD AND DUP3 ADD PUSH1 0x40 MSTORE RETURNDATASIZE DUP3 MSTORE RETURNDATASIZE PUSH0 PUSH1 0x20 DUP5 ADD RETURNDATACOPY PUSH2 0x12B4 JUMP JUMPDEST PUSH1 0x60 SWAP2 POP JUMPDEST POP POP SWAP1 POP DUP1 PUSH2 0x138D JUMPI PUSH0 DUP3 PUSH1 0x3 ADD PUSH0 PUSH2 0x100 EXP DUP2 SLOAD DUP2 PUSH1 0xFF MUL NOT AND SWAP1 DUP4 ISZERO ISZERO MUL OR SWAP1 SSTORE POP DUP2 PUSH0 ADD PUSH0 SWAP1 SLOAD SWAP1 PUSH2 0x100 EXP SWAP1 DIV PUSH20 0xFFFFFFFFFFFFFFFFFFFFFFFFFFFFFFFFFFFFFFFF AND PUSH20 0xFFFFFFFFFFFFFFFFFFFFFFFFFFFFFFFFFFFFFFFF AND DUP6 PUSH32 0xB48CB383B633FA0880705B6499360E47282D8E5147C8932C7447A01A13392548 DUP5 PUSH1 0x1 ADD SLOAD DUP6 PUSH1 0x2 ADD PUSH1 0x40 MLOAD PUSH2 0x134A SWAP3 SWAP2 SWAP1 PUSH2 0x2109 JUMP JUMPDEST PUSH1 0x40 MLOAD DUP1 SWAP2 SUB SWAP1 LOG3 PUSH1 0x40 MLOAD PUSH32 0x8C379A000000000000000000000000000000000000000000000000000000000 DUP2 MSTORE PUSH1 0x4 ADD PUSH2 0x1384 SWAP1 PUSH2 0x2181 JUMP JUMPDEST PUSH1 0x40 MLOAD DUP1 SWAP2 SUB SWAP1 REVERT JUMPDEST POP POP PUSH2 0x1397 PUSH2 0x13E9 JUMP JUMPDEST POP POP POP JUMP JUMPDEST PUSH1 0x2 PUSH0 SLOAD SUB PUSH2 0x13E0 JUMPI PUSH1 0x40 MLOAD PUSH32 0x8C379A000000000000000000000000000000000000000000000000000000000 DUP2 MSTORE PUSH1 0x4 ADD PUSH2 0x13D7 SWAP1 PUSH2 0x21E9 JUMP JUMPDEST PUSH1 0x40 MLOAD DUP1 SWAP2 SUB SWAP1 REVERT JUMPDEST PUSH1 0x2 PUSH0 DUP2 SWAP1 SSTORE POP JUMP JUMPDEST PUSH1 0x1 PUSH0 DUP2 SWAP1 SSTORE POP JUMP JUMPDEST PUSH0 DUP1 REVERT JUMPDEST PUSH0 DUP1 REVERT JUMPDEST PUSH0 DUP2 SWAP1 POP SWAP2 SWAP1 POP JUMP JUMPDEST PUSH2 0x140C DUP2 PUSH2 0x13FA JUMP JUMPDEST DUP2 EQ PUSH2 0x1416 JUMPI PUSH0 DUP1 REVERT JUMPDEST POP JUMP JUMPDEST PUSH0 DUP2 CALLDATALOAD SWAP1 POP PUSH2 0x1427 DUP2 PUSH2 0x1403 JUMP JUMPDEST SWAP3 SWAP2 POP POP JUMP JUMPDEST PUSH0 PUSH1 0x20 DUP3 DUP5 SUB SLT ISZERO PUSH2 0x1442 JUMPI PUSH2 0x1441 PUSH2 0x13F2 JUMP JUMPDEST JUMPDEST PUSH0 PUSH2 0x144F DUP5 DUP3 DUP6 ADD PUSH2 0x1419 JUMP JUMPDEST SWAP2 POP POP SWAP3 SWAP2 POP POP JUMP JUMPDEST PUSH0 PUSH20 0xFFFFFFFFFFFFFFFFFFFFFFFFFFFFFFFFFFFFFFFF DUP3 AND SWAP1 POP SWAP2 SWAP1 POP JUMP JUMPDEST PUSH0 PUSH2 0x1481 DUP3 PUSH2 0x1458 JUMP JUMPDEST SWAP1 POP SWAP2 SWAP1 POP JUMP JUMPDEST PUSH2 0x1491 DUP2 PUSH2 0x1477 JUMP JUMPDEST DUP3 MSTORE POP POP JUMP JUMPDEST PUSH0 PUSH1 0x20 DUP3 ADD SWAP1 POP PUSH2 0x14AA PUSH0 DUP4 ADD DUP5 PUSH2 0x1488 JUMP JUMPDEST SWAP3 SWAP2 POP POP JUMP JUMPDEST PUSH2 0x14B9 DUP2 PUSH2 0x13FA JUMP JUMPDEST DUP3 MSTORE POP POP JUMP JUMPDEST PUSH0 PUSH1 0x20 DUP3 ADD SWAP1 POP PUSH2 0x14D2 PUSH0 DUP4 ADD DUP5 PUSH2 0x14B0 JUMP JUMPDEST SWAP3 SWAP2 POP POP JUMP JUMPDEST PUSH2 0x14E1 DUP2 PUSH2 0x1477 JUMP JUMPDEST DUP2 EQ PUSH2 0x14EB JUMPI PUSH0 DUP1 REVERT JUMPDEST POP JUMP JUMPDEST PUSH0 DUP2 CALLDATALOAD SWAP1 POP PUSH2 0x14FC DUP2 PUSH2 0x14D8 JUMP JUMPDEST SWAP3 SWAP2 POP POP JUMP JUMPDEST PUSH0 PUSH1 0x20 DUP3 DUP5 SUB SLT ISZERO PUSH2 0x1517 JUMPI PUSH2 0x1516 PUSH2 0x13F2 JUMP JUMPDEST JUMPDEST PUSH0 PUSH2 0x1524 DUP5 DUP3 DUP6 ADD PUSH2 0x14EE JUMP JUMPDEST SWAP2 POP POP SWAP3 SWAP2 POP POP JUMP JUMPDEST PUSH0 DUP2 ISZERO ISZERO SWAP1 POP SWAP2 SWAP1 POP JUMP JUMPDEST PUSH2 0x1541 DUP2 PUSH2 0x152D JUMP JUMPDEST DUP3 MSTORE POP POP JUMP JUMPDEST PUSH0 PUSH1 0x20 DUP3 ADD SWAP1 POP PUSH2 0x155A PUSH0 DUP4 ADD DUP5 PUSH2 0x1538 JUMP JUMPDEST SWAP3 SWAP2 POP POP JUMP JUMPDEST PUSH0 DUP2 MLOAD SWAP1 POP SWAP2 SWAP1 POP JUMP JUMPDEST PUSH0 DUP3 DUP3 MSTORE PUSH1 0x20 DUP3 ADD SWAP1 POP SWAP3 SWAP2 POP POP JUMP JUMPDEST DUP3 DUP2 DUP4 MCOPY PUSH0 DUP4 DUP4 ADD MSTORE POP POP POP JUMP JUMPDEST PUSH0 PUSH1 0x1F NOT PUSH1 0x1F DUP4 ADD AND SWAP1 POP SWAP2 SWAP1 POP JUMP JUMPDEST PUSH0 PUSH2 0x15A2 DUP3 PUSH2 0x1560 JUMP JUMPDEST PUSH2 0x15AC DUP2 DUP6 PUSH2 0x156A JUMP JUMPDEST SWAP4 POP PUSH2 0x15BC DUP2 DUP6 PUSH1 0x20 DUP7 ADD PUSH2 0x157A JUMP JUMPDEST PUSH2 0x15C5 DUP2 PUSH2 0x1588 JUMP JUMPDEST DUP5 ADD SWAP2 POP POP SWAP3 SWAP2 POP POP JUMP JUMPDEST PUSH0 PUSH1 0xA0 DUP3 ADD SWAP1 POP PUSH2 0x15E3 PUSH0 DUP4 ADD DUP9 PUSH2 0x1488 JUMP JUMPDEST PUSH2 0x15F0 PUSH1 0x20 DUP4 ADD DUP8 PUSH2 0x14B0 JUMP JUMPDEST DUP2 DUP2 SUB PUSH1 0x40 DUP4 ADD MSTORE PUSH2 0x1602 DUP2 DUP7 PUSH2 0x1598 JUMP JUMPDEST SWAP1 POP PUSH2 0x1611 PUSH1 0x60 DUP4 ADD DUP6 PUSH2 0x1538 JUMP JUMPDEST PUSH2 0x161E PUSH1 0x80 DUP4 ADD DUP5 PUSH2 0x14B0 JUMP JUMPDEST SWAP7 SWAP6 POP POP POP POP POP POP JUMP JUMPDEST PUSH0 DUP1 PUSH1 0x40 DUP4 DUP6 SUB SLT ISZERO PUSH2 0x163E JUMPI PUSH2 0x163D PUSH2 0x13F2 JUMP JUMPDEST JUMPDEST PUSH0 PUSH2 0x164B DUP6 DUP3 DUP7 ADD PUSH2 0x1419 JUMP JUMPDEST SWAP3 POP POP PUSH1 0x20 PUSH2 0x165C DUP6 DUP3 DUP7 ADD PUSH2 0x14EE JUMP JUMPDEST SWAP2 POP POP SWAP3 POP SWAP3 SWAP1 POP JUMP JUMPDEST PUSH0 DUP2 MLOAD SWAP1 POP SWAP2 SWAP1 POP JUMP JUMPDEST PUSH0 DUP3 DUP3 MSTORE PUSH1 0x20 DUP3 ADD SWAP1 POP SWAP3 SWAP2 POP POP JUMP JUMPDEST PUSH0 DUP2 SWAP1 POP PUSH1 0x20 DUP3 ADD SWAP1 POP SWAP2 SWAP1 POP JUMP JUMPDEST PUSH2 0x1698 DUP2 PUSH2 0x1477 JUMP JUMPDEST DUP3 MSTORE POP POP JUMP JUMPDEST PUSH0 PUSH2 0x16A9 DUP4 DUP4 PUSH2 0x168F JUMP JUMPDEST PUSH1 0x20 DUP4 ADD SWAP1 POP SWAP3 SWAP2 POP POP JUMP JUMPDEST PUSH0 PUSH1 0x20 DUP3 ADD SWAP1 POP SWAP2 SWAP1 POP JUMP JUMPDEST PUSH0 PUSH2 0x16CB DUP3 PUSH2 0x1666 JUMP JUMPDEST PUSH2 0x16D5 DUP2 DUP6 PUSH2 0x1670 JUMP JUMPDEST SWAP4 POP PUSH2 0x16E0 DUP4 PUSH2 0x1680 JUMP JUMPDEST DUP1 PUSH0 JUMPDEST DUP4 DUP2 LT ISZERO PUSH2 0x1710 JUMPI DUP2 MLOAD PUSH2 0x16F7 DUP9 DUP3 PUSH2 0x169E JUMP JUMPDEST SWAP8 POP PUSH2 0x1702 DUP4 PUSH2 0x16B5 JUMP JUMPDEST SWAP3 POP POP PUSH1 0x1 DUP2 ADD SWAP1 POP PUSH2 0x16E3 JUMP JUMPDEST POP DUP6 SWAP4 POP POP POP POP SWAP3 SWAP2 POP POP JUMP JUMPDEST PUSH0 PUSH1 0x20 DUP3 ADD SWAP1 POP DUP2 DUP2 SUB PUSH0 DUP4 ADD MSTORE PUSH2 0x1735 DUP2 DUP5 PUSH2 0x16C1 JUMP JUMPDEST SWAP1 POP SWAP3 SWAP2 POP POP JUMP JUMPDEST PUSH0 DUP1 REVERT JUMPDEST PUSH0 DUP1 REVERT JUMPDEST PUSH0 DUP1 REVERT JUMPDEST PUSH0 DUP1 DUP4 PUSH1 0x1F DUP5 ADD SLT PUSH2 0x175E JUMPI PUSH2 0x175D PUSH2 0x173D JUMP JUMPDEST JUMPDEST DUP3 CALLDATALOAD SWAP1 POP PUSH8 0xFFFFFFFFFFFFFFFF DUP2 GT ISZERO PUSH2 0x177B JUMPI PUSH2 0x177A PUSH2 0x1741 JUMP JUMPDEST JUMPDEST PUSH1 0x20 DUP4 ADD SWAP2 POP DUP4 PUSH1 0x1 DUP3 MUL DUP4 ADD GT ISZERO PUSH2 0x1797 JUMPI PUSH2 0x1796 PUSH2 0x1745 JUMP JUMPDEST JUMPDEST SWAP3 POP SWAP3 SWAP1 POP JUMP JUMPDEST PUSH0 DUP1 PUSH0 DUP1 PUSH1 0x60 DUP6 DUP8 SUB SLT ISZERO PUSH2 0x17B6 JUMPI PUSH2 0x17B5 PUSH2 0x13F2 JUMP JUMPDEST JUMPDEST PUSH0 PUSH2 0x17C3 DUP8 DUP3 DUP9 ADD PUSH2 0x14EE JUMP JUMPDEST SWAP5 POP POP PUSH1 0x20 PUSH2 0x17D4 DUP8 DUP3 DUP9 ADD PUSH2 0x1419 JUMP JUMPDEST SWAP4 POP POP PUSH1 0x40 DUP6 ADD CALLDATALOAD PUSH8 0xFFFFFFFFFFFFFFFF DUP2 GT ISZERO PUSH2 0x17F5 JUMPI PUSH2 0x17F4 PUSH2 0x13F6 JUMP JUMPDEST JUMPDEST PUSH2 0x1801 DUP8 DUP3 DUP9 ADD PUSH2 0x1749 JUMP JUMPDEST SWAP3 POP SWAP3 POP POP SWAP3 SWAP6 SWAP2 SWAP5 POP SWAP3 POP JUMP JUMPDEST PUSH0 DUP3 DUP3 MSTORE PUSH1 0x20 DUP3 ADD SWAP1 POP SWAP3 SWAP2 POP POP JUMP JUMPDEST PUSH32 0x4E6F7420616E206F776E65720000000000000000000000000000000000000000 PUSH0 DUP3 ADD MSTORE POP JUMP JUMPDEST PUSH0 PUSH2 0x1853 PUSH1 0xC DUP4 PUSH2 0x180F JUMP JUMPDEST SWAP2 POP PUSH2 0x185E DUP3 PUSH2 0x181F JUMP JUMPDEST PUSH1 0x20 DUP3 ADD SWAP1 POP SWAP2 SWAP1 POP JUMP JUMPDEST PUSH0 PUSH1 0x20 DUP3 ADD SWAP1 POP DUP2 DUP2 SUB PUSH0 DUP4 ADD MSTORE PUSH2 0x1880 DUP2 PUSH2 0x1847 JUMP JUMPDEST SWAP1 POP SWAP2 SWAP1 POP JUMP JUMPDEST PUSH32 0x5472616E73616374696F6E20646F6573206E6F74206578697374000000000000 PUSH0 DUP3 ADD MSTORE POP JUMP JUMPDEST PUSH0 PUSH2 0x18BB PUSH1 0x1A DUP4 PUSH2 0x180F JUMP JUMPDEST SWAP2 POP PUSH2 0x18C6 DUP3 PUSH2 0x1887 JUMP JUMPDEST PUSH1 0x20 DUP3 ADD SWAP1 POP SWAP2 SWAP1 POP JUMP JUMPDEST PUSH0 PUSH1 0x20 DUP3 ADD SWAP1 POP DUP2 DUP2 SUB PUSH0 DUP4 ADD MSTORE PUSH2 0x18E8 DUP2 PUSH2 0x18AF JUMP JUMPDEST SWAP1 POP SWAP2 SWAP1 POP JUMP JUMPDEST PUSH32 0x4E487B7100000000000000000000000000000000000000000000000000000000 PUSH0 MSTORE PUSH1 0x32 PUSH1 0x4 MSTORE PUSH1 0x24 PUSH0 REVERT JUMPDEST PUSH32 0x5472616E73616374696F6E20616C726561647920657865637574656400000000 PUSH0 DUP3 ADD MSTORE POP JUMP JUMPDEST PUSH0 PUSH2 0x1950 PUSH1 0x1C DUP4 PUSH2 0x180F JUMP JUMPDEST SWAP2 POP PUSH2 0x195B DUP3 PUSH2 0x191C JUMP JUMPDEST PUSH1 0x20 DUP3 ADD SWAP1 POP SWAP2 SWAP1 POP JUMP JUMPDEST PUSH0 PUSH1 0x20 DUP3 ADD SWAP1 POP DUP2 DUP2 SUB PUSH0 DUP4 ADD MSTORE PUSH2 0x197D DUP2 PUSH2 0x1944 JUMP JUMPDEST SWAP1 POP SWAP2 SWAP1 POP JUMP JUMPDEST PUSH32 0x596F752068617665206E6F7420636F6E6669726D65642074686973207472616E PUSH0 DUP3 ADD MSTORE PUSH32 0x73616374696F6E00000000000000000000000000000000000000000000000000 PUSH1 0x20 DUP3 ADD MSTORE POP JUMP JUMPDEST PUSH0 PUSH2 0x19DE PUSH1 0x27 DUP4 PUSH2 0x180F JUMP JUMPDEST SWAP2 POP PUSH2 0x19E9 DUP3 PUSH2 0x1984 JUMP JUMPDEST PUSH1 0x40 DUP3 ADD SWAP1 POP SWAP2 SWAP1 POP JUMP JUMPDEST PUSH0 PUSH1 0x20 DUP3 ADD SWAP1 POP DUP2 DUP2 SUB PUSH0 DUP4 ADD MSTORE PUSH2 0x1A0B DUP2 PUSH2 0x19D2 JUMP JUMPDEST SWAP1 POP SWAP2 SWAP1 POP JUMP JUMPDEST PUSH32 0x4E487B7100000000000000000000000000000000000000000000000000000000 PUSH0 MSTORE PUSH1 0x22 PUSH1 0x4 MSTORE PUSH1 0x24 PUSH0 REVERT JUMPDEST PUSH0 PUSH1 0x2 DUP3 DIV SWAP1 POP PUSH1 0x1 DUP3 AND DUP1 PUSH2 0x1A56 JUMPI PUSH1 0x7F DUP3 AND SWAP2 POP JUMPDEST PUSH1 0x20 DUP3 LT DUP2 SUB PUSH2 0x1A69 JUMPI PUSH2 0x1A68 PUSH2 0x1A12 JUMP JUMPDEST JUMPDEST POP SWAP2 SWAP1 POP JUMP JUMPDEST PUSH32 0x5472616E73616374696F6E20616C726561647920636F6E6669726D6564000000 PUSH0 DUP3 ADD MSTORE POP JUMP JUMPDEST PUSH0 PUSH2 0x1AA3 PUSH1 0x1D DUP4 PUSH2 0x180F JUMP JUMPDEST SWAP2 POP PUSH2 0x1AAE DUP3 PUSH2 0x1A6F JUMP JUMPDEST PUSH1 0x20 DUP3 ADD SWAP1 POP SWAP2 SWAP1 POP JUMP JUMPDEST PUSH0 PUSH1 0x20 DUP3 ADD SWAP1 POP DUP2 DUP2 SUB PUSH0 DUP4 ADD MSTORE PUSH2 0x1AD0 DUP2 PUSH2 0x1A97 JUMP JUMPDEST SWAP1 POP SWAP2 SWAP1 POP JUMP JUMPDEST PUSH32 0x4E487B7100000000000000000000000000000000000000000000000000000000 PUSH0 MSTORE PUSH1 0x11 PUSH1 0x4 MSTORE PUSH1 0x24 PUSH0 REVERT JUMPDEST PUSH0 PUSH2 0x1B0E DUP3 PUSH2 0x13FA JUMP JUMPDEST SWAP2 POP PUSH2 0x1B19 DUP4 PUSH2 0x13FA JUMP JUMPDEST SWAP3 POP DUP3 DUP3 ADD SWAP1 POP DUP1 DUP3 GT ISZERO PUSH2 0x1B31 JUMPI PUSH2 0x1B30 PUSH2 0x1AD7 JUMP JUMPDEST JUMPDEST SWAP3 SWAP2 POP POP JUMP JUMPDEST PUSH32 0x496E76616C69642064657374696E6174696F6E20616464726573730000000000 PUSH0 DUP3 ADD MSTORE POP JUMP JUMPDEST PUSH0 PUSH2 0x1B6B PUSH1 0x1B DUP4 PUSH2 0x180F JUMP JUMPDEST SWAP2 POP PUSH2 0x1B76 DUP3 PUSH2 0x1B37 JUMP JUMPDEST PUSH1 0x20 DUP3 ADD SWAP1 POP SWAP2 SWAP1 POP JUMP JUMPDEST PUSH0 PUSH1 0x20 DUP3 ADD SWAP1 POP DUP2 DUP2 SUB PUSH0 DUP4 ADD MSTORE PUSH2 0x1B98 DUP2 PUSH2 0x1B5F JUMP JUMPDEST SWAP1 POP SWAP2 SWAP1 POP JUMP JUMPDEST PUSH32 0x496E73756666696369656E7420636F6E74726163742062616C616E6365000000 PUSH0 DUP3 ADD MSTORE POP JUMP JUMPDEST PUSH0 PUSH2 0x1BD3 PUSH1 0x1D DUP4 PUSH2 0x180F JUMP JUMPDEST SWAP2 POP PUSH2 0x1BDE DUP3 PUSH2 0x1B9F JUMP JUMPDEST PUSH1 0x20 DUP3 ADD SWAP1 POP SWAP2 SWAP1 POP JUMP JUMPDEST PUSH0 PUSH1 0x20 DUP3 ADD SWAP1 POP DUP2 DUP2 SUB PUSH0 DUP4 ADD MSTORE PUSH2 0x1C00 DUP2 PUSH2 0x1BC7 JUMP JUMPDEST SWAP1 POP SWAP2 SWAP1 POP JUMP JUMPDEST PUSH32 0x4E487B7100000000000000000000000000000000000000000000000000000000 PUSH0 MSTORE PUSH1 0x41 PUSH1 0x4 MSTORE PUSH1 0x24 PUSH0 REVERT JUMPDEST PUSH0 DUP2 SWAP1 POP DUP2 PUSH0 MSTORE PUSH1 0x20 PUSH0 KECCAK256 SWAP1 POP SWAP2 SWAP1 POP JUMP JUMPDEST PUSH0 PUSH1 0x20 PUSH1 0x1F DUP4 ADD DIV SWAP1 POP SWAP2 SWAP1 POP JUMP JUMPDEST PUSH0 DUP3 DUP3 SHL SWAP1 POP SWAP3 SWAP2 POP POP JUMP JUMPDEST PUSH0 PUSH1 0x8 DUP4 MUL PUSH2 0x1C90 PUSH32 0xFFFFFFFFFFFFFFFFFFFFFFFFFFFFFFFFFFFFFFFFFFFFFFFFFFFFFFFFFFFFFFFF DUP3 PUSH2 0x1C55 JUMP JUMPDEST PUSH2 0x1C9A DUP7 DUP4 PUSH2 0x1C55 JUMP JUMPDEST SWAP6 POP DUP1 NOT DUP5 AND SWAP4 POP DUP1 DUP7 AND DUP5 OR SWAP3 POP POP POP SWAP4 SWAP3 POP POP POP JUMP JUMPDEST PUSH0 DUP2 SWAP1 POP SWAP2 SWAP1 POP JUMP JUMPDEST PUSH0 PUSH2 0x1CD5 PUSH2 0x1CD0 PUSH2 0x1CCB DUP5 PUSH2 0x13FA JUMP JUMPDEST PUSH2 0x1CB2 JUMP JUMPDEST PUSH2 0x13FA JUMP JUMPDEST SWAP1 POP SWAP2 SWAP1 POP JUMP JUMPDEST PUSH0 DUP2 SWAP1 POP SWAP2 SWAP1 POP JUMP JUMPDEST PUSH2 0x1CEE DUP4 PUSH2 0x1CBB JUMP JUMPDEST PUSH2 0x1D02 PUSH2 0x1CFA DUP3 PUSH2 0x1CDC JUMP JUMPDEST DUP5 DUP5 SLOAD PUSH2 0x1C61 JUMP JUMPDEST DUP3 SSTORE POP POP POP POP JUMP JUMPDEST PUSH0 SWAP1 JUMP JUMPDEST PUSH2 0x1D16 PUSH2 0x1D0A JUMP JUMPDEST PUSH2 0x1D21 DUP2 DUP5 DUP5 PUSH2 0x1CE5 JUMP JUMPDEST POP POP POP JUMP JUMPDEST JUMPDEST DUP2 DUP2 LT ISZERO PUSH2 0x1D44 JUMPI PUSH2 0x1D39 PUSH0 DUP3 PUSH2 0x1D0E JUMP JUMPDEST PUSH1 0x1 DUP2 ADD SWAP1 POP PUSH2 0x1D27 JUMP JUMPDEST POP POP JUMP JUMPDEST PUSH1 0x1F DUP3 GT ISZERO PUSH2 0x1D89 JUMPI PUSH2 0x1D5A DUP2 PUSH2 0x1C34 JUMP JUMPDEST PUSH2 0x1D63 DUP5 PUSH2 0x1C46 JUMP JUMPDEST DUP2 ADD PUSH1 0x20 DUP6 LT ISZERO PUSH2 0x1D72 JUMPI DUP2 SWAP1 POP JUMPDEST PUSH2 0x1D86 PUSH2 0x1D7E DUP6 PUSH2 0x1C46 JUMP JUMPDEST DUP4 ADD DUP3 PUSH2 0x1D26 JUMP JUMPDEST POP POP JUMPDEST POP POP POP JUMP JUMPDEST PUSH0 DUP3 DUP3 SHR SWAP1 POP SWAP3 SWAP2 POP POP JUMP JUMPDEST PUSH0 PUSH2 0x1DA9 PUSH0 NOT DUP5 PUSH1 0x8 MUL PUSH2 0x1D8E JUMP JUMPDEST NOT DUP1 DUP4 AND SWAP2 POP POP SWAP3 SWAP2 POP POP JUMP JUMPDEST PUSH0 PUSH2 0x1DC1 DUP4 DUP4 PUSH2 0x1D9A JUMP JUMPDEST SWAP2 POP DUP3 PUSH1 0x2 MUL DUP3 OR SWAP1 POP SWAP3 SWAP2 POP POP JUMP JUMPDEST PUSH2 0x1DDA DUP3 PUSH2 0x1560 JUMP JUMPDEST PUSH8 0xFFFFFFFFFFFFFFFF DUP2 GT ISZERO PUSH2 0x1DF3 JUMPI PUSH2 0x1DF2 PUSH2 0x1C07 JUMP JUMPDEST JUMPDEST PUSH2 0x1DFD DUP3 SLOAD PUSH2 0x1A3F JUMP JUMPDEST PUSH2 0x1E08 DUP3 DUP3 DUP6 PUSH2 0x1D48 JUMP JUMPDEST PUSH0 PUSH1 0x20 SWAP1 POP PUSH1 0x1F DUP4 GT PUSH1 0x1 DUP2 EQ PUSH2 0x1E39 JUMPI PUSH0 DUP5 ISZERO PUSH2 0x1E27 JUMPI DUP3 DUP8 ADD MLOAD SWAP1 POP JUMPDEST PUSH2 0x1E31 DUP6 DUP3 PUSH2 0x1DB6 JUMP JUMPDEST DUP7 SSTORE POP PUSH2 0x1E98 JUMP JUMPDEST PUSH1 0x1F NOT DUP5 AND PUSH2 0x1E47 DUP7 PUSH2 0x1C34 JUMP JUMPDEST PUSH0 JUMPDEST DUP3 DUP2 LT ISZERO PUSH2 0x1E6E JUMPI DUP5 DUP10 ADD MLOAD DUP3 SSTORE PUSH1 0x1 DUP3 ADD SWAP2 POP PUSH1 0x20 DUP6 ADD SWAP5 POP PUSH1 0x20 DUP2 ADD SWAP1 POP PUSH2 0x1E49 JUMP JUMPDEST DUP7 DUP4 LT ISZERO PUSH2 0x1E8B JUMPI DUP5 DUP10 ADD MLOAD PUSH2 0x1E87 PUSH1 0x1F DUP10 AND DUP3 PUSH2 0x1D9A JUMP JUMPDEST DUP4 SSTORE POP JUMPDEST PUSH1 0x1 PUSH1 0x2 DUP9 MUL ADD DUP9 SSTORE POP POP POP JUMPDEST POP POP POP POP POP POP JUMP JUMPDEST DUP3 DUP2 DUP4 CALLDATACOPY PUSH0 DUP4 DUP4 ADD MSTORE POP POP POP JUMP JUMPDEST PUSH0 PUSH2 0x1EB9 DUP4 DUP6 PUSH2 0x156A JUMP JUMPDEST SWAP4 POP PUSH2 0x1EC6 DUP4 DUP6 DUP5 PUSH2 0x1EA0 JUMP JUMPDEST PUSH2 0x1ECF DUP4 PUSH2 0x1588 JUMP JUMPDEST DUP5 ADD SWAP1 POP SWAP4 SWAP3 POP POP POP JUMP JUMPDEST PUSH0 PUSH1 0x60 DUP3 ADD SWAP1 POP PUSH2 0x1EED PUSH0 DUP4 ADD DUP8 PUSH2 0x1488 JUMP JUMPDEST PUSH2 0x1EFA PUSH1 0x20 DUP4 ADD DUP7 PUSH2 0x14B0 JUMP JUMPDEST DUP2 DUP2 SUB PUSH1 0x40 DUP4 ADD MSTORE PUSH2 0x1F0D DUP2 DUP5 DUP7 PUSH2 0x1EAE JUMP JUMPDEST SWAP1 POP SWAP6 SWAP5 POP POP POP POP POP JUMP JUMPDEST PUSH32 0x496E76616C6964207468726573686F6C64000000000000000000000000000000 PUSH0 DUP3 ADD MSTORE POP JUMP JUMPDEST PUSH0 PUSH2 0x1F4C PUSH1 0x11 DUP4 PUSH2 0x180F JUMP JUMPDEST SWAP2 POP PUSH2 0x1F57 DUP3 PUSH2 0x1F18 JUMP JUMPDEST PUSH1 0x20 DUP3 ADD SWAP1 POP SWAP2 SWAP1 POP JUMP JUMPDEST PUSH0 PUSH1 0x20 DUP3 ADD SWAP1 POP DUP2 DUP2 SUB PUSH0 DUP4 ADD MSTORE PUSH2 0x1F79 DUP2 PUSH2 0x1F40 JUMP JUMPDEST SWAP1 POP SWAP2 SWAP1 POP JUMP JUMPDEST PUSH32 0x4E6F7420656E6F75676820636F6E6669726D6174696F6E730000000000000000 PUSH0 DUP3 ADD MSTORE POP JUMP JUMPDEST PUSH0 PUSH2 0x1FB4 PUSH1 0x18 DUP4 PUSH2 0x180F JUMP JUMPDEST SWAP2 POP PUSH2 0x1FBF DUP3 PUSH2 0x1F80 JUMP JUMPDEST PUSH1 0x20 DUP3 ADD SWAP1 POP SWAP2 SWAP1 POP JUMP JUMPDEST PUSH0 PUSH1 0x20 DUP3 ADD SWAP1 POP DUP2 DUP2 SUB PUSH0 DUP4 ADD MSTORE PUSH2 0x1FE1 DUP2 PUSH2 0x1FA8 JUMP JUMPDEST SWAP1 POP SWAP2 SWAP1 POP JUMP JUMPDEST PUSH0 DUP2 SWAP1 POP SWAP3 SWAP2 POP POP JUMP JUMPDEST PUSH0 DUP2 SLOAD PUSH2 0x1FFE DUP2 PUSH2 0x1A3F JUMP JUMPDEST PUSH2 0x2008 DUP2 DUP7 PUSH2 0x1FE8 JUMP JUMPDEST SWAP5 POP PUSH1 0x1 DUP3 AND PUSH0 DUP2 EQ PUSH2 0x2022 JUMPI PUSH1 0x1 DUP2 EQ PUSH2 0x2037 JUMPI PUSH2 0x2069 JUMP JUMPDEST PUSH1 0xFF NOT DUP4 AND DUP7 MSTORE DUP2 ISZERO ISZERO DUP3 MUL DUP7 ADD SWAP4 POP PUSH2 0x2069 JUMP JUMPDEST PUSH2 0x2040 DUP6 PUSH2 0x1C34 JUMP JUMPDEST PUSH0 JUMPDEST DUP4 DUP2 LT ISZERO PUSH2 0x2061 JUMPI DUP2 SLOAD DUP2 DUP10 ADD MSTORE PUSH1 0x1 DUP3 ADD SWAP2 POP PUSH1 0x20 DUP2 ADD SWAP1 POP PUSH2 0x2042 JUMP JUMPDEST DUP4 DUP9 ADD SWAP6 POP POP POP JUMPDEST POP POP POP SWAP3 SWAP2 POP POP JUMP JUMPDEST PUSH0 PUSH2 0x207D DUP3 DUP5 PUSH2 0x1FF2 JUMP JUMPDEST SWAP2 POP DUP2 SWAP1 POP SWAP3 SWAP2 POP POP JUMP JUMPDEST PUSH0 DUP2 SLOAD PUSH2 0x2094 DUP2 PUSH2 0x1A3F JUMP JUMPDEST PUSH2 0x209E DUP2 DUP7 PUSH2 0x156A JUMP JUMPDEST SWAP5 POP PUSH1 0x1 DUP3 AND PUSH0 DUP2 EQ PUSH2 0x20B8 JUMPI PUSH1 0x1 DUP2 EQ PUSH2 0x20CE JUMPI PUSH2 0x2100 JUMP JUMPDEST PUSH1 0xFF NOT DUP4 AND DUP7 MSTORE DUP2 ISZERO ISZERO PUSH1 0x20 MUL DUP7 ADD SWAP4 POP PUSH2 0x2100 JUMP JUMPDEST PUSH2 0x20D7 DUP6 PUSH2 0x1C34 JUMP JUMPDEST PUSH0 JUMPDEST DUP4 DUP2 LT ISZERO PUSH2 0x20F8 JUMPI DUP2 SLOAD DUP2 DUP10 ADD MSTORE PUSH1 0x1 DUP3 ADD SWAP2 POP PUSH1 0x20 DUP2 ADD SWAP1 POP PUSH2 0x20D9 JUMP JUMPDEST DUP1 DUP9 ADD SWAP6 POP POP POP JUMPDEST POP POP POP SWAP3 SWAP2 POP POP JUMP JUMPDEST PUSH0 PUSH1 0x40 DUP3 ADD SWAP1 POP PUSH2 0x211C PUSH0 DUP4 ADD DUP6 PUSH2 0x14B0 JUMP JUMPDEST DUP2 DUP2 SUB PUSH1 0x20 DUP4 ADD MSTORE PUSH2 0x212E DUP2 DUP5 PUSH2 0x2088 JUMP JUMPDEST SWAP1 POP SWAP4 SWAP3 POP POP POP JUMP JUMPDEST PUSH32 0x5472616E73616374696F6E20657865637574696F6E206661696C656400000000 PUSH0 DUP3 ADD MSTORE POP JUMP JUMPDEST PUSH0 PUSH2 0x216B PUSH1 0x1C DUP4 PUSH2 0x180F JUMP JUMPDEST SWAP2 POP PUSH2 0x2176 DUP3 PUSH2 0x2137 JUMP JUMPDEST PUSH1 0x20 DUP3 ADD SWAP1 POP SWAP2 SWAP1 POP JUMP JUMPDEST PUSH0 PUSH1 0x20 DUP3 ADD SWAP1 POP DUP2 DUP2 SUB PUSH0 DUP4 ADD MSTORE PUSH2 0x2198 DUP2 PUSH2 0x215F JUMP JUMPDEST SWAP1 POP SWAP2 SWAP1 POP JUMP JUMPDEST PUSH32 0x5265656E7472616E637947756172643A207265656E7472616E742063616C6C00 PUSH0 DUP3 ADD MSTORE POP JUMP JUMPDEST PUSH0 PUSH2 0x21D3 PUSH1 0x1F DUP4 PUSH2 0x180F JUMP JUMPDEST SWAP2 POP PUSH2 0x21DE DUP3 PUSH2 0x219F JUMP JUMPDEST PUSH1 0x20 DUP3 ADD SWAP1 POP SWAP2 SWAP1 POP JUMP JUMPDEST PUSH0 PUSH1 0x20 DUP3 ADD SWAP1 POP DUP2 DUP2 SUB PUSH0 DUP4 ADD MSTORE PUSH2 0x2200 DUP2 PUSH2 0x21C7 JUMP JUMPDEST SWAP1 POP SWAP2 SWAP1 POP JUMP INVALID LOG2 PUSH5 0x6970667358 0x22 SLT KECCAK256 0xB2 0xE5 0xA6 PUSH6 0x907ED55B519A SDIV 0xCD LT 0xBD 0xE7 DUP13 TSTORE BLOCKHASH SUB SWAP7 ISZERO INVALID MULMOD MULMOD PUSH26 0x16CC6D74DDA43B64736F6C634300081A00330000000000000000 "
				},
				"gasEstimates": {
					"creation": {
						"codeDepositCost": "1753000",
						"executionCost": "infinite",
						"totalCost": "infinite"
					},
					"external": {
						"cancelTransaction(uint256)": "39512",
						"confirmTransaction(uint256)": "infinite",
						"confirmations(uint256,address)": "3182",
						"executeTransaction(uint256)": "infinite",
						"getOwners()": "infinite",
						"getTransaction(uint256)": "infinite",
						"getTransactionCount()": "2463",
						"isOwner(address)": "2878",
						"owners(uint256)": "4945",
						"submitTransaction(address,uint256,bytes)": "infinite",
						"threshold()": "2448",
						"transactions(uint256)": "infinite",
						"updateThreshold(uint256)": "infinite"
					}
				},
				"methodIdentifiers": {
					"cancelTransaction(uint256)": "3380c0d8",
					"confirmTransaction(uint256)": "c01a8c84",
					"confirmations(uint256,address)": "3411c81c",
					"executeTransaction(uint256)": "ee22610b",
					"getOwners()": "a0e67e2b",
					"getTransaction(uint256)": "33ea3dc8",
					"getTransactionCount()": "2e7700f0",
					"isOwner(address)": "2f54bf6e",
					"owners(uint256)": "025e7c27",
					"submitTransaction(address,uint256,bytes)": "c6427474",
					"threshold()": "42cde4e8",
					"transactions(uint256)": "9ace38c2",
					"updateThreshold(uint256)": "d7d7442f"
				}
			},
			"storageLayout": {
				"storage": [
					{
						"astId": 10,
						"contract": "GnosisSafeSimplified.sol:GnosisSafeSimplified",
						"label": "_status",
						"offset": 0,
						"slot": "0",
						"type": "t_uint256"
					},
					{
						"astId": 138,
						"contract": "GnosisSafeSimplified.sol:GnosisSafeSimplified",
						"label": "owners",
						"offset": 0,
						"slot": "1",
						"type": "t_array(t_address)dyn_storage"
					},
					{
						"astId": 142,
						"contract": "GnosisSafeSimplified.sol:GnosisSafeSimplified",
						"label": "isOwner",
						"offset": 0,
						"slot": "2",
						"type": "t_mapping(t_address,t_bool)"
					},
					{
						"astId": 144,
						"contract": "GnosisSafeSimplified.sol:GnosisSafeSimplified",
						"label": "threshold",
						"offset": 0,
						"slot": "3",
						"type": "t_uint256"
					},
					{
						"astId": 148,
						"contract": "GnosisSafeSimplified.sol:GnosisSafeSimplified",
						"label": "transactions",
						"offset": 0,
						"slot": "4",
						"type": "t_array(t_struct(Transaction)135_storage)dyn_storage"
					},
					{
						"astId": 154,
						"contract": "GnosisSafeSimplified.sol:GnosisSafeSimplified",
						"label": "confirmations",
						"offset": 0,
						"slot": "5",
						"type": "t_mapping(t_uint256,t_mapping(t_address,t_bool))"
					}
				],
				"types": {
					"t_address": {
						"encoding": "inplace",
						"label": "address",
						"numberOfBytes": "20"
					},
					"t_array(t_address)dyn_storage": {
						"base": "t_address",
						"encoding": "dynamic_array",
						"label": "address[]",
						"numberOfBytes": "32"
					},
					"t_array(t_struct(Transaction)135_storage)dyn_storage": {
						"base": "t_struct(Transaction)135_storage",
						"encoding": "dynamic_array",
						"label": "struct GnosisSafeSimplified.Transaction[]",
						"numberOfBytes": "32"
					},
					"t_bool": {
						"encoding": "inplace",
						"label": "bool",
						"numberOfBytes": "1"
					},
					"t_bytes_storage": {
						"encoding": "bytes",
						"label": "bytes",
						"numberOfBytes": "32"
					},
					"t_mapping(t_address,t_bool)": {
						"encoding": "mapping",
						"key": "t_address",
						"label": "mapping(address => bool)",
						"numberOfBytes": "32",
						"value": "t_bool"
					},
					"t_mapping(t_uint256,t_mapping(t_address,t_bool))": {
						"encoding": "mapping",
						"key": "t_uint256",
						"label": "mapping(uint256 => mapping(address => bool))",
						"numberOfBytes": "32",
						"value": "t_mapping(t_address,t_bool)"
					},
					"t_struct(Transaction)135_storage": {
						"encoding": "inplace",
						"label": "struct GnosisSafeSimplified.Transaction",
						"members": [
							{
								"astId": 126,
								"contract": "GnosisSafeSimplified.sol:GnosisSafeSimplified",
								"label": "destination",
								"offset": 0,
								"slot": "0",
								"type": "t_address"
							},
							{
								"astId": 128,
								"contract": "GnosisSafeSimplified.sol:GnosisSafeSimplified",
								"label": "value",
								"offset": 0,
								"slot": "1",
								"type": "t_uint256"
							},
							{
								"astId": 130,
								"contract": "GnosisSafeSimplified.sol:GnosisSafeSimplified",
								"label": "data",
								"offset": 0,
								"slot": "2",
								"type": "t_bytes_storage"
							},
							{
								"astId": 132,
								"contract": "GnosisSafeSimplified.sol:GnosisSafeSimplified",
								"label": "executed",
								"offset": 0,
								"slot": "3",
								"type": "t_bool"
							},
							{
								"astId": 134,
								"contract": "GnosisSafeSimplified.sol:GnosisSafeSimplified",
								"label": "confirmationsCount",
								"offset": 0,
								"slot": "4",
								"type": "t_uint256"
							}
						],
						"numberOfBytes": "160"
					},
					"t_uint256": {
						"encoding": "inplace",
						"label": "uint256",
						"numberOfBytes": "32"
					}
				}
			},
			"userdoc": {
				"kind": "user",
				"methods": {},
				"version": 1
			}
		}
	}
}